{
  "abi": [
    {
      "constant": true,
      "inputs": [],
      "name": "reportDelaySec",
      "outputs": [
        {
          "name": "",
          "type": "uint256"
        }
      ],
      "payable": false,
      "stateMutability": "view",
      "type": "function"
    },
    {
      "constant": false,
      "inputs": [
        {
          "name": "payload",
          "type": "uint256"
        }
      ],
      "name": "pushReport",
      "outputs": [],
      "payable": false,
      "stateMutability": "nonpayable",
      "type": "function"
    },
    {
      "constant": false,
      "inputs": [],
      "name": "getData",
      "outputs": [
        {
          "name": "",
          "type": "uint256"
        },
        {
          "name": "",
          "type": "bool"
        }
      ],
      "payable": false,
      "stateMutability": "nonpayable",
      "type": "function"
    },
    {
      "constant": false,
      "inputs": [
        {
          "name": "provider",
          "type": "address"
        }
      ],
      "name": "addProvider",
      "outputs": [],
      "payable": false,
      "stateMutability": "nonpayable",
      "type": "function"
    },
    {
      "constant": true,
      "inputs": [
        {
          "name": "",
          "type": "uint256"
        }
      ],
      "name": "providers",
      "outputs": [
        {
          "name": "",
          "type": "address"
        }
      ],
      "payable": false,
      "stateMutability": "view",
      "type": "function"
    },
    {
      "constant": false,
      "inputs": [],
      "name": "renounceOwnership",
      "outputs": [],
      "payable": false,
      "stateMutability": "nonpayable",
      "type": "function"
    },
    {
      "constant": false,
      "inputs": [
        {
          "name": "provider",
          "type": "address"
        }
      ],
      "name": "removeProvider",
      "outputs": [],
      "payable": false,
      "stateMutability": "nonpayable",
      "type": "function"
    },
    {
      "constant": true,
      "inputs": [],
      "name": "owner",
      "outputs": [
        {
          "name": "",
          "type": "address"
        }
      ],
      "payable": false,
      "stateMutability": "view",
      "type": "function"
    },
    {
      "constant": true,
      "inputs": [],
      "name": "isOwner",
      "outputs": [
        {
          "name": "",
          "type": "bool"
        }
      ],
      "payable": false,
      "stateMutability": "view",
      "type": "function"
    },
    {
      "constant": true,
      "inputs": [],
      "name": "minimumProviders",
      "outputs": [
        {
          "name": "",
          "type": "uint256"
        }
      ],
      "payable": false,
      "stateMutability": "view",
      "type": "function"
    },
    {
      "constant": false,
      "inputs": [],
      "name": "purgeReports",
      "outputs": [],
      "payable": false,
      "stateMutability": "nonpayable",
      "type": "function"
    },
    {
      "constant": false,
      "inputs": [
        {
          "name": "reportDelaySec_",
          "type": "uint256"
        }
      ],
      "name": "setReportDelaySec",
      "outputs": [],
      "payable": false,
      "stateMutability": "nonpayable",
      "type": "function"
    },
    {
      "constant": true,
      "inputs": [],
      "name": "providersSize",
      "outputs": [
        {
          "name": "",
          "type": "uint256"
        }
      ],
      "payable": false,
      "stateMutability": "view",
      "type": "function"
    },
    {
      "constant": true,
      "inputs": [],
      "name": "reportExpirationTimeSec",
      "outputs": [
        {
          "name": "",
          "type": "uint256"
        }
      ],
      "payable": false,
      "stateMutability": "view",
      "type": "function"
    },
    {
      "constant": false,
      "inputs": [
        {
          "name": "minimumProviders_",
          "type": "uint256"
        }
      ],
      "name": "setMinimumProviders",
      "outputs": [],
      "payable": false,
      "stateMutability": "nonpayable",
      "type": "function"
    },
    {
      "constant": true,
      "inputs": [
        {
          "name": "",
          "type": "address"
        },
        {
          "name": "",
          "type": "uint256"
        }
      ],
      "name": "providerReports",
      "outputs": [
        {
          "name": "timestamp",
          "type": "uint256"
        },
        {
          "name": "payload",
          "type": "uint256"
        }
      ],
      "payable": false,
      "stateMutability": "view",
      "type": "function"
    },
    {
      "constant": false,
      "inputs": [
        {
          "name": "newOwner",
          "type": "address"
        }
      ],
      "name": "transferOwnership",
      "outputs": [],
      "payable": false,
      "stateMutability": "nonpayable",
      "type": "function"
    },
    {
      "constant": false,
      "inputs": [
        {
          "name": "reportExpirationTimeSec_",
          "type": "uint256"
        }
      ],
      "name": "setReportExpirationTimeSec",
      "outputs": [],
      "payable": false,
      "stateMutability": "nonpayable",
      "type": "function"
    },
    {
      "inputs": [
        {
          "name": "reportExpirationTimeSec_",
          "type": "uint256"
        },
        {
          "name": "reportDelaySec_",
          "type": "uint256"
        },
        {
          "name": "minimumProviders_",
          "type": "uint256"
        }
      ],
      "payable": false,
      "stateMutability": "nonpayable",
      "type": "constructor"
    },
    {
      "anonymous": false,
      "inputs": [
        {
          "indexed": false,
          "name": "provider",
          "type": "address"
        }
      ],
      "name": "ProviderAdded",
      "type": "event"
    },
    {
      "anonymous": false,
      "inputs": [
        {
          "indexed": false,
          "name": "provider",
          "type": "address"
        }
      ],
      "name": "ProviderRemoved",
      "type": "event"
    },
    {
      "anonymous": false,
      "inputs": [
        {
          "indexed": false,
          "name": "provider",
          "type": "address"
        }
      ],
      "name": "ReportTimestampOutOfRange",
      "type": "event"
    },
    {
      "anonymous": false,
      "inputs": [
        {
          "indexed": true,
          "name": "provider",
          "type": "address"
        },
        {
          "indexed": false,
          "name": "payload",
          "type": "uint256"
        },
        {
          "indexed": false,
          "name": "timestamp",
          "type": "uint256"
        }
      ],
      "name": "ProviderReportPushed",
      "type": "event"
    },
    {
      "anonymous": false,
      "inputs": [
        {
          "indexed": true,
          "name": "previousOwner",
          "type": "address"
        },
        {
          "indexed": true,
          "name": "newOwner",
          "type": "address"
        }
      ],
      "name": "OwnershipTransferred",
      "type": "event"
    }
  ],
  "bytecode": "6080604052600160055534801561001557600080fd5b50604051606080610f6083398101604081815282516020840151919093015160008054600160a060020a031916331780825592939192600160a060020a0316917f8be0079c531659141344cd1fd0a4f28419497f9722a3daafe3b4186f6b6457e0908290a36312bed40083111561008b57600080fd5b6000811161009857600080fd5b600392909255600455600555610ead806100b36000396000f3006080604052600436106100fb5763ffffffff7c010000000000000000000000000000000000000000000000000000000060003504166312e800f181146101005780631e20d14b146101275780633bc5de301461014157806346e2577a1461016f57806350f3fc8114610190578063715018a6146101c45780638a355a57146101d95780638da5cb5b146101fa5780638f32d59b1461020f578063b577c0c714610238578063d13d59711461024d578063da6b0eea14610262578063dcbb82531461027a578063df9829851461028f578063ef35bcce146102a4578063f10864b6146102bc578063f2fde38b146102f9578063f68be5131461031a575b600080fd5b34801561010c57600080fd5b50610115610332565b60408051918252519081900360200190f35b34801561013357600080fd5b5061013f600435610338565b005b34801561014d57600080fd5b50610156610454565b6040805192835290151560208301528051918290030190f35b34801561017b57600080fd5b5061013f600160a060020a03600435166107aa565b34801561019c57600080fd5b506101a8600435610887565b60408051600160a060020a039092168252519081900360200190f35b3480156101d057600080fd5b5061013f6108af565b3480156101e557600080fd5b5061013f600160a060020a0360043516610919565b34801561020657600080fd5b506101a8610a65565b34801561021b57600080fd5b50610224610a75565b604080519115158252519081900360200190f35b34801561024457600080fd5b50610115610a86565b34801561025957600080fd5b5061013f610a8c565b34801561026e57600080fd5b5061013f600435610aca565b34801561028657600080fd5b50610115610ae2565b34801561029b57600080fd5b50610115610ae8565b3480156102b057600080fd5b5061013f600435610aee565b3480156102c857600080fd5b506102e0600160a060020a0360043516602435610b13565b6040805192835260208301919091528051918290030190f35b34801561030557600080fd5b5061013f600160a060020a0360043516610b42565b34801561032657600080fd5b5061013f600435610b61565b60045481565b600080610343610dbe565b50503360008181526002602081815260408084208151808301909252805480835293810154928201929092529394509291908190811061038257600080fd5b602083015183511015610396576001610399565b60005b9150816001039050426103ca600454858560ff166002811015156103b957fe5b60200201519063ffffffff610b8a16565b11156103d557600080fd5b428460ff8316600281106103e557fe5b600202016000018190555085848260ff1660028110151561040257fe5b6002020160010155604080518781524260208201528151600160a060020a038816927f460fcc5a1888965d48c2cab000fe20da51b1297d995af79a1924e2312d0d82b3928290030190a2505050505050565b60008060006060600080600080600061046b610dd9565b6000806000806001805490509b508b6040519080825280602002602001820160405280156104a3578160200160208202803883390190505b509a50600099506104bf60035442610ba390919063ffffffff16565b98506104d660045442610ba390919063ffffffff16565b9750600096505b8b8710156107735760018054889081106104f357fe5b6000918252602080832090910154600160a060020a03168083526002918290526040808420815180830190925291995092909190835b82821015610565578382600202016040805190810160405290816000820154815260200160018201548152505081526020019060010190610529565b50929750879250600191506105779050565b602002015151855151101561058d576001610590565b60005b9350600184900392508460ff8516600281106105a857fe5b6020020151519150878211156106cf57600160a060020a03861660009081526002602081905260409091209060ff85169081106105e157fe5b60020201549050888110156106315760408051600160a060020a038816815290517f71f61642cb57ac11764a2f35fb4edc5361ced458af35bbed8f5ebf708c10e3419181900360200190a16106ca565b8781111561067a5760408051600160a060020a038816815290517f71f61642cb57ac11764a2f35fb4edc5361ced458af35bbed8f5ebf708c10e3419181900360200190a16106ca565b600160a060020a03861660009081526002602081905260409091209060ff85169081106106a357fe5b60020201600101548b8b806001019c508151811015156106bf57fe5b602090810290910101525b610768565b888210156107185760408051600160a060020a038816815290517f71f61642cb57ac11764a2f35fb4edc5361ced458af35bbed8f5ebf708c10e3419181900360200190a1610768565b600160a060020a03861660009081526002602081905260409091209060ff861690811061074157fe5b60020201600101548b8b806001019c5081518110151561075d57fe5b602090810290910101525b6001909601956104dd565b6005548a10156107895760009d508d9c5061079a565b6107938b8b610bba565b60019d509d505b5050505050505050505050509091565b6107b2610a75565b15156107bd57600080fd5b600160a060020a038116600090815260026020526040902054156107e057600080fd5b6001805480820182557fb10e2d527612073b26eecdfd717e6a320cf44b4afac2b0732d9fcbe2b7fa0cf601805473ffffffffffffffffffffffffffffffffffffffff1916600160a060020a038416908117909155600090815260026020526040812090600202015560408051600160a060020a038316815290517fae9c2c6481964847714ce58f65a7f6dcc41d0d8394449bacdf161b5920c4744a9181900360200190a150565b600180548290811061089557fe5b600091825260209091200154600160a060020a0316905081565b6108b7610a75565b15156108c257600080fd5b60008054604051600160a060020a03909116907f8be0079c531659141344cd1fd0a4f28419497f9722a3daafe3b4186f6b6457e0908390a36000805473ffffffffffffffffffffffffffffffffffffffff19169055565b6000610923610a75565b151561092e57600080fd5b600160a060020a038216600090815260026020526040812061094f91610e07565b5060005b600154811015610a615781600160a060020a031660018281548110151561097657fe5b600091825260209091200154600160a060020a03161415610a59576001805490820114610a04576001805460001981019081106109af57fe5b60009182526020909120015460018054600160a060020a0390921691839081106109d557fe5b9060005260206000200160006101000a815481600160a060020a030219169083600160a060020a031602179055505b6001805490610a17906000198301610e23565b5060408051600160a060020a038416815290517f1589f8555933761a3cff8aa925061be3b46e2dd43f621322ab611d300f62b1d99181900360200190a1610a61565b600101610953565b5050565b600054600160a060020a03165b90565b600054600160a060020a0316331490565b60055481565b3360008181526002602052604081205411610aa657600080fd5b600160a060020a031660009081526002602081905260409091206001808255910155565b610ad2610a75565b1515610add57600080fd5b600455565b60015490565b60035481565b610af6610a75565b1515610b0157600080fd5b60008111610b0e57600080fd5b600555565b600260205281600052604060002081600281101515610b2e57fe5b600202018054600190910154909250905082565b610b4a610a75565b1515610b5557600080fd5b610b5e81610d41565b50565b610b69610a75565b1515610b7457600080fd5b6312bed400811115610b8557600080fd5b600355565b600082820183811015610b9c57600080fd5b9392505050565b60008083831115610bb357600080fd5b5050900390565b600080600080600085118015610bd1575084865110155b1515610bdc57600080fd5b600192505b84831015610cb4578291505b600082118015610c2d57508582815181101515610c0657fe5b906020019060200201518660018403815181101515610c2157fe5b90602001906020020151115b15610ca9578582815181101515610c4057fe5b9060200190602002015190508560018303815181101515610c5d57fe5b906020019060200201518683815181101515610c7557fe5b602090810290910101528551819087906000198501908110610c9357fe5b6020908102909101015260001990910190610bed565b600190920191610be1565b6002850660011415610ce2578560028604815181101515610cd157fe5b906020019060200201519350610d38565b6002610d2b87600183890403815181101515610cfa57fe5b602090810290910101518860028904815181101515610d1557fe5b602090810290910101519063ffffffff610b8a16565b811515610d3457fe5b0493505b50505092915050565b600160a060020a0381161515610d5657600080fd5b60008054604051600160a060020a03808516939216917f8be0079c531659141344cd1fd0a4f28419497f9722a3daafe3b4186f6b6457e091a36000805473ffffffffffffffffffffffffffffffffffffffff1916600160a060020a0392909216919091179055565b60408051808201825290600290829080388339509192915050565b6080604051908101604052806002905b610df1610e4c565b815260200190600190039081610de95790505090565b5060008082556001820181905560028201819055600390910155565b815481835581811115610e4757600083815260209020610e47918101908301610e63565b505050565b604080518082019091526000808252602082015290565b610a7291905b80821115610e7d5760008155600101610e69565b50905600a165627a7a72305820dd6c250b5631475f219871a010e8b6f68d9a2c807d1edadc35a506fb4985eb150029",
  "bytecodeSha1": "e487a41ac63c0ea24cc545a0732764bd1bf0a0e5",
  "compiler": {
    "evm_version": "byzantium",
    "optimizer": {
      "enabled": true,
      "runs": 200
    },
    "version": "0.4.24+commit.e67f0147"
  },
  "contractName": "MedianOracle",
  "language": "Solidity",
  "natspec": {
    "methods": {
      "addProvider(address)": {
        "notice": "Authorizes a provider.",
        "params": {
          "provider": "Address of the provider."
        }
      },
      "getData()": {
        "notice": "Computes median of provider reports whose timestamps are in the        valid timestamp range.",
        "return": "AggregatedValue: Median of providers reported values.        valid: Boolean indicating an aggregated value was computed successfully."
      },
      "isOwner()": {
        "return": "true if `msg.sender` is the owner of the contract."
      },
      "owner()": {
        "return": "the address of the owner."
      },
      "providersSize()": {
        "return": "The number of authorized providers."
      },
      "purgeReports()": {
        "notice": "Invalidates the reports of the calling provider."
      },
      "pushReport(uint256)": {
        "notice": "Pushes a report for the calling provider.",
        "params": {
          "payload": "is expected to be 18 decimal fixed point number."
        }
      },
      "removeProvider(address)": {
        "notice": "Revokes provider authorization.",
        "params": {
          "provider": "Address of the provider."
        }
      },
      "renounceOwnership()": {
        "details": "Allows the current owner to relinquish control of the contract.",
        "notice": "Renouncing to ownership will leave the contract without an owner. It will not be possible to call the functions with the `onlyOwner` modifier anymore."
      },
      "setMinimumProviders(uint256)": {
        "notice": "Sets the minimum number of providers with valid reports to        consider the aggregate report valid.",
        "params": {
          "minimumProviders_": "The new minimum number of providers."
        }
      },
      "setReportDelaySec(uint256)": {
        "notice": "Sets the time period since reporting that has to pass before a        report is usable.",
        "params": {
          "reportDelaySec_": "The new delay period in seconds."
        }
      },
      "setReportExpirationTimeSec(uint256)": {
        "notice": "Sets the report expiration period.",
        "params": {
          "reportExpirationTimeSec_": "The number of seconds after which the       report is deemed expired."
        }
      },
      "transferOwnership(address)": {
        "details": "Allows the current owner to transfer control of the contract to a newOwner.",
        "params": {
          "newOwner": "The address to transfer ownership to."
        }
      }
    },
    "title": "Median Oracle"
  },
  "opcodes": "PUSH1 0x80 PUSH1 0x40 MSTORE PUSH1 0x4 CALLDATASIZE LT PUSH2 0xFB JUMPI PUSH4 0xFFFFFFFF PUSH29 0x100000000000000000000000000000000000000000000000000000000 PUSH1 0x0 CALLDATALOAD DIV AND PUSH4 0x12E800F1 DUP2 EQ PUSH2 0x100 JUMPI DUP1 PUSH4 0x1E20D14B EQ PUSH2 0x127 JUMPI DUP1 PUSH4 0x3BC5DE30 EQ PUSH2 0x141 JUMPI DUP1 PUSH4 0x46E2577A EQ PUSH2 0x16F JUMPI DUP1 PUSH4 0x50F3FC81 EQ PUSH2 0x190 JUMPI DUP1 PUSH4 0x715018A6 EQ PUSH2 0x1C4 JUMPI DUP1 PUSH4 0x8A355A57 EQ PUSH2 0x1D9 JUMPI DUP1 PUSH4 0x8DA5CB5B EQ PUSH2 0x1FA JUMPI DUP1 PUSH4 0x8F32D59B EQ PUSH2 0x20F JUMPI DUP1 PUSH4 0xB577C0C7 EQ PUSH2 0x238 JUMPI DUP1 PUSH4 0xD13D5971 EQ PUSH2 0x24D JUMPI DUP1 PUSH4 0xDA6B0EEA EQ PUSH2 0x262 JUMPI DUP1 PUSH4 0xDCBB8253 EQ PUSH2 0x27A JUMPI DUP1 PUSH4 0xDF982985 EQ PUSH2 0x28F JUMPI DUP1 PUSH4 0xEF35BCCE EQ PUSH2 0x2A4 JUMPI DUP1 PUSH4 0xF10864B6 EQ PUSH2 0x2BC JUMPI DUP1 PUSH4 0xF2FDE38B EQ PUSH2 0x2F9 JUMPI DUP1 PUSH4 0xF68BE513 EQ PUSH2 0x31A JUMPI JUMPDEST PUSH1 0x0 DUP1 REVERT JUMPDEST CALLVALUE DUP1 ISZERO PUSH2 0x10C JUMPI PUSH1 0x0 DUP1 REVERT JUMPDEST POP PUSH2 0x115 PUSH2 0x332 JUMP JUMPDEST PUSH1 0x40 DUP1 MLOAD SWAP2 DUP3 MSTORE MLOAD SWAP1 DUP2 SWAP1 SUB PUSH1 0x20 ADD SWAP1 RETURN JUMPDEST CALLVALUE DUP1 ISZERO PUSH2 0x133 JUMPI PUSH1 0x0 DUP1 REVERT JUMPDEST POP PUSH2 0x13F PUSH1 0x4 CALLDATALOAD PUSH2 0x338 JUMP JUMPDEST STOP JUMPDEST CALLVALUE DUP1 ISZERO PUSH2 0x14D JUMPI PUSH1 0x0 DUP1 REVERT JUMPDEST POP PUSH2 0x156 PUSH2 0x454 JUMP JUMPDEST PUSH1 0x40 DUP1 MLOAD SWAP3 DUP4 MSTORE SWAP1 ISZERO ISZERO PUSH1 0x20 DUP4 ADD MSTORE DUP1 MLOAD SWAP2 DUP3 SWAP1 SUB ADD SWAP1 RETURN JUMPDEST CALLVALUE DUP1 ISZERO PUSH2 0x17B JUMPI PUSH1 0x0 DUP1 REVERT JUMPDEST POP PUSH2 0x13F PUSH1 0x1 PUSH1 0xA0 PUSH1 0x2 EXP SUB PUSH1 0x4 CALLDATALOAD AND PUSH2 0x7AA JUMP JUMPDEST CALLVALUE DUP1 ISZERO PUSH2 0x19C JUMPI PUSH1 0x0 DUP1 REVERT JUMPDEST POP PUSH2 0x1A8 PUSH1 0x4 CALLDATALOAD PUSH2 0x887 JUMP JUMPDEST PUSH1 0x40 DUP1 MLOAD PUSH1 0x1 PUSH1 0xA0 PUSH1 0x2 EXP SUB SWAP1 SWAP3 AND DUP3 MSTORE MLOAD SWAP1 DUP2 SWAP1 SUB PUSH1 0x20 ADD SWAP1 RETURN JUMPDEST CALLVALUE DUP1 ISZERO PUSH2 0x1D0 JUMPI PUSH1 0x0 DUP1 REVERT JUMPDEST POP PUSH2 0x13F PUSH2 0x8AF JUMP JUMPDEST CALLVALUE DUP1 ISZERO PUSH2 0x1E5 JUMPI PUSH1 0x0 DUP1 REVERT JUMPDEST POP PUSH2 0x13F PUSH1 0x1 PUSH1 0xA0 PUSH1 0x2 EXP SUB PUSH1 0x4 CALLDATALOAD AND PUSH2 0x919 JUMP JUMPDEST CALLVALUE DUP1 ISZERO PUSH2 0x206 JUMPI PUSH1 0x0 DUP1 REVERT JUMPDEST POP PUSH2 0x1A8 PUSH2 0xA65 JUMP JUMPDEST CALLVALUE DUP1 ISZERO PUSH2 0x21B JUMPI PUSH1 0x0 DUP1 REVERT JUMPDEST POP PUSH2 0x224 PUSH2 0xA75 JUMP JUMPDEST PUSH1 0x40 DUP1 MLOAD SWAP2 ISZERO ISZERO DUP3 MSTORE MLOAD SWAP1 DUP2 SWAP1 SUB PUSH1 0x20 ADD SWAP1 RETURN JUMPDEST CALLVALUE DUP1 ISZERO PUSH2 0x244 JUMPI PUSH1 0x0 DUP1 REVERT JUMPDEST POP PUSH2 0x115 PUSH2 0xA86 JUMP JUMPDEST CALLVALUE DUP1 ISZERO PUSH2 0x259 JUMPI PUSH1 0x0 DUP1 REVERT JUMPDEST POP PUSH2 0x13F PUSH2 0xA8C JUMP JUMPDEST CALLVALUE DUP1 ISZERO PUSH2 0x26E JUMPI PUSH1 0x0 DUP1 REVERT JUMPDEST POP PUSH2 0x13F PUSH1 0x4 CALLDATALOAD PUSH2 0xACA JUMP JUMPDEST CALLVALUE DUP1 ISZERO PUSH2 0x286 JUMPI PUSH1 0x0 DUP1 REVERT JUMPDEST POP PUSH2 0x115 PUSH2 0xAE2 JUMP JUMPDEST CALLVALUE DUP1 ISZERO PUSH2 0x29B JUMPI PUSH1 0x0 DUP1 REVERT JUMPDEST POP PUSH2 0x115 PUSH2 0xAE8 JUMP JUMPDEST CALLVALUE DUP1 ISZERO PUSH2 0x2B0 JUMPI PUSH1 0x0 DUP1 REVERT JUMPDEST POP PUSH2 0x13F PUSH1 0x4 CALLDATALOAD PUSH2 0xAEE JUMP JUMPDEST CALLVALUE DUP1 ISZERO PUSH2 0x2C8 JUMPI PUSH1 0x0 DUP1 REVERT JUMPDEST POP PUSH2 0x2E0 PUSH1 0x1 PUSH1 0xA0 PUSH1 0x2 EXP SUB PUSH1 0x4 CALLDATALOAD AND PUSH1 0x24 CALLDATALOAD PUSH2 0xB13 JUMP JUMPDEST PUSH1 0x40 DUP1 MLOAD SWAP3 DUP4 MSTORE PUSH1 0x20 DUP4 ADD SWAP2 SWAP1 SWAP2 MSTORE DUP1 MLOAD SWAP2 DUP3 SWAP1 SUB ADD SWAP1 RETURN JUMPDEST CALLVALUE DUP1 ISZERO PUSH2 0x305 JUMPI PUSH1 0x0 DUP1 REVERT JUMPDEST POP PUSH2 0x13F PUSH1 0x1 PUSH1 0xA0 PUSH1 0x2 EXP SUB PUSH1 0x4 CALLDATALOAD AND PUSH2 0xB42 JUMP JUMPDEST CALLVALUE DUP1 ISZERO PUSH2 0x326 JUMPI PUSH1 0x0 DUP1 REVERT JUMPDEST POP PUSH2 0x13F PUSH1 0x4 CALLDATALOAD PUSH2 0xB61 JUMP JUMPDEST PUSH1 0x4 SLOAD DUP2 JUMP JUMPDEST PUSH1 0x0 DUP1 PUSH2 0x343 PUSH2 0xDBE JUMP JUMPDEST POP POP CALLER PUSH1 0x0 DUP2 DUP2 MSTORE PUSH1 0x2 PUSH1 0x20 DUP2 DUP2 MSTORE PUSH1 0x40 DUP1 DUP5 KECCAK256 DUP2 MLOAD DUP1 DUP4 ADD SWAP1 SWAP3 MSTORE DUP1 SLOAD DUP1 DUP4 MSTORE SWAP4 DUP2 ADD SLOAD SWAP3 DUP3 ADD SWAP3 SWAP1 SWAP3 MSTORE SWAP4 SWAP5 POP SWAP3 SWAP2 SWAP1 DUP2 SWAP1 DUP2 LT PUSH2 0x382 JUMPI PUSH1 0x0 DUP1 REVERT JUMPDEST PUSH1 0x20 DUP4 ADD MLOAD DUP4 MLOAD LT ISZERO PUSH2 0x396 JUMPI PUSH1 0x1 PUSH2 0x399 JUMP JUMPDEST PUSH1 0x0 JUMPDEST SWAP2 POP DUP2 PUSH1 0x1 SUB SWAP1 POP TIMESTAMP PUSH2 0x3CA PUSH1 0x4 SLOAD DUP6 DUP6 PUSH1 0xFF AND PUSH1 0x2 DUP2 LT ISZERO ISZERO PUSH2 0x3B9 JUMPI INVALID JUMPDEST PUSH1 0x20 MUL ADD MLOAD SWAP1 PUSH4 0xFFFFFFFF PUSH2 0xB8A AND JUMP JUMPDEST GT ISZERO PUSH2 0x3D5 JUMPI PUSH1 0x0 DUP1 REVERT JUMPDEST TIMESTAMP DUP5 PUSH1 0xFF DUP4 AND PUSH1 0x2 DUP2 LT PUSH2 0x3E5 JUMPI INVALID JUMPDEST PUSH1 0x2 MUL ADD PUSH1 0x0 ADD DUP2 SWAP1 SSTORE POP DUP6 DUP5 DUP3 PUSH1 0xFF AND PUSH1 0x2 DUP2 LT ISZERO ISZERO PUSH2 0x402 JUMPI INVALID JUMPDEST PUSH1 0x2 MUL ADD PUSH1 0x1 ADD SSTORE PUSH1 0x40 DUP1 MLOAD DUP8 DUP2 MSTORE TIMESTAMP PUSH1 0x20 DUP3 ADD MSTORE DUP2 MLOAD PUSH1 0x1 PUSH1 0xA0 PUSH1 0x2 EXP SUB DUP9 AND SWAP3 PUSH32 0x460FCC5A1888965D48C2CAB000FE20DA51B1297D995AF79A1924E2312D0D82B3 SWAP3 DUP3 SWAP1 SUB ADD SWAP1 LOG2 POP POP POP POP POP POP JUMP JUMPDEST PUSH1 0x0 DUP1 PUSH1 0x0 PUSH1 0x60 PUSH1 0x0 DUP1 PUSH1 0x0 DUP1 PUSH1 0x0 PUSH2 0x46B PUSH2 0xDD9 JUMP JUMPDEST PUSH1 0x0 DUP1 PUSH1 0x0 DUP1 PUSH1 0x1 DUP1 SLOAD SWAP1 POP SWAP12 POP DUP12 PUSH1 0x40 MLOAD SWAP1 DUP1 DUP3 MSTORE DUP1 PUSH1 0x20 MUL PUSH1 0x20 ADD DUP3 ADD PUSH1 0x40 MSTORE DUP1 ISZERO PUSH2 0x4A3 JUMPI DUP2 PUSH1 0x20 ADD PUSH1 0x20 DUP3 MUL DUP1 CODESIZE DUP4 CODECOPY ADD SWAP1 POP JUMPDEST POP SWAP11 POP PUSH1 0x0 SWAP10 POP PUSH2 0x4BF PUSH1 0x3 SLOAD TIMESTAMP PUSH2 0xBA3 SWAP1 SWAP2 SWAP1 PUSH4 0xFFFFFFFF AND JUMP JUMPDEST SWAP9 POP PUSH2 0x4D6 PUSH1 0x4 SLOAD TIMESTAMP PUSH2 0xBA3 SWAP1 SWAP2 SWAP1 PUSH4 0xFFFFFFFF AND JUMP JUMPDEST SWAP8 POP PUSH1 0x0 SWAP7 POP JUMPDEST DUP12 DUP8 LT ISZERO PUSH2 0x773 JUMPI PUSH1 0x1 DUP1 SLOAD DUP9 SWAP1 DUP2 LT PUSH2 0x4F3 JUMPI INVALID JUMPDEST PUSH1 0x0 SWAP2 DUP3 MSTORE PUSH1 0x20 DUP1 DUP4 KECCAK256 SWAP1 SWAP2 ADD SLOAD PUSH1 0x1 PUSH1 0xA0 PUSH1 0x2 EXP SUB AND DUP1 DUP4 MSTORE PUSH1 0x2 SWAP2 DUP3 SWAP1 MSTORE PUSH1 0x40 DUP1 DUP5 KECCAK256 DUP2 MLOAD DUP1 DUP4 ADD SWAP1 SWAP3 MSTORE SWAP2 SWAP10 POP SWAP3 SWAP1 SWAP2 SWAP1 DUP4 JUMPDEST DUP3 DUP3 LT ISZERO PUSH2 0x565 JUMPI DUP4 DUP3 PUSH1 0x2 MUL ADD PUSH1 0x40 DUP1 MLOAD SWAP1 DUP2 ADD PUSH1 0x40 MSTORE SWAP1 DUP2 PUSH1 0x0 DUP3 ADD SLOAD DUP2 MSTORE PUSH1 0x20 ADD PUSH1 0x1 DUP3 ADD SLOAD DUP2 MSTORE POP POP DUP2 MSTORE PUSH1 0x20 ADD SWAP1 PUSH1 0x1 ADD SWAP1 PUSH2 0x529 JUMP JUMPDEST POP SWAP3 SWAP8 POP DUP8 SWAP3 POP PUSH1 0x1 SWAP2 POP PUSH2 0x577 SWAP1 POP JUMP JUMPDEST PUSH1 0x20 MUL ADD MLOAD MLOAD DUP6 MLOAD MLOAD LT ISZERO PUSH2 0x58D JUMPI PUSH1 0x1 PUSH2 0x590 JUMP JUMPDEST PUSH1 0x0 JUMPDEST SWAP4 POP PUSH1 0x1 DUP5 SWAP1 SUB SWAP3 POP DUP5 PUSH1 0xFF DUP6 AND PUSH1 0x2 DUP2 LT PUSH2 0x5A8 JUMPI INVALID JUMPDEST PUSH1 0x20 MUL ADD MLOAD MLOAD SWAP2 POP DUP8 DUP3 GT ISZERO PUSH2 0x6CF JUMPI PUSH1 0x1 PUSH1 0xA0 PUSH1 0x2 EXP SUB DUP7 AND PUSH1 0x0 SWAP1 DUP2 MSTORE PUSH1 0x2 PUSH1 0x20 DUP2 SWAP1 MSTORE PUSH1 0x40 SWAP1 SWAP2 KECCAK256 SWAP1 PUSH1 0xFF DUP6 AND SWAP1 DUP2 LT PUSH2 0x5E1 JUMPI INVALID JUMPDEST PUSH1 0x2 MUL ADD SLOAD SWAP1 POP DUP9 DUP2 LT ISZERO PUSH2 0x631 JUMPI PUSH1 0x40 DUP1 MLOAD PUSH1 0x1 PUSH1 0xA0 PUSH1 0x2 EXP SUB DUP9 AND DUP2 MSTORE SWAP1 MLOAD PUSH32 0x71F61642CB57AC11764A2F35FB4EDC5361CED458AF35BBED8F5EBF708C10E341 SWAP2 DUP2 SWAP1 SUB PUSH1 0x20 ADD SWAP1 LOG1 PUSH2 0x6CA JUMP JUMPDEST DUP8 DUP2 GT ISZERO PUSH2 0x67A JUMPI PUSH1 0x40 DUP1 MLOAD PUSH1 0x1 PUSH1 0xA0 PUSH1 0x2 EXP SUB DUP9 AND DUP2 MSTORE SWAP1 MLOAD PUSH32 0x71F61642CB57AC11764A2F35FB4EDC5361CED458AF35BBED8F5EBF708C10E341 SWAP2 DUP2 SWAP1 SUB PUSH1 0x20 ADD SWAP1 LOG1 PUSH2 0x6CA JUMP JUMPDEST PUSH1 0x1 PUSH1 0xA0 PUSH1 0x2 EXP SUB DUP7 AND PUSH1 0x0 SWAP1 DUP2 MSTORE PUSH1 0x2 PUSH1 0x20 DUP2 SWAP1 MSTORE PUSH1 0x40 SWAP1 SWAP2 KECCAK256 SWAP1 PUSH1 0xFF DUP6 AND SWAP1 DUP2 LT PUSH2 0x6A3 JUMPI INVALID JUMPDEST PUSH1 0x2 MUL ADD PUSH1 0x1 ADD SLOAD DUP12 DUP12 DUP1 PUSH1 0x1 ADD SWAP13 POP DUP2 MLOAD DUP2 LT ISZERO ISZERO PUSH2 0x6BF JUMPI INVALID JUMPDEST PUSH1 0x20 SWAP1 DUP2 MUL SWAP1 SWAP2 ADD ADD MSTORE JUMPDEST PUSH2 0x768 JUMP JUMPDEST DUP9 DUP3 LT ISZERO PUSH2 0x718 JUMPI PUSH1 0x40 DUP1 MLOAD PUSH1 0x1 PUSH1 0xA0 PUSH1 0x2 EXP SUB DUP9 AND DUP2 MSTORE SWAP1 MLOAD PUSH32 0x71F61642CB57AC11764A2F35FB4EDC5361CED458AF35BBED8F5EBF708C10E341 SWAP2 DUP2 SWAP1 SUB PUSH1 0x20 ADD SWAP1 LOG1 PUSH2 0x768 JUMP JUMPDEST PUSH1 0x1 PUSH1 0xA0 PUSH1 0x2 EXP SUB DUP7 AND PUSH1 0x0 SWAP1 DUP2 MSTORE PUSH1 0x2 PUSH1 0x20 DUP2 SWAP1 MSTORE PUSH1 0x40 SWAP1 SWAP2 KECCAK256 SWAP1 PUSH1 0xFF DUP7 AND SWAP1 DUP2 LT PUSH2 0x741 JUMPI INVALID JUMPDEST PUSH1 0x2 MUL ADD PUSH1 0x1 ADD SLOAD DUP12 DUP12 DUP1 PUSH1 0x1 ADD SWAP13 POP DUP2 MLOAD DUP2 LT ISZERO ISZERO PUSH2 0x75D JUMPI INVALID JUMPDEST PUSH1 0x20 SWAP1 DUP2 MUL SWAP1 SWAP2 ADD ADD MSTORE JUMPDEST PUSH1 0x1 SWAP1 SWAP7 ADD SWAP6 PUSH2 0x4DD JUMP JUMPDEST PUSH1 0x5 SLOAD DUP11 LT ISZERO PUSH2 0x789 JUMPI PUSH1 0x0 SWAP14 POP DUP14 SWAP13 POP PUSH2 0x79A JUMP JUMPDEST PUSH2 0x793 DUP12 DUP12 PUSH2 0xBBA JUMP JUMPDEST PUSH1 0x1 SWAP14 POP SWAP14 POP JUMPDEST POP POP POP POP POP POP POP POP POP POP POP POP SWAP1 SWAP2 JUMP JUMPDEST PUSH2 0x7B2 PUSH2 0xA75 JUMP JUMPDEST ISZERO ISZERO PUSH2 0x7BD JUMPI PUSH1 0x0 DUP1 REVERT JUMPDEST PUSH1 0x1 PUSH1 0xA0 PUSH1 0x2 EXP SUB DUP2 AND PUSH1 0x0 SWAP1 DUP2 MSTORE PUSH1 0x2 PUSH1 0x20 MSTORE PUSH1 0x40 SWAP1 KECCAK256 SLOAD ISZERO PUSH2 0x7E0 JUMPI PUSH1 0x0 DUP1 REVERT JUMPDEST PUSH1 0x1 DUP1 SLOAD DUP1 DUP3 ADD DUP3 SSTORE PUSH32 0xB10E2D527612073B26EECDFD717E6A320CF44B4AFAC2B0732D9FCBE2B7FA0CF6 ADD DUP1 SLOAD PUSH20 0xFFFFFFFFFFFFFFFFFFFFFFFFFFFFFFFFFFFFFFFF NOT AND PUSH1 0x1 PUSH1 0xA0 PUSH1 0x2 EXP SUB DUP5 AND SWAP1 DUP2 OR SWAP1 SWAP2 SSTORE PUSH1 0x0 SWAP1 DUP2 MSTORE PUSH1 0x2 PUSH1 0x20 MSTORE PUSH1 0x40 DUP2 KECCAK256 SWAP1 PUSH1 0x2 MUL ADD SSTORE PUSH1 0x40 DUP1 MLOAD PUSH1 0x1 PUSH1 0xA0 PUSH1 0x2 EXP SUB DUP4 AND DUP2 MSTORE SWAP1 MLOAD PUSH32 0xAE9C2C6481964847714CE58F65A7F6DCC41D0D8394449BACDF161B5920C4744A SWAP2 DUP2 SWAP1 SUB PUSH1 0x20 ADD SWAP1 LOG1 POP JUMP JUMPDEST PUSH1 0x1 DUP1 SLOAD DUP3 SWAP1 DUP2 LT PUSH2 0x895 JUMPI INVALID JUMPDEST PUSH1 0x0 SWAP2 DUP3 MSTORE PUSH1 0x20 SWAP1 SWAP2 KECCAK256 ADD SLOAD PUSH1 0x1 PUSH1 0xA0 PUSH1 0x2 EXP SUB AND SWAP1 POP DUP2 JUMP JUMPDEST PUSH2 0x8B7 PUSH2 0xA75 JUMP JUMPDEST ISZERO ISZERO PUSH2 0x8C2 JUMPI PUSH1 0x0 DUP1 REVERT JUMPDEST PUSH1 0x0 DUP1 SLOAD PUSH1 0x40 MLOAD PUSH1 0x1 PUSH1 0xA0 PUSH1 0x2 EXP SUB SWAP1 SWAP2 AND SWAP1 PUSH32 0x8BE0079C531659141344CD1FD0A4F28419497F9722A3DAAFE3B4186F6B6457E0 SWAP1 DUP4 SWAP1 LOG3 PUSH1 0x0 DUP1 SLOAD PUSH20 0xFFFFFFFFFFFFFFFFFFFFFFFFFFFFFFFFFFFFFFFF NOT AND SWAP1 SSTORE JUMP JUMPDEST PUSH1 0x0 PUSH2 0x923 PUSH2 0xA75 JUMP JUMPDEST ISZERO ISZERO PUSH2 0x92E JUMPI PUSH1 0x0 DUP1 REVERT JUMPDEST PUSH1 0x1 PUSH1 0xA0 PUSH1 0x2 EXP SUB DUP3 AND PUSH1 0x0 SWAP1 DUP2 MSTORE PUSH1 0x2 PUSH1 0x20 MSTORE PUSH1 0x40 DUP2 KECCAK256 PUSH2 0x94F SWAP2 PUSH2 0xE07 JUMP JUMPDEST POP PUSH1 0x0 JUMPDEST PUSH1 0x1 SLOAD DUP2 LT ISZERO PUSH2 0xA61 JUMPI DUP2 PUSH1 0x1 PUSH1 0xA0 PUSH1 0x2 EXP SUB AND PUSH1 0x1 DUP3 DUP2 SLOAD DUP2 LT ISZERO ISZERO PUSH2 0x976 JUMPI INVALID JUMPDEST PUSH1 0x0 SWAP2 DUP3 MSTORE PUSH1 0x20 SWAP1 SWAP2 KECCAK256 ADD SLOAD PUSH1 0x1 PUSH1 0xA0 PUSH1 0x2 EXP SUB AND EQ ISZERO PUSH2 0xA59 JUMPI PUSH1 0x1 DUP1 SLOAD SWAP1 DUP3 ADD EQ PUSH2 0xA04 JUMPI PUSH1 0x1 DUP1 SLOAD PUSH1 0x0 NOT DUP2 ADD SWAP1 DUP2 LT PUSH2 0x9AF JUMPI INVALID JUMPDEST PUSH1 0x0 SWAP2 DUP3 MSTORE PUSH1 0x20 SWAP1 SWAP2 KECCAK256 ADD SLOAD PUSH1 0x1 DUP1 SLOAD PUSH1 0x1 PUSH1 0xA0 PUSH1 0x2 EXP SUB SWAP1 SWAP3 AND SWAP2 DUP4 SWAP1 DUP2 LT PUSH2 0x9D5 JUMPI INVALID JUMPDEST SWAP1 PUSH1 0x0 MSTORE PUSH1 0x20 PUSH1 0x0 KECCAK256 ADD PUSH1 0x0 PUSH2 0x100 EXP DUP2 SLOAD DUP2 PUSH1 0x1 PUSH1 0xA0 PUSH1 0x2 EXP SUB MUL NOT AND SWAP1 DUP4 PUSH1 0x1 PUSH1 0xA0 PUSH1 0x2 EXP SUB AND MUL OR SWAP1 SSTORE POP JUMPDEST PUSH1 0x1 DUP1 SLOAD SWAP1 PUSH2 0xA17 SWAP1 PUSH1 0x0 NOT DUP4 ADD PUSH2 0xE23 JUMP JUMPDEST POP PUSH1 0x40 DUP1 MLOAD PUSH1 0x1 PUSH1 0xA0 PUSH1 0x2 EXP SUB DUP5 AND DUP2 MSTORE SWAP1 MLOAD PUSH32 0x1589F8555933761A3CFF8AA925061BE3B46E2DD43F621322AB611D300F62B1D9 SWAP2 DUP2 SWAP1 SUB PUSH1 0x20 ADD SWAP1 LOG1 PUSH2 0xA61 JUMP JUMPDEST PUSH1 0x1 ADD PUSH2 0x953 JUMP JUMPDEST POP POP JUMP JUMPDEST PUSH1 0x0 SLOAD PUSH1 0x1 PUSH1 0xA0 PUSH1 0x2 EXP SUB AND JUMPDEST SWAP1 JUMP JUMPDEST PUSH1 0x0 SLOAD PUSH1 0x1 PUSH1 0xA0 PUSH1 0x2 EXP SUB AND CALLER EQ SWAP1 JUMP JUMPDEST PUSH1 0x5 SLOAD DUP2 JUMP JUMPDEST CALLER PUSH1 0x0 DUP2 DUP2 MSTORE PUSH1 0x2 PUSH1 0x20 MSTORE PUSH1 0x40 DUP2 KECCAK256 SLOAD GT PUSH2 0xAA6 JUMPI PUSH1 0x0 DUP1 REVERT JUMPDEST PUSH1 0x1 PUSH1 0xA0 PUSH1 0x2 EXP SUB AND PUSH1 0x0 SWAP1 DUP2 MSTORE PUSH1 0x2 PUSH1 0x20 DUP2 SWAP1 MSTORE PUSH1 0x40 SWAP1 SWAP2 KECCAK256 PUSH1 0x1 DUP1 DUP3 SSTORE SWAP2 ADD SSTORE JUMP JUMPDEST PUSH2 0xAD2 PUSH2 0xA75 JUMP JUMPDEST ISZERO ISZERO PUSH2 0xADD JUMPI PUSH1 0x0 DUP1 REVERT JUMPDEST PUSH1 0x4 SSTORE JUMP JUMPDEST PUSH1 0x1 SLOAD SWAP1 JUMP JUMPDEST PUSH1 0x3 SLOAD DUP2 JUMP JUMPDEST PUSH2 0xAF6 PUSH2 0xA75 JUMP JUMPDEST ISZERO ISZERO PUSH2 0xB01 JUMPI PUSH1 0x0 DUP1 REVERT JUMPDEST PUSH1 0x0 DUP2 GT PUSH2 0xB0E JUMPI PUSH1 0x0 DUP1 REVERT JUMPDEST PUSH1 0x5 SSTORE JUMP JUMPDEST PUSH1 0x2 PUSH1 0x20 MSTORE DUP2 PUSH1 0x0 MSTORE PUSH1 0x40 PUSH1 0x0 KECCAK256 DUP2 PUSH1 0x2 DUP2 LT ISZERO ISZERO PUSH2 0xB2E JUMPI INVALID JUMPDEST PUSH1 0x2 MUL ADD DUP1 SLOAD PUSH1 0x1 SWAP1 SWAP2 ADD SLOAD SWAP1 SWAP3 POP SWAP1 POP DUP3 JUMP JUMPDEST PUSH2 0xB4A PUSH2 0xA75 JUMP JUMPDEST ISZERO ISZERO PUSH2 0xB55 JUMPI PUSH1 0x0 DUP1 REVERT JUMPDEST PUSH2 0xB5E DUP2 PUSH2 0xD41 JUMP JUMPDEST POP JUMP JUMPDEST PUSH2 0xB69 PUSH2 0xA75 JUMP JUMPDEST ISZERO ISZERO PUSH2 0xB74 JUMPI PUSH1 0x0 DUP1 REVERT JUMPDEST PUSH4 0x12BED400 DUP2 GT ISZERO PUSH2 0xB85 JUMPI PUSH1 0x0 DUP1 REVERT JUMPDEST PUSH1 0x3 SSTORE JUMP JUMPDEST PUSH1 0x0 DUP3 DUP3 ADD DUP4 DUP2 LT ISZERO PUSH2 0xB9C JUMPI PUSH1 0x0 DUP1 REVERT JUMPDEST SWAP4 SWAP3 POP POP POP JUMP JUMPDEST PUSH1 0x0 DUP1 DUP4 DUP4 GT ISZERO PUSH2 0xBB3 JUMPI PUSH1 0x0 DUP1 REVERT JUMPDEST POP POP SWAP1 SUB SWAP1 JUMP JUMPDEST PUSH1 0x0 DUP1 PUSH1 0x0 DUP1 PUSH1 0x0 DUP6 GT DUP1 ISZERO PUSH2 0xBD1 JUMPI POP DUP5 DUP7 MLOAD LT ISZERO JUMPDEST ISZERO ISZERO PUSH2 0xBDC JUMPI PUSH1 0x0 DUP1 REVERT JUMPDEST PUSH1 0x1 SWAP3 POP JUMPDEST DUP5 DUP4 LT ISZERO PUSH2 0xCB4 JUMPI DUP3 SWAP2 POP JUMPDEST PUSH1 0x0 DUP3 GT DUP1 ISZERO PUSH2 0xC2D JUMPI POP DUP6 DUP3 DUP2 MLOAD DUP2 LT ISZERO ISZERO PUSH2 0xC06 JUMPI INVALID JUMPDEST SWAP1 PUSH1 0x20 ADD SWAP1 PUSH1 0x20 MUL ADD MLOAD DUP7 PUSH1 0x1 DUP5 SUB DUP2 MLOAD DUP2 LT ISZERO ISZERO PUSH2 0xC21 JUMPI INVALID JUMPDEST SWAP1 PUSH1 0x20 ADD SWAP1 PUSH1 0x20 MUL ADD MLOAD GT JUMPDEST ISZERO PUSH2 0xCA9 JUMPI DUP6 DUP3 DUP2 MLOAD DUP2 LT ISZERO ISZERO PUSH2 0xC40 JUMPI INVALID JUMPDEST SWAP1 PUSH1 0x20 ADD SWAP1 PUSH1 0x20 MUL ADD MLOAD SWAP1 POP DUP6 PUSH1 0x1 DUP4 SUB DUP2 MLOAD DUP2 LT ISZERO ISZERO PUSH2 0xC5D JUMPI INVALID JUMPDEST SWAP1 PUSH1 0x20 ADD SWAP1 PUSH1 0x20 MUL ADD MLOAD DUP7 DUP4 DUP2 MLOAD DUP2 LT ISZERO ISZERO PUSH2 0xC75 JUMPI INVALID JUMPDEST PUSH1 0x20 SWAP1 DUP2 MUL SWAP1 SWAP2 ADD ADD MSTORE DUP6 MLOAD DUP2 SWAP1 DUP8 SWAP1 PUSH1 0x0 NOT DUP6 ADD SWAP1 DUP2 LT PUSH2 0xC93 JUMPI INVALID JUMPDEST PUSH1 0x20 SWAP1 DUP2 MUL SWAP1 SWAP2 ADD ADD MSTORE PUSH1 0x0 NOT SWAP1 SWAP2 ADD SWAP1 PUSH2 0xBED JUMP JUMPDEST PUSH1 0x1 SWAP1 SWAP3 ADD SWAP2 PUSH2 0xBE1 JUMP JUMPDEST PUSH1 0x2 DUP6 MOD PUSH1 0x1 EQ ISZERO PUSH2 0xCE2 JUMPI DUP6 PUSH1 0x2 DUP7 DIV DUP2 MLOAD DUP2 LT ISZERO ISZERO PUSH2 0xCD1 JUMPI INVALID JUMPDEST SWAP1 PUSH1 0x20 ADD SWAP1 PUSH1 0x20 MUL ADD MLOAD SWAP4 POP PUSH2 0xD38 JUMP JUMPDEST PUSH1 0x2 PUSH2 0xD2B DUP8 PUSH1 0x1 DUP4 DUP10 DIV SUB DUP2 MLOAD DUP2 LT ISZERO ISZERO PUSH2 0xCFA JUMPI INVALID JUMPDEST PUSH1 0x20 SWAP1 DUP2 MUL SWAP1 SWAP2 ADD ADD MLOAD DUP9 PUSH1 0x2 DUP10 DIV DUP2 MLOAD DUP2 LT ISZERO ISZERO PUSH2 0xD15 JUMPI INVALID JUMPDEST PUSH1 0x20 SWAP1 DUP2 MUL SWAP1 SWAP2 ADD ADD MLOAD SWAP1 PUSH4 0xFFFFFFFF PUSH2 0xB8A AND JUMP JUMPDEST DUP2 ISZERO ISZERO PUSH2 0xD34 JUMPI INVALID JUMPDEST DIV SWAP4 POP JUMPDEST POP POP POP SWAP3 SWAP2 POP POP JUMP JUMPDEST PUSH1 0x1 PUSH1 0xA0 PUSH1 0x2 EXP SUB DUP2 AND ISZERO ISZERO PUSH2 0xD56 JUMPI PUSH1 0x0 DUP1 REVERT JUMPDEST PUSH1 0x0 DUP1 SLOAD PUSH1 0x40 MLOAD PUSH1 0x1 PUSH1 0xA0 PUSH1 0x2 EXP SUB DUP1 DUP6 AND SWAP4 SWAP3 AND SWAP2 PUSH32 0x8BE0079C531659141344CD1FD0A4F28419497F9722A3DAAFE3B4186F6B6457E0 SWAP2 LOG3 PUSH1 0x0 DUP1 SLOAD PUSH20 0xFFFFFFFFFFFFFFFFFFFFFFFFFFFFFFFFFFFFFFFF NOT AND PUSH1 0x1 PUSH1 0xA0 PUSH1 0x2 EXP SUB SWAP3 SWAP1 SWAP3 AND SWAP2 SWAP1 SWAP2 OR SWAP1 SSTORE JUMP JUMPDEST PUSH1 0x40 DUP1 MLOAD DUP1 DUP3 ADD DUP3 MSTORE SWAP1 PUSH1 0x2 SWAP1 DUP3 SWAP1 DUP1 CODESIZE DUP4 CODECOPY POP SWAP2 SWAP3 SWAP2 POP POP JUMP JUMPDEST PUSH1 0x80 PUSH1 0x40 MLOAD SWAP1 DUP2 ADD PUSH1 0x40 MSTORE DUP1 PUSH1 0x2 SWAP1 JUMPDEST PUSH2 0xDF1 PUSH2 0xE4C JUMP JUMPDEST DUP2 MSTORE PUSH1 0x20 ADD SWAP1 PUSH1 0x1 SWAP1 SUB SWAP1 DUP2 PUSH2 0xDE9 JUMPI SWAP1 POP POP SWAP1 JUMP JUMPDEST POP PUSH1 0x0 DUP1 DUP3 SSTORE PUSH1 0x1 DUP3 ADD DUP2 SWAP1 SSTORE PUSH1 0x2 DUP3 ADD DUP2 SWAP1 SSTORE PUSH1 0x3 SWAP1 SWAP2 ADD SSTORE JUMP JUMPDEST DUP2 SLOAD DUP2 DUP4 SSTORE DUP2 DUP2 GT ISZERO PUSH2 0xE47 JUMPI PUSH1 0x0 DUP4 DUP2 MSTORE PUSH1 0x20 SWAP1 KECCAK256 PUSH2 0xE47 SWAP2 DUP2 ADD SWAP1 DUP4 ADD PUSH2 0xE63 JUMP JUMPDEST POP POP POP JUMP JUMPDEST PUSH1 0x40 DUP1 MLOAD DUP1 DUP3 ADD SWAP1 SWAP2 MSTORE PUSH1 0x0 DUP1 DUP3 MSTORE PUSH1 0x20 DUP3 ADD MSTORE SWAP1 JUMP JUMPDEST PUSH2 0xA72 SWAP2 SWAP1 JUMPDEST DUP1 DUP3 GT ISZERO PUSH2 0xE7D JUMPI PUSH1 0x0 DUP2 SSTORE PUSH1 0x1 ADD PUSH2 0xE69 JUMP JUMPDEST POP SWAP1 JUMP STOP LOG1 PUSH6 0x627A7A723058 KECCAK256 0xdd PUSH13 0x250B5631475F219871A010E8B6 0xf6 DUP14 SWAP11 0x2c DUP1 PUSH30 0x1EDADC35A506FB4985EB1500290000000000000000000000000000000000 ",
  "sha1": "aa1aa84c86bb30b163e1b0c64760ce7c4cfd9842",
  "source": "pragma solidity 0.4.24;\n\nimport \"deps/openzeppelin-solidity/2.0.0/contracts/math/SafeMath.sol\";\nimport \"deps/openzeppelin-solidity/2.0.0/contracts/ownership/Ownable.sol\";\n\nimport \"./lib/Select.sol\";\n\n\ninterface IOracle {\n    function getData() external returns (uint256, bool);\n}\n\n\n/**\n * @title Median Oracle\n *\n * @notice Provides a value onchain that's aggregated from a whitelisted set of\n *         providers.\n */\ncontract MedianOracle is Ownable, IOracle {\n    using SafeMath for uint256;\n\n    struct Report {\n        uint256 timestamp;\n        uint256 payload;\n    }\n\n    // Addresses of providers authorized to push reports.\n    address[] public providers;\n\n    // Reports indexed by provider address. Report[0].timestamp > 0\n    // indicates provider existence.\n    mapping (address => Report[2]) public providerReports;\n\n    event ProviderAdded(address provider);\n    event ProviderRemoved(address provider);\n    event ReportTimestampOutOfRange(address provider);\n    event ProviderReportPushed(address indexed provider, uint256 payload, uint256 timestamp);\n\n    // The number of seconds after which the report is deemed expired.\n    uint256 public reportExpirationTimeSec;\n\n    // The number of seconds since reporting that has to pass before a report\n    // is usable.\n    uint256 public reportDelaySec;\n\n    // The minimum number of providers with valid reports to consider the\n    // aggregate report valid.\n    uint256 public minimumProviders = 1;\n\n    // Timestamp of 1 is used to mark uninitialized and invalidated data.\n    // This is needed so that timestamp of 1 is always considered expired.\n    uint256 private constant MAX_REPORT_EXPIRATION_TIME = 520 weeks;\n\n    /**\n    * @param reportExpirationTimeSec_ The number of seconds after which the\n    *                                 report is deemed expired.\n    * @param reportDelaySec_ The number of seconds since reporting that has to\n    *                        pass before a report is usable\n    * @param minimumProviders_ The minimum number of providers with valid\n    *                          reports to consider the aggregate report valid.\n    */\n    constructor(uint256 reportExpirationTimeSec_,\n                uint256 reportDelaySec_,\n                uint256 minimumProviders_)\n        public\n    {\n        require(reportExpirationTimeSec_ <= MAX_REPORT_EXPIRATION_TIME);\n        require(minimumProviders_ > 0);\n        reportExpirationTimeSec = reportExpirationTimeSec_;\n        reportDelaySec = reportDelaySec_;\n        minimumProviders = minimumProviders_;\n    }\n\n     /**\n     * @notice Sets the report expiration period.\n     * @param reportExpirationTimeSec_ The number of seconds after which the\n     *        report is deemed expired.\n     */\n    function setReportExpirationTimeSec(uint256 reportExpirationTimeSec_)\n        external\n        onlyOwner\n    {\n        require(reportExpirationTimeSec_ <= MAX_REPORT_EXPIRATION_TIME);\n        reportExpirationTimeSec = reportExpirationTimeSec_;\n    }\n\n    /**\n    * @notice Sets the time period since reporting that has to pass before a\n    *         report is usable.\n    * @param reportDelaySec_ The new delay period in seconds.\n    */\n    function setReportDelaySec(uint256 reportDelaySec_)\n        external\n        onlyOwner\n    {\n        reportDelaySec = reportDelaySec_;\n    }\n\n    /**\n    * @notice Sets the minimum number of providers with valid reports to\n    *         consider the aggregate report valid.\n    * @param minimumProviders_ The new minimum number of providers.\n    */\n    function setMinimumProviders(uint256 minimumProviders_)\n        external\n        onlyOwner\n    {\n        require(minimumProviders_ > 0);\n        minimumProviders = minimumProviders_;\n    }\n\n    /**\n     * @notice Pushes a report for the calling provider.\n     * @param payload is expected to be 18 decimal fixed point number.\n     */\n    function pushReport(uint256 payload) external\n    {\n        address providerAddress = msg.sender;\n        Report[2] storage reports = providerReports[providerAddress];\n        uint256[2] memory timestamps = [reports[0].timestamp, reports[1].timestamp];\n\n        require(timestamps[0] > 0);\n\n        uint8 index_recent = timestamps[0] >= timestamps[1] ? 0 : 1;\n        uint8 index_past = 1 - index_recent;\n\n        // Check that the push is not too soon after the last one.\n        require(timestamps[index_recent].add(reportDelaySec) <= now);\n\n        reports[index_past].timestamp = now;\n        reports[index_past].payload = payload;\n\n        emit ProviderReportPushed(providerAddress, payload, now);\n    }\n\n    /**\n    * @notice Invalidates the reports of the calling provider.\n    */\n    function purgeReports() external\n    {\n        address providerAddress = msg.sender;\n        require (providerReports[providerAddress][0].timestamp > 0);\n        providerReports[providerAddress][0].timestamp=1;\n        providerReports[providerAddress][1].timestamp=1;\n    }\n\n    /**\n    * @notice Computes median of provider reports whose timestamps are in the\n    *         valid timestamp range.\n    * @return AggregatedValue: Median of providers reported values.\n    *         valid: Boolean indicating an aggregated value was computed successfully.\n    */\n    function getData()\n        external\n        returns (uint256, bool)\n    {\n        uint256 reportsCount = providers.length;\n        uint256[] memory validReports = new uint256[](reportsCount);\n        uint256 size = 0;\n        uint256 minValidTimestamp =  now.sub(reportExpirationTimeSec);\n        uint256 maxValidTimestamp =  now.sub(reportDelaySec);\n\n        for (uint256 i = 0; i < reportsCount; i++) {\n            address providerAddress = providers[i];\n            Report[2] memory reports = providerReports[providerAddress];\n\n            uint8 index_recent = reports[0].timestamp >= reports[1].timestamp ? 0 : 1;\n            uint8 index_past = 1 - index_recent;\n            uint256 reportTimestampRecent = reports[index_recent].timestamp;\n            if (reportTimestampRecent > maxValidTimestamp) {\n                // Recent report is too recent.\n                uint256 reportTimestampPast = providerReports[providerAddress][index_past].timestamp;\n                if (reportTimestampPast < minValidTimestamp) {\n                    // Past report is too old.\n                    emit ReportTimestampOutOfRange(providerAddress);\n                } else if (reportTimestampPast > maxValidTimestamp) {\n                    // Past report is too recent.\n                    emit ReportTimestampOutOfRange(providerAddress);\n                } else {\n                    // Using past report.\n                    validReports[size++] = providerReports[providerAddress][index_past].payload;\n                }\n            } else {\n                // Recent report is not too recent.\n                if (reportTimestampRecent < minValidTimestamp) {\n                    // Recent report is too old.\n                    emit ReportTimestampOutOfRange(providerAddress);\n                } else {\n                    // Using recent report.\n                    validReports[size++] = providerReports[providerAddress][index_recent].payload;\n                }\n            }\n        }\n\n        if (size < minimumProviders) {\n            return (0, false);\n        }\n\n        return (Select.computeMedian(validReports, size), true);\n    }\n\n    /**\n     * @notice Authorizes a provider.\n     * @param provider Address of the provider.\n     */\n    function addProvider(address provider)\n        external\n        onlyOwner\n    {\n        require(providerReports[provider][0].timestamp == 0);\n        providers.push(provider);\n        providerReports[provider][0].timestamp = 1;\n        emit ProviderAdded(provider);\n    }\n\n    /**\n     * @notice Revokes provider authorization.\n     * @param provider Address of the provider.\n     */\n    function removeProvider(address provider)\n        external\n        onlyOwner\n    {\n        delete providerReports[provider];\n        for (uint256 i = 0; i < providers.length; i++) {\n            if (providers[i] == provider) {\n                if (i + 1  != providers.length) {\n                    providers[i] = providers[providers.length-1];\n                }\n                providers.length--;\n                emit ProviderRemoved(provider);\n                break;\n            }\n        }\n    }\n\n    /**\n     * @return The number of authorized providers.\n     */\n    function providersSize()\n        external\n        view\n        returns (uint256)\n    {\n        return providers.length;\n    }\n}\n",
  "sourcePath": "contracts/digg-oracles/MedianOracle.sol",
  "type": "contract"
}