{
  "abi": [
    {
      "anonymous": false,
      "inputs": [
        {
          "indexed": true,
          "internalType": "address",
          "name": "_user",
          "type": "address"
        },
        {
          "indexed": true,
          "internalType": "address",
          "name": "_kicked",
          "type": "address"
        },
        {
          "indexed": false,
          "internalType": "uint256",
          "name": "_reward",
          "type": "uint256"
        }
      ],
      "name": "KickReward",
      "type": "event"
    },
    {
      "anonymous": false,
      "inputs": [
        {
          "indexed": false,
          "internalType": "address",
          "name": "account",
          "type": "address"
        }
      ],
      "name": "Paused",
      "type": "event"
    },
    {
      "anonymous": false,
      "inputs": [
        {
          "indexed": false,
          "internalType": "address",
          "name": "_token",
          "type": "address"
        },
        {
          "indexed": false,
          "internalType": "uint256",
          "name": "_amount",
          "type": "uint256"
        }
      ],
      "name": "Recovered",
      "type": "event"
    },
    {
      "anonymous": false,
      "inputs": [
        {
          "indexed": false,
          "internalType": "address",
          "name": "account",
          "type": "address"
        },
        {
          "indexed": true,
          "internalType": "address",
          "name": "_token",
          "type": "address"
        },
        {
          "indexed": false,
          "internalType": "uint256",
          "name": "_reward",
          "type": "uint256"
        },
        {
          "indexed": false,
          "internalType": "bytes32",
          "name": "_dataTypeHash",
          "type": "bytes32"
        },
        {
          "indexed": false,
          "internalType": "uint256",
          "name": "_timestamp",
          "type": "uint256"
        }
      ],
      "name": "RewardAdded",
      "type": "event"
    },
    {
      "anonymous": false,
      "inputs": [
        {
          "indexed": true,
          "internalType": "address",
          "name": "_user",
          "type": "address"
        },
        {
          "indexed": true,
          "internalType": "address",
          "name": "_rewardsToken",
          "type": "address"
        },
        {
          "indexed": false,
          "internalType": "uint256",
          "name": "_reward",
          "type": "uint256"
        }
      ],
      "name": "RewardPaid",
      "type": "event"
    },
    {
      "anonymous": false,
      "inputs": [
        {
          "indexed": true,
          "internalType": "address",
          "name": "_user",
          "type": "address"
        },
        {
          "indexed": true,
          "internalType": "uint256",
          "name": "_epoch",
          "type": "uint256"
        },
        {
          "indexed": false,
          "internalType": "uint256",
          "name": "_paidAmount",
          "type": "uint256"
        },
        {
          "indexed": false,
          "internalType": "uint256",
          "name": "_lockedAmount",
          "type": "uint256"
        },
        {
          "indexed": false,
          "internalType": "uint256",
          "name": "_boostedAmount",
          "type": "uint256"
        }
      ],
      "name": "Staked",
      "type": "event"
    },
    {
      "anonymous": false,
      "inputs": [
        {
          "indexed": false,
          "internalType": "address",
          "name": "account",
          "type": "address"
        }
      ],
      "name": "Unpaused",
      "type": "event"
    },
    {
      "anonymous": false,
      "inputs": [
        {
          "indexed": true,
          "internalType": "address",
          "name": "_user",
          "type": "address"
        },
        {
          "indexed": false,
          "internalType": "uint256",
          "name": "_amount",
          "type": "uint256"
        },
        {
          "indexed": false,
          "internalType": "bool",
          "name": "_relocked",
          "type": "bool"
        }
      ],
      "name": "Withdrawn",
      "type": "event"
    },
    {
      "inputs": [],
      "name": "CONTRACT_GOVERNANCE_ROLE",
      "outputs": [
        {
          "internalType": "bytes32",
          "name": "",
          "type": "bytes32"
        }
      ],
      "stateMutability": "view",
      "type": "function"
    },
    {
      "inputs": [],
      "name": "PAUSER_ROLE",
      "outputs": [
        {
          "internalType": "bytes32",
          "name": "",
          "type": "bytes32"
        }
      ],
      "stateMutability": "view",
      "type": "function"
    },
    {
      "inputs": [],
      "name": "TECH_OPERATIONS_ROLE",
      "outputs": [
        {
          "internalType": "bytes32",
          "name": "",
          "type": "bytes32"
        }
      ],
      "stateMutability": "view",
      "type": "function"
    },
    {
      "inputs": [],
      "name": "TREASURY_GOVERNANCE_ROLE",
      "outputs": [
        {
          "internalType": "bytes32",
          "name": "",
          "type": "bytes32"
        }
      ],
      "stateMutability": "view",
      "type": "function"
    },
    {
      "inputs": [],
      "name": "UNPAUSER_ROLE",
      "outputs": [
        {
          "internalType": "bytes32",
          "name": "",
          "type": "bytes32"
        }
      ],
      "stateMutability": "view",
      "type": "function"
    },
    {
      "inputs": [
        {
          "internalType": "address",
          "name": "_globalAccessControl",
          "type": "address"
        }
      ],
      "name": "__GlobalAccessControlManaged_init",
      "outputs": [],
      "stateMutability": "nonpayable",
      "type": "function"
    },
    {
      "inputs": [
        {
          "internalType": "address",
          "name": "_rewardsToken",
          "type": "address"
        },
        {
          "internalType": "address",
          "name": "_distributor",
          "type": "address"
        },
        {
          "internalType": "bool",
          "name": "_useBoost",
          "type": "bool"
        }
      ],
      "name": "addReward",
      "outputs": [],
      "stateMutability": "nonpayable",
      "type": "function"
    },
    {
      "inputs": [
        {
          "internalType": "address",
          "name": "_rewardsToken",
          "type": "address"
        },
        {
          "internalType": "address",
          "name": "_distributor",
          "type": "address"
        },
        {
          "internalType": "bool",
          "name": "_approved",
          "type": "bool"
        }
      ],
      "name": "approveRewardDistributor",
      "outputs": [],
      "stateMutability": "nonpayable",
      "type": "function"
    },
    {
      "inputs": [
        {
          "internalType": "uint256",
          "name": "_epoch",
          "type": "uint256"
        },
        {
          "internalType": "address",
          "name": "_user",
          "type": "address"
        }
      ],
      "name": "balanceAtEpochOf",
      "outputs": [
        {
          "internalType": "uint256",
          "name": "amount",
          "type": "uint256"
        }
      ],
      "stateMutability": "view",
      "type": "function"
    },
    {
      "inputs": [
        {
          "internalType": "address",
          "name": "_user",
          "type": "address"
        }
      ],
      "name": "balanceOf",
      "outputs": [
        {
          "internalType": "uint256",
          "name": "amount",
          "type": "uint256"
        }
      ],
      "stateMutability": "view",
      "type": "function"
    },
    {
      "inputs": [
        {
          "internalType": "address",
          "name": "",
          "type": "address"
        }
      ],
      "name": "balances",
      "outputs": [
        {
          "internalType": "uint112",
          "name": "locked",
          "type": "uint112"
        },
        {
          "internalType": "uint112",
          "name": "boosted",
          "type": "uint112"
        },
        {
          "internalType": "uint32",
          "name": "nextUnlockIndex",
          "type": "uint32"
        }
      ],
      "stateMutability": "view",
      "type": "function"
    },
    {
      "inputs": [],
      "name": "boostPayment",
      "outputs": [
        {
          "internalType": "address",
          "name": "",
          "type": "address"
        }
      ],
      "stateMutability": "view",
      "type": "function"
    },
    {
      "inputs": [],
      "name": "boostRate",
      "outputs": [
        {
          "internalType": "uint256",
          "name": "",
          "type": "uint256"
        }
      ],
      "stateMutability": "view",
      "type": "function"
    },
    {
      "inputs": [],
      "name": "boostedSupply",
      "outputs": [
        {
          "internalType": "uint256",
          "name": "",
          "type": "uint256"
        }
      ],
      "stateMutability": "view",
      "type": "function"
    },
    {
      "inputs": [],
      "name": "checkpointEpoch",
      "outputs": [],
      "stateMutability": "nonpayable",
      "type": "function"
    },
    {
      "inputs": [
        {
          "internalType": "address",
          "name": "_account",
          "type": "address"
        },
        {
          "internalType": "address",
          "name": "_rewardToken",
          "type": "address"
        }
      ],
      "name": "claimableRewardForToken",
      "outputs": [
        {
          "components": [
            {
              "internalType": "address",
              "name": "token",
              "type": "address"
            },
            {
              "internalType": "uint256",
              "name": "amount",
              "type": "uint256"
            }
          ],
          "internalType": "struct StakedCitadelLocker.EarnedData",
          "name": "userReward",
          "type": "tuple"
        }
      ],
      "stateMutability": "view",
      "type": "function"
    },
    {
      "inputs": [
        {
          "internalType": "address",
          "name": "_account",
          "type": "address"
        }
      ],
      "name": "claimableRewards",
      "outputs": [
        {
          "components": [
            {
              "internalType": "address",
              "name": "token",
              "type": "address"
            },
            {
              "internalType": "uint256",
              "name": "amount",
              "type": "uint256"
            }
          ],
          "internalType": "struct StakedCitadelLocker.EarnedData[]",
          "name": "userRewards",
          "type": "tuple[]"
        }
      ],
      "stateMutability": "view",
      "type": "function"
    },
    {
      "inputs": [
        {
          "internalType": "address",
          "name": "",
          "type": "address"
        },
        {
          "internalType": "address",
          "name": "",
          "type": "address"
        }
      ],
      "name": "cumulativeClaimed",
      "outputs": [
        {
          "internalType": "uint256",
          "name": "",
          "type": "uint256"
        }
      ],
      "stateMutability": "view",
      "type": "function"
    },
    {
      "inputs": [
        {
          "internalType": "address",
          "name": "",
          "type": "address"
        }
      ],
      "name": "cumulativeDistributed",
      "outputs": [
        {
          "internalType": "uint256",
          "name": "",
          "type": "uint256"
        }
      ],
      "stateMutability": "view",
      "type": "function"
    },
    {
      "inputs": [],
      "name": "decimals",
      "outputs": [
        {
          "internalType": "uint8",
          "name": "",
          "type": "uint8"
        }
      ],
      "stateMutability": "view",
      "type": "function"
    },
    {
      "inputs": [],
      "name": "denominator",
      "outputs": [
        {
          "internalType": "uint256",
          "name": "",
          "type": "uint256"
        }
      ],
      "stateMutability": "view",
      "type": "function"
    },
    {
      "inputs": [],
      "name": "epochCount",
      "outputs": [
        {
          "internalType": "uint256",
          "name": "",
          "type": "uint256"
        }
      ],
      "stateMutability": "view",
      "type": "function"
    },
    {
      "inputs": [
        {
          "internalType": "uint256",
          "name": "",
          "type": "uint256"
        }
      ],
      "name": "epochs",
      "outputs": [
        {
          "internalType": "uint224",
          "name": "supply",
          "type": "uint224"
        },
        {
          "internalType": "uint32",
          "name": "date",
          "type": "uint32"
        }
      ],
      "stateMutability": "view",
      "type": "function"
    },
    {
      "inputs": [
        {
          "internalType": "uint256",
          "name": "_time",
          "type": "uint256"
        }
      ],
      "name": "findEpochId",
      "outputs": [
        {
          "internalType": "uint256",
          "name": "epoch",
          "type": "uint256"
        }
      ],
      "stateMutability": "view",
      "type": "function"
    },
    {
      "inputs": [],
      "name": "gac",
      "outputs": [
        {
          "internalType": "contract IGac",
          "name": "",
          "type": "address"
        }
      ],
      "stateMutability": "view",
      "type": "function"
    },
    {
      "inputs": [
        {
          "internalType": "address",
          "name": "_account",
          "type": "address"
        },
        {
          "internalType": "address",
          "name": "_rewardsToken",
          "type": "address"
        }
      ],
      "name": "getCumulativeClaimedRewards",
      "outputs": [
        {
          "internalType": "uint256",
          "name": "",
          "type": "uint256"
        }
      ],
      "stateMutability": "view",
      "type": "function"
    },
    {
      "inputs": [
        {
          "internalType": "address",
          "name": "_account",
          "type": "address"
        },
        {
          "internalType": "bool",
          "name": "_stake",
          "type": "bool"
        }
      ],
      "name": "getReward",
      "outputs": [],
      "stateMutability": "nonpayable",
      "type": "function"
    },
    {
      "inputs": [
        {
          "internalType": "address",
          "name": "_account",
          "type": "address"
        }
      ],
      "name": "getReward",
      "outputs": [],
      "stateMutability": "nonpayable",
      "type": "function"
    },
    {
      "inputs": [
        {
          "internalType": "address",
          "name": "_rewardsToken",
          "type": "address"
        }
      ],
      "name": "getRewardForDuration",
      "outputs": [
        {
          "internalType": "uint256",
          "name": "",
          "type": "uint256"
        }
      ],
      "stateMutability": "view",
      "type": "function"
    },
    {
      "inputs": [],
      "name": "getRewardTokens",
      "outputs": [
        {
          "internalType": "address[]",
          "name": "",
          "type": "address[]"
        }
      ],
      "stateMutability": "view",
      "type": "function"
    },
    {
      "inputs": [
        {
          "internalType": "address",
          "name": "_stakingToken",
          "type": "address"
        },
        {
          "internalType": "address",
          "name": "_gac",
          "type": "address"
        },
        {
          "internalType": "string",
          "name": "name",
          "type": "string"
        },
        {
          "internalType": "string",
          "name": "symbol",
          "type": "string"
        }
      ],
      "name": "initialize",
      "outputs": [],
      "stateMutability": "nonpayable",
      "type": "function"
    },
    {
      "inputs": [],
      "name": "isShutdown",
      "outputs": [
        {
          "internalType": "bool",
          "name": "",
          "type": "bool"
        }
      ],
      "stateMutability": "view",
      "type": "function"
    },
    {
      "inputs": [
        {
          "internalType": "address",
          "name": "_account",
          "type": "address"
        }
      ],
      "name": "kickExpiredLocks",
      "outputs": [],
      "stateMutability": "nonpayable",
      "type": "function"
    },
    {
      "inputs": [],
      "name": "kickRewardEpochDelay",
      "outputs": [
        {
          "internalType": "uint256",
          "name": "",
          "type": "uint256"
        }
      ],
      "stateMutability": "view",
      "type": "function"
    },
    {
      "inputs": [],
      "name": "kickRewardPerEpoch",
      "outputs": [
        {
          "internalType": "uint256",
          "name": "",
          "type": "uint256"
        }
      ],
      "stateMutability": "view",
      "type": "function"
    },
    {
      "inputs": [
        {
          "internalType": "address",
          "name": "_rewardsToken",
          "type": "address"
        }
      ],
      "name": "lastTimeRewardApplicable",
      "outputs": [
        {
          "internalType": "uint256",
          "name": "",
          "type": "uint256"
        }
      ],
      "stateMutability": "view",
      "type": "function"
    },
    {
      "inputs": [
        {
          "internalType": "address",
          "name": "_account",
          "type": "address"
        },
        {
          "internalType": "uint256",
          "name": "_amount",
          "type": "uint256"
        },
        {
          "internalType": "uint256",
          "name": "_spendRatio",
          "type": "uint256"
        }
      ],
      "name": "lock",
      "outputs": [],
      "stateMutability": "nonpayable",
      "type": "function"
    },
    {
      "inputs": [],
      "name": "lockDuration",
      "outputs": [
        {
          "internalType": "uint256",
          "name": "",
          "type": "uint256"
        }
      ],
      "stateMutability": "view",
      "type": "function"
    },
    {
      "inputs": [
        {
          "internalType": "address",
          "name": "_user",
          "type": "address"
        }
      ],
      "name": "lockedBalanceOf",
      "outputs": [
        {
          "internalType": "uint256",
          "name": "amount",
          "type": "uint256"
        }
      ],
      "stateMutability": "view",
      "type": "function"
    },
    {
      "inputs": [
        {
          "internalType": "address",
          "name": "_user",
          "type": "address"
        }
      ],
      "name": "lockedBalances",
      "outputs": [
        {
          "internalType": "uint256",
          "name": "total",
          "type": "uint256"
        },
        {
          "internalType": "uint256",
          "name": "unlockable",
          "type": "uint256"
        },
        {
          "internalType": "uint256",
          "name": "locked",
          "type": "uint256"
        },
        {
          "components": [
            {
              "internalType": "uint112",
              "name": "amount",
              "type": "uint112"
            },
            {
              "internalType": "uint112",
              "name": "boosted",
              "type": "uint112"
            },
            {
              "internalType": "uint32",
              "name": "unlockTime",
              "type": "uint32"
            }
          ],
          "internalType": "struct StakedCitadelLocker.LockedBalance[]",
          "name": "lockData",
          "type": "tuple[]"
        }
      ],
      "stateMutability": "view",
      "type": "function"
    },
    {
      "inputs": [],
      "name": "lockedSupply",
      "outputs": [
        {
          "internalType": "uint256",
          "name": "",
          "type": "uint256"
        }
      ],
      "stateMutability": "view",
      "type": "function"
    },
    {
      "inputs": [],
      "name": "maximumBoostPayment",
      "outputs": [
        {
          "internalType": "uint256",
          "name": "",
          "type": "uint256"
        }
      ],
      "stateMutability": "view",
      "type": "function"
    },
    {
      "inputs": [],
      "name": "maximumStake",
      "outputs": [
        {
          "internalType": "uint256",
          "name": "",
          "type": "uint256"
        }
      ],
      "stateMutability": "view",
      "type": "function"
    },
    {
      "inputs": [],
      "name": "minimumStake",
      "outputs": [
        {
          "internalType": "uint256",
          "name": "",
          "type": "uint256"
        }
      ],
      "stateMutability": "view",
      "type": "function"
    },
    {
      "inputs": [],
      "name": "name",
      "outputs": [
        {
          "internalType": "string",
          "name": "",
          "type": "string"
        }
      ],
      "stateMutability": "view",
      "type": "function"
    },
    {
      "inputs": [],
      "name": "nextBoostRate",
      "outputs": [
        {
          "internalType": "uint256",
          "name": "",
          "type": "uint256"
        }
      ],
      "stateMutability": "view",
      "type": "function"
    },
    {
      "inputs": [],
      "name": "nextMaximumBoostPayment",
      "outputs": [
        {
          "internalType": "uint256",
          "name": "",
          "type": "uint256"
        }
      ],
      "stateMutability": "view",
      "type": "function"
    },
    {
      "inputs": [
        {
          "internalType": "address",
          "name": "_rewardsToken",
          "type": "address"
        },
        {
          "internalType": "uint256",
          "name": "_reward",
          "type": "uint256"
        },
        {
          "internalType": "bytes32",
          "name": "_dataTypeHash",
          "type": "bytes32"
        }
      ],
      "name": "notifyRewardAmount",
      "outputs": [],
      "stateMutability": "nonpayable",
      "type": "function"
    },
    {
      "inputs": [
        {
          "internalType": "address",
          "name": "_rewardsToken",
          "type": "address"
        },
        {
          "internalType": "uint256",
          "name": "_reward",
          "type": "uint256"
        }
      ],
      "name": "notifyRewardAmount",
      "outputs": [],
      "stateMutability": "nonpayable",
      "type": "function"
    },
    {
      "inputs": [],
      "name": "pause",
      "outputs": [],
      "stateMutability": "nonpayable",
      "type": "function"
    },
    {
      "inputs": [],
      "name": "paused",
      "outputs": [
        {
          "internalType": "bool",
          "name": "",
          "type": "bool"
        }
      ],
      "stateMutability": "view",
      "type": "function"
    },
    {
      "inputs": [
        {
          "internalType": "uint256",
          "name": "_epoch",
          "type": "uint256"
        },
        {
          "internalType": "address",
          "name": "_user",
          "type": "address"
        }
      ],
      "name": "pendingLockAtEpochOf",
      "outputs": [
        {
          "internalType": "uint256",
          "name": "amount",
          "type": "uint256"
        }
      ],
      "stateMutability": "view",
      "type": "function"
    },
    {
      "inputs": [
        {
          "internalType": "address",
          "name": "_user",
          "type": "address"
        }
      ],
      "name": "pendingLockOf",
      "outputs": [
        {
          "internalType": "uint256",
          "name": "amount",
          "type": "uint256"
        }
      ],
      "stateMutability": "view",
      "type": "function"
    },
    {
      "inputs": [
        {
          "internalType": "bool",
          "name": "_relock",
          "type": "bool"
        }
      ],
      "name": "processExpiredLocks",
      "outputs": [],
      "stateMutability": "nonpayable",
      "type": "function"
    },
    {
      "inputs": [
        {
          "internalType": "address",
          "name": "_tokenAddress",
          "type": "address"
        },
        {
          "internalType": "uint256",
          "name": "_tokenAmount",
          "type": "uint256"
        }
      ],
      "name": "recoverERC20",
      "outputs": [],
      "stateMutability": "nonpayable",
      "type": "function"
    },
    {
      "inputs": [
        {
          "internalType": "address",
          "name": "",
          "type": "address"
        }
      ],
      "name": "rewardData",
      "outputs": [
        {
          "internalType": "bool",
          "name": "useBoost",
          "type": "bool"
        },
        {
          "internalType": "uint40",
          "name": "periodFinish",
          "type": "uint40"
        },
        {
          "internalType": "uint208",
          "name": "rewardRate",
          "type": "uint208"
        },
        {
          "internalType": "uint40",
          "name": "lastUpdateTime",
          "type": "uint40"
        },
        {
          "internalType": "uint208",
          "name": "rewardPerTokenStored",
          "type": "uint208"
        }
      ],
      "stateMutability": "view",
      "type": "function"
    },
    {
      "inputs": [
        {
          "internalType": "address",
          "name": "",
          "type": "address"
        },
        {
          "internalType": "address",
          "name": "",
          "type": "address"
        }
      ],
      "name": "rewardDistributors",
      "outputs": [
        {
          "internalType": "bool",
          "name": "",
          "type": "bool"
        }
      ],
      "stateMutability": "view",
      "type": "function"
    },
    {
      "inputs": [
        {
          "internalType": "address",
          "name": "_rewardsToken",
          "type": "address"
        }
      ],
      "name": "rewardPerToken",
      "outputs": [
        {
          "internalType": "uint256",
          "name": "",
          "type": "uint256"
        }
      ],
      "stateMutability": "view",
      "type": "function"
    },
    {
      "inputs": [
        {
          "internalType": "uint256",
          "name": "",
          "type": "uint256"
        }
      ],
      "name": "rewardTokens",
      "outputs": [
        {
          "internalType": "address",
          "name": "",
          "type": "address"
        }
      ],
      "stateMutability": "view",
      "type": "function"
    },
    {
      "inputs": [
        {
          "internalType": "address",
          "name": "_user",
          "type": "address"
        }
      ],
      "name": "rewardWeightOf",
      "outputs": [
        {
          "internalType": "uint256",
          "name": "amount",
          "type": "uint256"
        }
      ],
      "stateMutability": "view",
      "type": "function"
    },
    {
      "inputs": [
        {
          "internalType": "address",
          "name": "",
          "type": "address"
        },
        {
          "internalType": "address",
          "name": "",
          "type": "address"
        }
      ],
      "name": "rewards",
      "outputs": [
        {
          "internalType": "uint256",
          "name": "",
          "type": "uint256"
        }
      ],
      "stateMutability": "view",
      "type": "function"
    },
    {
      "inputs": [],
      "name": "rewardsDuration",
      "outputs": [
        {
          "internalType": "uint256",
          "name": "",
          "type": "uint256"
        }
      ],
      "stateMutability": "view",
      "type": "function"
    },
    {
      "inputs": [
        {
          "internalType": "uint256",
          "name": "_max",
          "type": "uint256"
        },
        {
          "internalType": "uint256",
          "name": "_rate",
          "type": "uint256"
        },
        {
          "internalType": "address",
          "name": "_receivingAddress",
          "type": "address"
        }
      ],
      "name": "setBoost",
      "outputs": [],
      "stateMutability": "nonpayable",
      "type": "function"
    },
    {
      "inputs": [
        {
          "internalType": "uint256",
          "name": "_rate",
          "type": "uint256"
        },
        {
          "internalType": "uint256",
          "name": "_delay",
          "type": "uint256"
        }
      ],
      "name": "setKickIncentive",
      "outputs": [],
      "stateMutability": "nonpayable",
      "type": "function"
    },
    {
      "inputs": [
        {
          "internalType": "uint256",
          "name": "_minimum",
          "type": "uint256"
        },
        {
          "internalType": "uint256",
          "name": "_maximum",
          "type": "uint256"
        }
      ],
      "name": "setStakeLimits",
      "outputs": [],
      "stateMutability": "nonpayable",
      "type": "function"
    },
    {
      "inputs": [
        {
          "internalType": "address",
          "name": "_staking",
          "type": "address"
        }
      ],
      "name": "setStakingContract",
      "outputs": [],
      "stateMutability": "nonpayable",
      "type": "function"
    },
    {
      "inputs": [],
      "name": "shutdown",
      "outputs": [],
      "stateMutability": "nonpayable",
      "type": "function"
    },
    {
      "inputs": [],
      "name": "stakeOffsetOnLock",
      "outputs": [
        {
          "internalType": "uint256",
          "name": "",
          "type": "uint256"
        }
      ],
      "stateMutability": "view",
      "type": "function"
    },
    {
      "inputs": [],
      "name": "stakingProxy",
      "outputs": [
        {
          "internalType": "address",
          "name": "",
          "type": "address"
        }
      ],
      "stateMutability": "view",
      "type": "function"
    },
    {
      "inputs": [],
      "name": "stakingToken",
      "outputs": [
        {
          "internalType": "contract IERC20Upgradeable",
          "name": "",
          "type": "address"
        }
      ],
      "stateMutability": "view",
      "type": "function"
    },
    {
      "inputs": [],
      "name": "symbol",
      "outputs": [
        {
          "internalType": "string",
          "name": "",
          "type": "string"
        }
      ],
      "stateMutability": "view",
      "type": "function"
    },
    {
      "inputs": [],
      "name": "totalSupply",
      "outputs": [
        {
          "internalType": "uint256",
          "name": "supply",
          "type": "uint256"
        }
      ],
      "stateMutability": "view",
      "type": "function"
    },
    {
      "inputs": [
        {
          "internalType": "uint256",
          "name": "_epoch",
          "type": "uint256"
        }
      ],
      "name": "totalSupplyAtEpoch",
      "outputs": [
        {
          "internalType": "uint256",
          "name": "supply",
          "type": "uint256"
        }
      ],
      "stateMutability": "view",
      "type": "function"
    },
    {
      "inputs": [],
      "name": "unpause",
      "outputs": [],
      "stateMutability": "nonpayable",
      "type": "function"
    },
    {
      "inputs": [
        {
          "internalType": "address",
          "name": "",
          "type": "address"
        },
        {
          "internalType": "uint256",
          "name": "",
          "type": "uint256"
        }
      ],
      "name": "userLocks",
      "outputs": [
        {
          "internalType": "uint112",
          "name": "amount",
          "type": "uint112"
        },
        {
          "internalType": "uint112",
          "name": "boosted",
          "type": "uint112"
        },
        {
          "internalType": "uint32",
          "name": "unlockTime",
          "type": "uint32"
        }
      ],
      "stateMutability": "view",
      "type": "function"
    },
    {
      "inputs": [
        {
          "internalType": "address",
          "name": "",
          "type": "address"
        },
        {
          "internalType": "address",
          "name": "",
          "type": "address"
        }
      ],
      "name": "userRewardPerTokenPaid",
      "outputs": [
        {
          "internalType": "uint256",
          "name": "",
          "type": "uint256"
        }
      ],
      "stateMutability": "view",
      "type": "function"
    },
    {
      "inputs": [],
      "name": "version",
      "outputs": [
        {
          "internalType": "uint256",
          "name": "",
          "type": "uint256"
        }
      ],
      "stateMutability": "view",
      "type": "function"
    },
    {
      "inputs": [
        {
          "internalType": "address",
          "name": "_withdrawTo",
          "type": "address"
        }
      ],
      "name": "withdrawExpiredLocksTo",
      "outputs": [],
      "stateMutability": "nonpayable",
      "type": "function"
    }
  ],
  "bytecode": {
    "object": "0x608060405260a380546001600160a01b0319908116909155600060a481905561271060a581905560a69190915560a781905560a881905560a95560aa80549091169055606460ab55600460ac5560ad805460ff1916905534801561006257600080fd5b50615f1e80620000736000396000f3fe608060405234801561001057600080fd5b506004361061046a5760003560e01c8063829965cc1161024c578063c00007b011610146578063e2ab691d116100c3578063f122977711610087578063f122977714610920578063f4e79fc314610933578063f82615971461093b578063fb1bb9de1461094e578063fc0e74d1146109565761046a565b8063e2ab691d146108e2578063e432488d146108f5578063e63ab1e9146108fd578063e70b9e2714610905578063ec5ffac2146109185761046a565b8063cb1b9a741161010a578063cb1b9a7414610876578063d36f12fb14610889578063d3c45c761461089c578063d6cd3dd5146108af578063dc01f60d146108c25761046a565b8063c00007b01461081d578063c1009f4b14610830578063c4f59f9b14610838578063c6b61e4c1461084d578063ca5c7b911461086e5761046a565b80639dd373b9116101d4578063b5c6b45311610198578063b5c6b453146107df578063b5ed7a66146107e7578063b66503cf146107ef578063bcd1101414610802578063bf86d690146108155761046a565b80639dd373b914610796578063a81653c9146107a9578063a98e05bb146107bc578063aa33fedb146107c4578063b187bc22146107d75761046a565b80638980f11f1161021b5780638980f11f146107585780638c9bd1b51461076b57806395d89b411461077e57806396ce0795146107865780639bdc74671461078e5761046a565b8063829965cc146107225780638456cb591461072a578063865c695314610732578063887c7dc5146107455761046a565b8063424df702116103685780637035ab98116102e557806375aadf61116102a957806375aadf61146106cc5780637a3dbd6a146106d45780637bb7bed1146106e75780637bd48c7c146106fa5780637d806f2f146107025761046a565b80637035ab98146106785780637050ccd91461068b57806370a082311461069e57806370b36d79146106b157806372f702f3146106c45761046a565b8063638634ee1161032c578063638634ee1461062457806363f1c8e214610637578063648bb8ad1461064a5780636724c9101461065257806368edd2bb146106655761046a565b8063424df702146105ca57806348e5d9f8146105dd57806354fd4d501461060157806359355736146106095780635c975abb1461061c5761046a565b806326b2f404116103f6578063313ce567116103ba578063313ce56714610572578063386a95251461058757806339fc97131461058f5780633bb3ebd4146105af5780633f4ba83a146105c25761046a565b806326b2f4041461051a57806327e235e3146105225780632e9564e4146105445780632fe871081461054c578063312ff8391461055f5761046a565b80630b0cca891161043d5780630b0cca89146104cd57806318160ddd146104d55780631c607395146104dd5780632016a0d2146104f057806322f80d11146105055761046a565b8063045544431461046f5780630483a7f61461048d57806306fdde03146104b057806309ece8ee146104c5575b600080fd5b61047761095e565b6040516104849190615762565b60405180910390f35b6104a061049b36600461532a565b610965565b6040516104849493929190615e12565b6104b8610b2b565b6040516104849190615790565b610477610bc1565b610477610be5565b610477610bf7565b6104776104eb36600461556a565b610ccd565b6105036104fe3660046153e4565b610dd3565b005b61050d610f62565b6040516104849190615610565b610477610f71565b61053561053036600461532a565b610f95565b60405161048493929190615dab565b610477610fcb565b61047761055a36600461532a565b610fd1565b61050361056d366004615502565b611000565b61057a6110fe565b6040516104849190615e94565b610477611107565b6105a261059d366004615362565b61110e565b6040516104849190615721565b6105036105bd3660046154ce565b61112e565b610503611495565b6104776105d8366004615362565b61154a565b6105f06105eb36600461532a565b611575565b60405161048495949392919061572c565b6104776115c1565b61047761061736600461532a565b6115c6565b6105a26115ea565b61047761063236600461532a565b6115f3565b61050361064536600461558e565b611621565b61047761174e565b61050361066036600461539a565b611754565b61047761067336600461532a565b611899565b610477610686366004615362565b611931565b610503610699366004615476565b61194e565b6104776106ac36600461532a565b611ce7565b6104776106bf36600461553a565b611e08565b61050d611edf565b610477611eee565b6105036106e236600461532a565b611ef4565b61050d6106f536600461553a565b611f9b565b610477611fc2565b610715610710366004615362565b611fc8565b6040516104849190615d82565b610477612053565b610503612059565b610477610740366004615362565b61210c565b61050361075336600461532a565b612129565b6105036107663660046154a3565b612236565b61050361077936600461558e565b61247b565b6104b86125d2565b610477612633565b610477612639565b6105036107a436600461532a565b61263f565b6105036107b73660046155af565b612769565b61050d6128da565b6105356107d23660046154a3565b6128e9565b610477612935565b61047761293b565b610477612941565b6105036107fd3660046154a3565b612947565b61047761081036600461532a565b612bdf565b6105a2612c15565b61050361082b36600461532a565b612c1e565b610503612c2c565b610840612c34565b6040516104849190615687565b61086061085b36600461553a565b612ce8565b604051610484929190615dd4565b610477612d1d565b61047761088436600461556a565b612d23565b61050361089736600461532a565b612e02565b6105036108aa36600461539a565b612ef9565b6104776108bd36600461532a565b6130be565b6108d56108d036600461532a565b6130d0565b60405161048491906156d4565b6105036108f03660046154ce565b613209565b6104776134c2565b6104776134c8565b610477610913366004615362565b6134ec565b610477613509565b61047761092e36600461532a565b61350f565b61050d61351a565b61047761094936600461553a565b613529565b6104776135d3565b6105036135f7565b62c1cc8081565b6001600160a01b038116600090815260a26020908152604080832060a19092528220805483928392606092600160e01b900463ffffffff1684815b8454811015610b1357428582815481106109b657fe5b600091825260209091200154600160e01b900463ffffffff161115610add5781610a3357845481900367ffffffffffffffff811180156109f557600080fd5b50604051908082528060200260200182016040528015610a2f57816020015b610a1c61521d565b815260200190600190039081610a145790505b5095505b848181548110610a3f57fe5b60009182526020918290206040805160608101825291909201546001600160701b038082168352600160701b8204169382019390935263ffffffff600160e01b90930492909216908201528651879084908110610a9857fe5b60200260200101819052508180600101925050610ad6858281548110610aba57fe5b60009182526020909120015488906001600160701b031661361d565b9650610b0b565b610b08858281548110610aec57fe5b60009182526020909120015489906001600160701b031661361d565b97505b6001016109a0565b505090546001600160701b0316955050509193509193565b60ae8054604080516020601f6002600019610100600188161502019095169490940493840181900481028201810190925282815260609390929091830182828015610bb75780601f10610b8c57610100808354040283529160200191610bb7565b820191906000526020600020905b815481529060010190602001808311610b9a57829003601f168201915b5050505050905090565b7f0ae097b90fd4eb85125339aa384674b34376a7d2431b48d50d88b599a2bda6f581565b600080516020615ef283398151915281565b600080610c11621baf80610c0b4282613640565b90613672565b90506000610c228262c1cc806136a9565b60a0805491925083906000198301838110610c3957fe5b600091825260209091200154600160e01b900463ffffffff161115610c5d57600019015b60001981015b6001810115610cc657600060a08281548110610c7b57fe5b60009182526020909120018054909150600160e01b900463ffffffff168410610ca45750610cc6565b8054610cba9087906001600160e01b031661361d565b95505060001901610c63565b5050505090565b6001600160a01b038116600090815260a26020526040812060a0805483919086908110610cf657fe5b600091825260208220015463ffffffff600160e01b90910481169250610d2390839062c1cc80906136a916565b8354909150600019015b6001810115610dc8576000610d6e62c1cc80868481548110610d4b57fe5b60009182526020909120015463ffffffff600160e01b909104811691906136a916565b9050838111610dbe5782811115610db857610db1858381548110610d8e57fe5b6000918252602090912001548790600160701b90046001600160701b031661361d565b9550610dbe565b50610dc8565b5060001901610d2d565b505050505b92915050565b600054610100900460ff1680610dec5750610dec6136cc565b80610dfa575060005460ff16155b610e1f5760405162461bcd60e51b8152600401610e1690615a06565b60405180910390fd5b600054610100900460ff16158015610e4a576000805460ff1961ff0019909116610100171660011790555b6001600160a01b038716610e5d57600080fd5b609880546001600160a01b0319166001600160a01b038916179055610e8460ae868661523d565b50610e9160af848461523d565b5060b0805460ff191660121790556000610eb2621baf80610c0b4282613640565b60408051808201909152600080825263ffffffff8084166020840190815260a08054600181018255935292517f78fdc8d422c49ced035a9edf18d00d3c6a8d81df210f3e5e448e045e77b41e8890920180549351909116600160e01b026001600160e01b039283166001600160e01b0319909416939093179091169190911790559050610f3d6136dd565b610f4687611ef4565b508015610f59576000805461ff00191690555b50505050505050565b60aa546001600160a01b031681565b7f90565f473acba990c953ecc83c4ef11c3dd8ed52a592a609c6e09518c2eef3c681565b60a1602052600090815260409020546001600160701b0380821691600160701b810490911690600160e01b900463ffffffff1683565b60a55481565b6001600160a01b038116600090815260a16020526040902054600160701b90046001600160701b03165b919050565b600260015414156110235760405162461bcd60e51b8152600401610e1690615cba565b600260015560975460408051635c975abb60e01b815290516001600160a01b0390921691635c975abb91600480820192602092909190829003018186803b15801561106d57600080fd5b505afa158015611081573d6000803e3d6000fd5b505050506040513d601f19601f820116820180604052508101906110a5919061551e565b156110c25760405162461bcd60e51b8152600401610e1690615955565b6110ca6115ea565b156110e75760405162461bcd60e51b8152600401610e1690615a8b565b6110f73382600033336000613767565b5060018055565b60b05460ff1690565b621baf8081565b609b60209081526000928352604080842090915290825290205460ff1681565b609760009054906101000a90046001600160a01b03166001600160a01b0316635c975abb6040518163ffffffff1660e01b815260040160206040518083038186803b15801561117c57600080fd5b505afa158015611190573d6000803e3d6000fd5b505050506040513d601f19601f820116820180604052508101906111b4919061551e565b156111d15760405162461bcd60e51b8152600401610e1690615955565b6111d96115ea565b156111f65760405162461bcd60e51b8152600401610e1690615a8b565b600080805260a16020527f32ae1b88a7d4f92d7e214b63c8ea04cd13e2faaa60c50f499f2254336d98f8828054600160701b90046001600160701b0316825b6099548110156113c15760006099828154811061124e57fe5b6000918252602090912001546001600160a01b0316905061127661127182613e00565b613f09565b6001600160a01b0382166000908152609a602052604090206001810180546001600160d01b0393909316600160281b02600160281b600160f81b031990931692909217909155546112dc906112d79064ffffffffff61010090910416613f36565b613f42565b6001600160a01b038281166000908152609a60205260409020600101805464ffffffffff191664ffffffffff93909316929092179091558516156113b8576001600160a01b0381166000908152609a6020526040902054611359908690839060ff166113525786546001600160701b0316611354565b855b613f69565b6001600160a01b038681166000818152609d6020908152604080832094871680845294825280832095909555609a815284822060010154928252609c815284822093825292909252919020600160281b9091046001600160d01b031690555b50600101611235565b5050506001600160a01b0384166000908152609b6020908152604080832033845290915290205460ff166113f457600080fd5b600083116114145760405162461bcd60e51b8152600401610e1690615ab1565b61141e8484613fe1565b6114336001600160a01b038516333086614114565b6001600160a01b038416600081815260b2602052604090819020805486019055517fa3e98ad001ab3597c5c4a0afe6de30207ef7d124a67337acefc3d5d5d905242f90611487903390879087904290615624565b60405180910390a250505050565b609754604051632474521560e21b81526001600160a01b03909116906391d14854906114e7907f427da25fe773164f88948d3e215c94b6554e2ed5e5f203a821c9f2f6131cf75a90339060040161576b565b60206040518083038186803b1580156114ff57600080fd5b505afa158015611513573d6000803e3d6000fd5b505050506040513d601f19601f82011682018060405250810190611537919061551e565b61154057600080fd5b611548614172565b565b6001600160a01b03918216600090815260b16020908152604080832093909416825291909152205490565b609a602052600090815260409020805460019091015460ff82169164ffffffffff61010082048116926001600160d01b03600160301b90930483169291811691600160281b9091041685565b600290565b6001600160a01b0316600090815260a160205260409020546001600160701b031690565b60655460ff1690565b6001600160a01b0381166000908152609a6020526040812054610dcd90610100900464ffffffffff16613f36565b609760009054906101000a90046001600160a01b03166001600160a01b0316635c975abb6040518163ffffffff1660e01b815260040160206040518083038186803b15801561166f57600080fd5b505afa158015611683573d6000803e3d6000fd5b505050506040513d601f19601f820116820180604052508101906116a7919061551e565b156116c45760405162461bcd60e51b8152600401610e1690615955565b6116cc6115ea565b156116e95760405162461bcd60e51b8152600401610e1690615a8b565b611700600080516020615ef28339815191526141e0565b6101f48211156117225760405162461bcd60e51b8152600401610e1690615908565b60028110156117435760405162461bcd60e51b8152600401610e1690615b2c565b60ab9190915560ac55565b6101f481565b609760009054906101000a90046001600160a01b03166001600160a01b0316635c975abb6040518163ffffffff1660e01b815260040160206040518083038186803b1580156117a257600080fd5b505afa1580156117b6573d6000803e3d6000fd5b505050506040513d601f19601f820116820180604052508101906117da919061551e565b156117f75760405162461bcd60e51b8152600401610e1690615955565b6117ff6115ea565b1561181c5760405162461bcd60e51b8152600401610e1690615a8b565b611833600080516020615ef28339815191526141e0565b6001600160a01b0383166000908152609a602052604090206001015464ffffffffff1661185f57600080fd5b6001600160a01b039283166000908152609b6020908152604080832094909516825292909252919020805460ff1916911515919091179055565b6001600160a01b038116600090815260a2602052604081208054826118c5621baf80610c0b4282613640565b90506000821180156118eb5750806118e962c1cc80856001860381548110610d4b57fe5b115b15611926578260018303815481106118ff57fe5b600091825260209091200154600160701b90046001600160701b03169350610ffb92505050565b506000949350505050565b609c60209081526000928352604080842090915290825290205481565b600260015414156119715760405162461bcd60e51b8152600401610e1690615cba565b600260015560975460408051635c975abb60e01b815290516001600160a01b0390921691635c975abb91600480820192602092909190829003018186803b1580156119bb57600080fd5b505afa1580156119cf573d6000803e3d6000fd5b505050506040513d601f19601f820116820180604052508101906119f3919061551e565b15611a105760405162461bcd60e51b8152600401610e1690615955565b611a186115ea565b15611a355760405162461bcd60e51b8152600401610e1690615a8b565b6001600160a01b038216600090815260a16020526040812080548492600160701b9091046001600160701b0316905b609954811015611bdf57600060998281548110611a7d57fe5b6000918252602090912001546001600160a01b03169050611aa061127182613e00565b6001600160a01b0382166000908152609a602052604090206001810180546001600160d01b0393909316600160281b02600160281b600160f81b03199093169290921790915554611b01906112d79064ffffffffff61010090910416613f36565b6001600160a01b038281166000908152609a60205260409020600101805464ffffffffff191664ffffffffff9390931692909217909155851615611bd6576001600160a01b0381166000908152609a6020526040902054611b77908690839060ff166113525786546001600160701b0316611354565b6001600160a01b038681166000818152609d6020908152604080832094871680845294825280832095909555609a815284822060010154928252609c815284822093825292909252919020600160281b9091046001600160d01b031690555b50600101611a64565b50505060005b609954811015611cdd57600060998281548110611bfe57fe5b60009182526020808320909101546001600160a01b038881168452609d83526040808520919092168085529252909120549091508015611cd3576001600160a01b038087166000908152609d6020908152604080832093861680845293909152812055611c6c90878361427e565b6001600160a01b03808716600081815260b1602090815260408083209487168084529490915290819020805485019055517f540798df468d7b23d11f156fdb954cb19ad414d150722a7b6d55ba369dea792e90611cca908590615762565b60405180910390a35b5050600101611be5565b5050600180555050565b6001600160a01b038116600090815260a26020908152604080832060a190925290912080548254600160701b82046001600160701b0316939291600160e01b900463ffffffff1690815b81811015611daa5742858281548110611d4657fe5b600091825260209091200154600160e01b900463ffffffff1611611d9d57611d96858281548110611d7357fe5b6000918252602090912001548790600160701b90046001600160701b03166136a9565b9550611da2565b611daa565b600101611d31565b506000611dbe621baf80610c0b4282613640565b9050600082118015611de4575080611de262c1cc80876001860381548110610d4b57fe5b115b15611dfe57611dfb856001840381548110611d7357fe5b95505b5050505050919050565b600080611e49621baf80610c0b621baf8060a08781548110611e2657fe5b60009182526020909120015463ffffffff600160e01b9091048116919061364016565b90506000611e5a8262c1cc806136a9565b9050835b6001810115611ed757600060a08281548110611e7657fe5b60009182526020909120018054909150600160e01b900463ffffffff168310611e9f5750611ed7565b611ecb60a08381548110611eaf57fe5b60009182526020909120015486906001600160e01b031661361d565b94505060001901611e5e565b505050919050565b6098546001600160a01b031681565b609f5481565b600054610100900460ff1680611f0d5750611f0d6136cc565b80611f1b575060005460ff16155b611f375760405162461bcd60e51b8152600401610e1690615a06565b600054610100900460ff16158015611f62576000805460ff1961ff0019909116610100171660011790555b611f6a61429d565b609780546001600160a01b0319166001600160a01b0384161790558015611f97576000805461ff00191690555b5050565b60998181548110611fa857fe5b6000918252602090912001546001600160a01b0316905081565b60a65481565b611fd06152b7565b6001600160a01b03808416600090815260a160209081526040808320815180830183529487168086528452609a835292205491929190820190612049908790879060ff166120285785546001600160701b031661203b565b8554600160701b90046001600160701b03165b6001600160701b0316613f69565b9052949350505050565b60a05490565b609754604051632474521560e21b81526001600160a01b03909116906391d14854906120ab907f65d7a28e3265b37a6474929f336521b332c1681b933f6cb9f3376673440d862a90339060040161576b565b60206040518083038186803b1580156120c357600080fd5b505afa1580156120d7573d6000803e3d6000fd5b505050506040513d601f19601f820116820180604052508101906120fb919061551e565b61210457600080fd5b611548614329565b60b160209081526000928352604080842090915290825290205481565b6002600154141561214c5760405162461bcd60e51b8152600401610e1690615cba565b600260015560975460408051635c975abb60e01b815290516001600160a01b0390921691635c975abb91600480820192602092909190829003018186803b15801561219657600080fd5b505afa1580156121aa573d6000803e3d6000fd5b505050506040513d601f19601f820116820180604052508101906121ce919061551e565b156121eb5760405162461bcd60e51b8152600401610e1690615955565b6121f36115ea565b156122105760405162461bcd60e51b8152600401610e1690615a8b565b6110f781600080843361223160ac54621baf8061367290919063ffffffff16565b613767565b609760009054906101000a90046001600160a01b03166001600160a01b0316635c975abb6040518163ffffffff1660e01b815260040160206040518083038186803b15801561228457600080fd5b505afa158015612298573d6000803e3d6000fd5b505050506040513d601f19601f820116820180604052508101906122bc919061551e565b156122d95760405162461bcd60e51b8152600401610e1690615955565b6122e16115ea565b156122fe5760405162461bcd60e51b8152600401610e1690615a8b565b612315600080516020615ef28339815191526141e0565b609754604051632404341f60e21b81526000916001600160a01b031690639010d07c90612368907f0ae097b90fd4eb85125339aa384674b34376a7d2431b48d50d88b599a2bda6f5908590600401615782565b60206040518083038186803b15801561238057600080fd5b505afa158015612394573d6000803e3d6000fd5b505050506040513d601f19601f820116820180604052508101906123b89190615346565b6098549091506001600160a01b03848116911614156123e95760405162461bcd60e51b8152600401610e1690615af5565b6001600160a01b0383166000908152609a602052604090206001015464ffffffffff16156124295760405162461bcd60e51b8152600401610e1690615c83565b61243d6001600160a01b038416828461427e565b7f8c1256b8896378cd5044f80c202f9772b9d77dc85c8a6eb51967210b09bfaa28838360405161246e92919061566e565b60405180910390a1505050565b609760009054906101000a90046001600160a01b03166001600160a01b0316635c975abb6040518163ffffffff1660e01b815260040160206040518083038186803b1580156124c957600080fd5b505afa1580156124dd573d6000803e3d6000fd5b505050506040513d601f19601f82011682018060405250810190612501919061551e565b1561251e5760405162461bcd60e51b8152600401610e1690615955565b6125266115ea565b156125435760405162461bcd60e51b8152600401610e1690615a8b565b61255a600080516020615ef28339815191526141e0565b61271082111561257c5760405162461bcd60e51b8152600401610e1690615ba8565b61271081111561259e5760405162461bcd60e51b8152600401610e1690615cf1565b808211156125be5760405162461bcd60e51b8152600401610e1690615ba8565b60a882905560a9819055611f976000614384565b60af8054604080516020601f6002600019610100600188161502019095169490940493840181900481028201810190925282815260609390929091830182828015610bb75780601f10610b8c57610100808354040283529160200191610bb7565b61271081565b60ab5481565b609760009054906101000a90046001600160a01b03166001600160a01b0316635c975abb6040518163ffffffff1660e01b815260040160206040518083038186803b15801561268d57600080fd5b505afa1580156126a1573d6000803e3d6000fd5b505050506040513d601f19601f820116820180604052508101906126c5919061551e565b156126e25760405162461bcd60e51b8152600401610e1690615955565b6126ea6115ea565b156127075760405162461bcd60e51b8152600401610e1690615a8b565b61271e600080516020615ef28339815191526141e0565b60aa546001600160a01b0316156127475760405162461bcd60e51b8152600401610e1690615ad4565b60aa80546001600160a01b0319166001600160a01b0392909216919091179055565b609760009054906101000a90046001600160a01b03166001600160a01b0316635c975abb6040518163ffffffff1660e01b815260040160206040518083038186803b1580156127b757600080fd5b505afa1580156127cb573d6000803e3d6000fd5b505050506040513d601f19601f820116820180604052508101906127ef919061551e565b1561280c5760405162461bcd60e51b8152600401610e1690615955565b6128146115ea565b156128315760405162461bcd60e51b8152600401610e1690615a8b565b612848600080516020615ef28339815191526141e0565b6105dc83106128695760405162461bcd60e51b8152600401610e16906158de565b617530821061288a5760405162461bcd60e51b8152600401610e1690615908565b6001600160a01b0381166128b05760405162461bcd60e51b8152600401610e16906159a6565b60a69290925560a75560a380546001600160a01b0319166001600160a01b03909216919091179055565b60a3546001600160a01b031681565b60a2602052816000526040600020818154811061290257fe5b6000918252602090912001546001600160701b038082169350600160701b8204169150600160e01b900463ffffffff1683565b60a45481565b60a95481565b60a75481565b609760009054906101000a90046001600160a01b03166001600160a01b0316635c975abb6040518163ffffffff1660e01b815260040160206040518083038186803b15801561299557600080fd5b505afa1580156129a9573d6000803e3d6000fd5b505050506040513d601f19601f820116820180604052508101906129cd919061551e565b156129ea5760405162461bcd60e51b8152600401610e1690615955565b6129f26115ea565b15612a0f5760405162461bcd60e51b8152600401610e1690615a8b565b600080805260a16020527f32ae1b88a7d4f92d7e214b63c8ea04cd13e2faaa60c50f499f2254336d98f8828054600160701b90046001600160701b0316825b609954811015612bc957600060998281548110612a6757fe5b6000918252602090912001546001600160a01b03169050612a8a61127182613e00565b6001600160a01b0382166000908152609a602052604090206001810180546001600160d01b0393909316600160281b02600160281b600160f81b03199093169290921790915554612aeb906112d79064ffffffffff61010090910416613f36565b6001600160a01b038281166000908152609a60205260409020600101805464ffffffffff191664ffffffffff9390931692909217909155851615612bc0576001600160a01b0381166000908152609a6020526040902054612b61908690839060ff166113525786546001600160701b0316611354565b6001600160a01b038681166000818152609d6020908152604080832094871680845294825280832095909555609a815284822060010154928252609c815284822093825292909252919020600160281b9091046001600160d01b031690555b50600101612a4e565b505050612bda83836000801b61112e565b505050565b6001600160a01b0381166000908152609a6020526040812054610dcd90600160301b90046001600160d01b0316621baf80613672565b60ad5460ff1681565b612c2981600061194e565b50565b611548614656565b609954606090818167ffffffffffffffff81118015612c5257600080fd5b50604051908082528060200260200182016040528015612c7c578160200160208202803683370190505b50905060005b82811015612ce15760998181548110612c9757fe5b9060005260206000200160009054906101000a90046001600160a01b0316828281518110612cc157fe5b6001600160a01b0390921660209283029190910190910152600101612c82565b5091505090565b60a08181548110612cf557fe5b6000918252602090912001546001600160e01b0381169150600160e01b900463ffffffff1682565b609e5481565b6001600160a01b038116600090815260a26020526040812060a080548391612d7891621baf80919088908110612d5557fe5b60009182526020909120015463ffffffff600160e01b9091048116919061361d16565b8254909150600019015b6001810115612df6576000612da062c1cc80858481548110610d4b57fe5b905082811415612dde57838281548110612db657fe5b600091825260209091200154600160701b90046001600160701b03169450610dcd9350505050565b82811015612dec5750612df6565b5060001901612d82565b50600095945050505050565b60026001541415612e255760405162461bcd60e51b8152600401610e1690615cba565b600260015560975460408051635c975abb60e01b815290516001600160a01b0390921691635c975abb91600480820192602092909190829003018186803b158015612e6f57600080fd5b505afa158015612e83573d6000803e3d6000fd5b505050506040513d601f19601f82011682018060405250810190612ea7919061551e565b15612ec45760405162461bcd60e51b8152600401610e1690615955565b612ecc6115ea565b15612ee95760405162461bcd60e51b8152600401610e1690615a8b565b6110f73360008084336000613767565b609760009054906101000a90046001600160a01b03166001600160a01b0316635c975abb6040518163ffffffff1660e01b815260040160206040518083038186803b158015612f4757600080fd5b505afa158015612f5b573d6000803e3d6000fd5b505050506040513d601f19601f82011682018060405250810190612f7f919061551e565b15612f9c5760405162461bcd60e51b8152600401610e1690615955565b612fa46115ea565b15612fc15760405162461bcd60e51b8152600401610e1690615a8b565b612fd8600080516020615ef28339815191526141e0565b6001600160a01b0383166000908152609a602052604090206001015464ffffffffff161561300557600080fd5b6099805460018082019092557f72a152ddfb8e864297c917af52ea6c1c68aead0fee1a62673fcc7e0c94979d000180546001600160a01b0319166001600160a01b039586169081179091556000908152609a60209081526040808320808501805464ffffffffff19164264ffffffffff16908117909155815465ffffffffff0019166101009091021760ff19908116961515969096179055609b8252808320959096168252939093529290912080549091169091179055565b60b26020526000908152604090205481565b60995460609067ffffffffffffffff811180156130ec57600080fd5b5060405190808252806020026020018201604052801561312657816020015b6131136152b7565b81526020019060019003908161310b5790505b506001600160a01b038316600090815260a160205260408120805492935091600160701b90046001600160701b0316905b8351811015611ed75760006099828154811061316f57fe5b9060005260206000200160009054906101000a90046001600160a01b031690508085838151811061319c57fe5b6020908102919091018101516001600160a01b0392831690529082166000908152609a90915260409020546131e6908790839060ff166113525786546001600160701b0316611354565b8583815181106131f257fe5b602090810291909101810151015250600101613157565b6002600154141561322c5760405162461bcd60e51b8152600401610e1690615cba565b600260015560975460408051635c975abb60e01b815290516001600160a01b0390921691635c975abb91600480820192602092909190829003018186803b15801561327657600080fd5b505afa15801561328a573d6000803e3d6000fd5b505050506040513d601f19601f820116820180604052508101906132ae919061551e565b156132cb5760405162461bcd60e51b8152600401610e1690615955565b6132d36115ea565b156132f05760405162461bcd60e51b8152600401610e1690615a8b565b6001600160a01b038316600090815260a16020526040812080548592600160701b9091046001600160701b0316905b60995481101561349a5760006099828154811061333857fe5b6000918252602090912001546001600160a01b0316905061335b61127182613e00565b6001600160a01b0382166000908152609a602052604090206001810180546001600160d01b0393909316600160281b02600160281b600160f81b031990931692909217909155546133bc906112d79064ffffffffff61010090910416613f36565b6001600160a01b038281166000908152609a60205260409020600101805464ffffffffff191664ffffffffff9390931692909217909155851615613491576001600160a01b0381166000908152609a6020526040902054613432908690839060ff166113525786546001600160701b0316611354565b6001600160a01b038681166000818152609d6020908152604080832094871680845294825280832095909555609a815284822060010154928252609c815284822093825292909252919020600160281b9091046001600160d01b031690555b5060010161331f565b50506098546134b591506001600160a01b0316333086614114565b611cdd848484600061479e565b60ac5481565b7f65d7a28e3265b37a6474929f336521b332c1681b933f6cb9f3376673440d862a81565b609d60209081526000928352604080842090915290825290205481565b60a85481565b6000610dcd82613e00565b6097546001600160a01b031681565b60a0546000906000190181613545621baf80610c0b8682613640565b935060005b60808110156135cb5782821061355f576135cb565b60006002600184860101049050600060a0828154811061357b57fe5b600091825260209091200154600160e01b900463ffffffff169050868114156135aa57509350610ffb92505050565b868110156135ba578193506135c1565b6001820394505b505060010161354a565b509392505050565b7f427da25fe773164f88948d3e215c94b6554e2ed5e5f203a821c9f2f6131cf75a81565b61360e600080516020615ef28339815191526141e0565b60ad805460ff19166001179055565b81810181811015610dcd5760405162461bcd60e51b8152600401610e16906159cf565b60008082116136615760405162461bcd60e51b8152600401610e1690615857565b81838161366a57fe5b049392505050565b600081158061368d5750508082028282828161368a57fe5b04145b610dcd5760405162461bcd60e51b8152600401610e1690615d14565b80820382811115610dcd5760405162461bcd60e51b8152600401610e16906157c3565b60006136d730614e88565b15905090565b600054610100900460ff16806136f657506136f66136cc565b80613704575060005460ff16155b6137205760405162461bcd60e51b8152600401610e1690615a06565b600054610100900460ff1615801561374b576000805460ff1961ff0019909116610100171660011790555b613753614e8e565b8015612c29576000805461ff001916905550565b6001600160a01b038616600090815260a16020526040812080548892600160701b9091046001600160701b0316905b609954811015613911576000609982815481106137af57fe5b6000918252602090912001546001600160a01b031690506137d261127182613e00565b6001600160a01b0382166000908152609a602052604090206001810180546001600160d01b0393909316600160281b02600160281b600160f81b03199093169290921790915554613833906112d79064ffffffffff61010090910416613f36565b6001600160a01b038281166000908152609a60205260409020600101805464ffffffffff191664ffffffffff9390931692909217909155851615613908576001600160a01b0381166000908152609a60205260409020546138a9908690839060ff166113525786546001600160701b0316611354565b6001600160a01b038681166000818152609d6020908152604080832094871680845294825280832095909555609a815284822060010154928252609c815284822093825292909252919020600160281b9091046001600160d01b031690555b50600101613796565b5050506001600160a01b038716600090815260a26020908152604080832060a19092528220815460ad5492939192829190829060ff1680613982575061395742896136a9565b86600184038154811061396657fe5b600091825260209091200154600160e01b900463ffffffff1611155b15613a955784546001600160701b038082169550600160701b9091041692506139aa82614f14565b855463ffffffff91909116600160e01b026001600160e01b039091161785558715613a905760006139ec621baf80610c0b816139e6428e6136a9565b90613640565b90506000613a2d621baf806139e68a6001880381548110613a0957fe5b600091825260209091200154859063ffffffff600160e01b9091048116906136a916565b90506000613a54613a4c8360010160ab5461367290919063ffffffff16565b612710614f3a565b9050613a8a6127106139e6838c60018a0381548110613a6f57fe5b6000918252602090912001546001600160701b031690613672565b93505050505b613c03565b8454600160e01b900463ffffffff16805b83811015613be357613ab8428b6136a9565b888281548110613ac457fe5b600091825260209091200154600160e01b900463ffffffff161115613ae857613be3565b613b15888281548110613af757fe5b6000918252602090912001546001600160701b038881169116614f50565b9550613b4b888281548110613b2657fe5b6000918252602090912001546001600160701b0387811691600160701b900416614f50565b94508915613bd7576000613b76621baf80610c0b621baf806139e68f426136a990919063ffffffff16565b90506000613b90621baf806139e68c8681548110613a0957fe5b90506000613baf613a4c8360010160ab5461367290919063ffffffff16565b9050613bd1613bca6127106139e6848f8981548110613a6f57fe5b879061361d565b95505050505b60019182019101613aa6565b50855463ffffffff909116600160e01b026001600160e01b039091161785555b6000846001600160701b031611613c2c5760405162461bcd60e51b8152600401610e169061592f565b8454613c41906001600160701b031685614f7f565b85546001600160701b0319166001600160701b0391821617808755613c6f91600160701b9091041684614f7f565b8554600160701b600160e01b031916600160701b6001600160701b0392831602178655609e54613ca09186166136a9565b609e55609f54613cb9906001600160701b0385166136a9565b609f819055508c6001600160a01b03167f2fd83d5e9f5d240bed47a97a24cf354e4047e25edc2da27b01fd95e5e8a0c9a5858e604051613cfa929190615d90565b60405180910390a28015613d9457613d1a846001600160701b0316614fae565b613d36613d268261502f565b6001600160701b03861690614f7f565b9350613d4489826000615058565b8c6001600160a01b0316896001600160a01b03167f7e7ff29ed04cfb223bc9b02606f69520517c117ee82c9158ed2d96323c1ef38583604051613d879190615762565b60405180910390a3613dbb565b8a15613dbb57613dbb613db66127106139e66001600160701b0388168f613672565b614fae565b8b15613ddc57613dd78a856001600160701b03168d600161479e565b613df1565b613df18a856001600160701b03166001615058565b50505050505050505050505050565b6000609f5460001415613e3f57506001600160a01b0381166000908152609a6020526040902060010154600160281b90046001600160d01b0316610ffb565b6001600160a01b0382166000908152609a6020526040902054610dcd90613ed79060ff16613e6f57609e54613e73565b609f545b6001600160a01b0385166000908152609a6020526040902080546001909101546139e691670de0b6b3a764000091610c0b916001600160d01b03600160301b82041691839164ffffffffff91821691613ed191610100900416613f36565b906136a9565b6001600160a01b0384166000908152609a6020526040902060010154600160281b90046001600160d01b03169061361d565b60006001600160d01b03821115613f325760405162461bcd60e51b8152600401610e1690615820565b5090565b6000610dcd4283614f3a565b600064ffffffffff821115613f325760405162461bcd60e51b8152600401610e1690615d4b565b6001600160a01b038084166000818152609d6020908152604080832094871680845294825280832054938352609c825280832094835293905291822054613fd79190613fd190670de0b6b3a7640000906139e690613fca90613ed18a613e00565b8790613672565b9061361d565b90505b9392505050565b6001600160a01b0382166000908152609a602052604090208054610100900464ffffffffff1642106140435761401d61127183621baf80613640565b81546001600160d01b0391909116600160301b0265ffffffffffff9091161781556140bb565b805460009061405e90610100900464ffffffffff16426136a9565b8254909150600090614081908390600160301b90046001600160d01b0316613672565b9050614097611271621baf806139e6878561361d565b83546001600160d01b0391909116600160301b0265ffffffffffff90911617835550505b6140c442613f42565b60018201805464ffffffffff191664ffffffffff929092169190911790556140f26112d742621baf8061361d565b815464ffffffffff919091166101000265ffffffffff00199091161790555050565b61416c846323b872dd60e01b8585856040516024016141359392919061564a565b60408051601f198184030181529190526020810180516001600160e01b03166001600160e01b031990931692909217909152615078565b50505050565b61417a6115ea565b6141965760405162461bcd60e51b8152600401610e16906157f2565b6065805460ff191690557f5db9ee0a495bf2e6ff9c91a7834c1ba4fdd244a5e8aa4e537bd38aeae4b073aa6141c9615107565b6040516141d69190615610565b60405180910390a1565b609754604051632474521560e21b81526001600160a01b03909116906391d1485490614212908490339060040161576b565b60206040518083038186803b15801561422a57600080fd5b505afa15801561423e573d6000803e3d6000fd5b505050506040513d601f19601f82011682018060405250810190614262919061551e565b612c295760405162461bcd60e51b8152600401610e1690615c4c565b612bda8363a9059cbb60e01b848460405160240161413592919061566e565b600054610100900460ff16806142b657506142b66136cc565b806142c4575060005460ff16155b6142e05760405162461bcd60e51b8152600401610e1690615a06565b600054610100900460ff1615801561430b576000805460ff1961ff0019909116610100171660011790555b6065805460ff191690558015612c29576000805461ff001916905550565b6143316115ea565b1561434e5760405162461bcd60e51b8152600401610e169061597c565b6065805460ff191660011790557f62e78cea01bee320cd4e420270b5ea74000d11b0c9f74754ebdbfc544b05a2586141c9615107565b60ad5460ff161561439457612c29565b6098546040516370a0823160e01b81526000916001600160a01b0316906370a08231906143c5903090600401615610565b60206040518083038186803b1580156143dd57600080fd5b505afa1580156143f1573d6000803e3d6000fd5b505050506040513d601f19601f820116820180604052508101906144159190615552565b9050600060aa60009054906101000a90046001600160a01b03166001600160a01b03166312065fe06040518163ffffffff1660e01b815260040160206040518083038186803b15801561446757600080fd5b505afa15801561447b573d6000803e3d6000fd5b505050506040513d601f19601f8201168201806040525081019061449f9190615552565b905060006144ad838361361d565b9050806144bc57505050612c29565b60006144ce826139e685612710613672565b905060006144ee60026139e660a85460a95461361d90919063ffffffff16565b905060006145078760a95461361d90919063ffffffff16565b9050600061451b60a8548960a85403614f3a565b9050818411156145aa57600061454161453a6127106139e68988613672565b88906136a9565b60aa54604051632e1a7d4d60e01b81529192506001600160a01b031690632e1a7d4d90614572908490600401615762565b600060405180830381600087803b15801561458c57600080fd5b505af11580156145a0573d6000803e3d6000fd5b505050505061464c565b8084101561464c5760006145c887613ed16127106139e68a89613672565b60aa546098549192506145e8916001600160a01b0390811691168361427e565b60aa60009054906101000a90046001600160a01b03166001600160a01b0316633a4b66f16040518163ffffffff1660e01b8152600401600060405180830381600087803b15801561463857600080fd5b505af1158015613df1573d6000803e3d6000fd5b5050505050505050565b600061466d621baf80613fd181610c0b4282613640565b60a080549192508290600019830183811061468457fe5b600091825260209091200154600160e01b900463ffffffff161015611f97575b60a0805483919060001981019081106146b957fe5b600091825260209091200154600160e01b900463ffffffff16146147775760006146f5621baf8060a0600160a0805490500381548110612d5557fe5b60408051808201909152600080825263ffffffff9283166020830190815260a08054600181018255925291517f78fdc8d422c49ced035a9edf18d00d3c6a8d81df210f3e5e448e045e77b41e8890910180549251909316600160e01b026001600160e01b039182166001600160e01b03199093169290921716179055506146a4565b60a75460a554146147895760a75460a5555b60a65460a45414611f975760a65460a4555050565b600083116147be5760405162461bcd60e51b8152600401610e169061588e565b60a4548211156147e05760405162461bcd60e51b8152600401610e16906158b6565b60ad5460ff16156148035760405162461bcd60e51b8152600401610e1690615b4f565b6001600160a01b038416600090815260a160205260409020614823614656565b60006148356127106139e68787613672565b9050600061485e60a45460001461484e5760a454614851565b60015b60a5546139e69088613672565b9050600061487461486f88856136a9565b61502f565b9050600061489561486f61488e6127106139e68c88613672565b8a9061361d565b85549091506148ad906001600160701b031683614f50565b85546001600160701b0319166001600160701b03918216178087556148db91600160701b9091041682614f50565b8554600160701b600160e01b031916600160701b6001600160701b0392831602178655609e5461490c91841661361d565b609e55609f54614925906001600160701b03831661361d565b609f55600061493b621baf80610c0b4282613640565b9050866149525761494f81621baf8061361d565b90505b60006149618262c1cc8061361d565b6001600160a01b038c16600090815260a260205260409020549091508015806149cb57506001600160a01b038c16600090815260a260205260409020805483919060001984019081106149b057fe5b600091825260209091200154600160e01b900463ffffffff16105b15614a7a576001600160a01b038c16600090815260a26020908152604080832081516060810183526001600160701b03808b16825289811682860190815263ffffffff808a16958401958652845460018101865594885295909620915191909201805495519351909416600160e01b026001600160e01b03938316600160701b02600160701b600160e01b0319929093166001600160701b031990961695909517161716919091179055614da7565b6001600160a01b038c16600090815260a26020526040902080548391906000198401908110614aa557fe5b600091825260209091200154600160e01b900463ffffffff161115614ac957600019015b6001600160a01b038c16600090815260a26020526040902080548391906000198401908110614af457fe5b600091825260209091200154600160e01b900463ffffffff161415614bb7576001600160a01b038c16600090815260a26020526040812080546000198401908110614b3b57fe5b60009182526020909120018054909150614b5e906001600160701b031687614f50565b81546001600160701b0319166001600160701b0391821617808355614b8c91600160701b9091041686614f50565b81546001600160701b0391909116600160701b02600160701b600160e01b0319909116179055614da7565b506001600160a01b038b16600090815260a260205260408120805491906000198301838110614be257fe5b90600052602060002001905060a260008e6001600160a01b03166001600160a01b0316815260200190815260200160002060405180606001604052808360000160009054906101000a90046001600160701b03166001600160701b0316815260200183600001600e9054906101000a90046001600160701b03166001600160701b0316815260200183600001601c9054906101000a900463ffffffff1663ffffffff168152509080600181540180825580915050600190039060005260206000200160009091909190915060008201518160000160006101000a8154816001600160701b0302191690836001600160701b03160217905550602082015181600001600e6101000a8154816001600160701b0302191690836001600160701b03160217905550604082015181600001601c6101000a81548163ffffffff021916908363ffffffff1602179055505050858160000160006101000a8154816001600160701b0302191690836001600160701b031602179055508481600001600e6101000a8154816001600160701b0302191690836001600160701b031602179055508281600001601c6101000a81548163ffffffff021916908363ffffffff160217905550505b60a054600019018915614db957600019015b600060a08281548110614dc857fe5b60009182526020909120018054909150614df4906001600160e01b03166001600160701b03881661510b565b81546001600160e01b0319166001600160e01b03919091161781558815614e325760a354609854614e32916001600160a01b0391821691168b61427e565b848e6001600160a01b03167f9cfd25589d1eb8ad71e342a86a8524e83522e3936c0803048c08f6d9ad974f408f8a8a604051614e7093929190615df3565b60405180910390a35050505050505050505050505050565b3b151590565b600054610100900460ff1680614ea75750614ea76136cc565b80614eb5575060005460ff16155b614ed15760405162461bcd60e51b8152600401610e1690615a06565b600054610100900460ff16158015614efc576000805460ff1961ff0019909116610100171660011790555b600180558015612c29576000805461ff001916905550565b600063ffffffff821115613f325760405162461bcd60e51b8152600401610e1690615bcb565b6000818310614f495781613fda565b5090919050565b8181016001600160701b038083169082161015610dcd5760405162461bcd60e51b8152600401610e16906159cf565b8082036001600160701b038084169082161115610dcd5760405162461bcd60e51b8152600401610e16906157c3565b6098546040516370a0823160e01b81526000916001600160a01b0316906370a0823190614fdf903090600401615610565b60206040518083038186803b158015614ff757600080fd5b505afa15801561500b573d6000803e3d6000fd5b505050506040513d601f19601f82011682018060405250810190612bda9190615552565b60006001600160701b03821115613f325760405162461bcd60e51b8152600401610e1690615a54565b61506182614fae565b609854612bda906001600160a01b0316848461427e565b60606150cd826040518060400160405280602081526020017f5361666545524332303a206c6f772d6c6576656c2063616c6c206661696c6564815250856001600160a01b031661513a9092919063ffffffff16565b805190915015612bda57808060200190518101906150eb919061551e565b612bda5760405162461bcd60e51b8152600401610e1690615c02565b3390565b8181016001600160e01b038083169082161015610dcd5760405162461bcd60e51b8152600401610e16906159cf565b6060613fd784846000858561514e85614e88565b61516a5760405162461bcd60e51b8152600401610e1690615b71565b60006060866001600160a01b0316858760405161518791906155f4565b60006040518083038185875af1925050503d80600081146151c4576040519150601f19603f3d011682016040523d82523d6000602084013e6151c9565b606091505b50915091506151d98282866151e4565b979650505050505050565b606083156151f3575081613fda565b8251156152035782518084602001fd5b8160405162461bcd60e51b8152600401610e169190615790565b604080516060810182526000808252602082018190529181019190915290565b828054600181600116156101000203166002900490600052602060002090601f016020900481019282601f1061527e5782800160ff198235161785556152ab565b828001600101855582156152ab579182015b828111156152ab578235825591602001919060010190615290565b50613f329291506152ce565b604080518082019091526000808252602082015290565b5b80821115613f3257600081556001016152cf565b60008083601f8401126152f4578182fd5b50813567ffffffffffffffff81111561530b578182fd5b60208301915083602082850101111561532357600080fd5b9250929050565b60006020828403121561533b578081fd5b8135613fda81615ece565b600060208284031215615357578081fd5b8151613fda81615ece565b60008060408385031215615374578081fd5b823561537f81615ece565b9150602083013561538f81615ece565b809150509250929050565b6000806000606084860312156153ae578081fd5b83356153b981615ece565b925060208401356153c981615ece565b915060408401356153d981615ee3565b809150509250925092565b600080600080600080608087890312156153fc578182fd5b863561540781615ece565b9550602087013561541781615ece565b9450604087013567ffffffffffffffff80821115615433578384fd5b61543f8a838b016152e3565b90965094506060890135915080821115615457578384fd5b5061546489828a016152e3565b979a9699509497509295939492505050565b60008060408385031215615488578182fd5b823561549381615ece565b9150602083013561538f81615ee3565b600080604083850312156154b5578182fd5b82356154c081615ece565b946020939093013593505050565b6000806000606084860312156154e2578283fd5b83356154ed81615ece565b95602085013595506040909401359392505050565b600060208284031215615513578081fd5b8135613fda81615ee3565b60006020828403121561552f578081fd5b8151613fda81615ee3565b60006020828403121561554b578081fd5b5035919050565b600060208284031215615563578081fd5b5051919050565b6000806040838503121561557c578182fd5b82359150602083013561538f81615ece565b600080604083850312156155a0578081fd5b50508035926020909101359150565b6000806000606084860312156155c3578081fd5b833592506020840135915060408401356153d981615ece565b80516001600160a01b03168252602090810151910152565b60008251615606818460208701615ea2565b9190910192915050565b6001600160a01b0391909116815260200190565b6001600160a01b0394909416845260208401929092526040830152606082015260800190565b6001600160a01b039384168152919092166020820152604081019190915260600190565b6001600160a01b03929092168252602082015260400190565b6020808252825182820181905260009190848201906040850190845b818110156156c85783516001600160a01b0316835292840192918401916001016156a3565b50909695505050505050565b602080825282518282018190526000919060409081850190868401855b82811015615714576157048483516155dc565b92840192908501906001016156f1565b5091979650505050505050565b901515815260200190565b941515855264ffffffffff93841660208601526001600160d01b0392831660408601529216606084015216608082015260a00190565b90815260200190565b9182526001600160a01b0316602082015260400190565b918252602082015260400190565b60006020825282518060208401526157af816040850160208701615ea2565b601f01601f19169190910160400192915050565b602080825260159082015274426f72696e674d6174683a20556e646572666c6f7760581b604082015260600190565b60208082526014908201527314185d5cd8589b194e881b9bdd081c185d5cd95960621b604082015260600190565b6020808252601c908201527f426f72696e674d6174683a2075696e74323038204f766572666c6f7700000000604082015260600190565b6020808252601c908201527f426f72696e674d6174683a206469766973696f6e206279207a65726f00000000604082015260600190565b6020808252600e908201526d043616e6e6f74207374616b6520360941b604082015260600190565b6020808252600e908201526d1bdd995c881b585e081cdc195b9960921b604082015260600190565b60208082526010908201526f1bdd995c881b585e081c185e5b595b9d60821b604082015260600190565b6020808252600d908201526c6f766572206d6178207261746560981b604082015260600190565b6020808252600c908201526b6e6f20657870206c6f636b7360a01b604082015260600190565b6020808252600d908201526c19db1bd8985b0b5c185d5cd959609a1b604082015260600190565b60208082526010908201526f14185d5cd8589b194e881c185d5cd95960821b604082015260600190565b6020808252600f908201526e696e76616c6964206164647265737360881b604082015260600190565b60208082526018908201527f426f72696e674d6174683a20416464204f766572666c6f770000000000000000604082015260600190565b6020808252602e908201527f496e697469616c697a61626c653a20636f6e747261637420697320616c72656160408201526d191e481a5b9a5d1a585b1a5e995960921b606082015260800190565b6020808252601c908201527f426f72696e674d6174683a2075696e74313132204f766572666c6f7700000000604082015260600190565b6020808252600c908201526b1b1bd8d85b0b5c185d5cd95960a21b604082015260600190565b602080825260099082015268139bc81c995dd85c9960ba1b604082015260600190565b60208082526007908201526610b0b9b9b4b3b760c91b604082015260600190565b6020808252601d908201527f43616e6e6f74207769746864726177207374616b696e6720746f6b656e000000604082015260600190565b6020808252600990820152686d696e2064656c617960b81b604082015260600190565b60208082526008908201526739b43aba3237bbb760c11b604082015260600190565b6020808252601d908201527f416464726573733a2063616c6c20746f206e6f6e2d636f6e7472616374000000604082015260600190565b6020808252600990820152686d696e2072616e676560b81b604082015260600190565b6020808252601b908201527f426f72696e674d6174683a2075696e743332204f766572666c6f770000000000604082015260600190565b6020808252602a908201527f5361666545524332303a204552433230206f7065726174696f6e20646964206e6040820152691bdd081cdd58d8d9595960b21b606082015260800190565b60208082526018908201527f4741433a20696e76616c69642d63616c6c65722d726f6c650000000000000000604082015260600190565b6020808252601c908201527f43616e6e6f742077697468647261772072657761726420746f6b656e00000000604082015260600190565b6020808252601f908201527f5265656e7472616e637947756172643a207265656e7472616e742063616c6c00604082015260600190565b6020808252600990820152686d61782072616e676560b81b604082015260600190565b60208082526018908201527f426f72696e674d6174683a204d756c204f766572666c6f770000000000000000604082015260600190565b6020808252601b908201527f426f72696e674d6174683a2075696e743430204f766572666c6f770000000000604082015260600190565b60408101610dcd82846155dc565b6001600160701b039290921682521515602082015260400190565b6001600160701b03938416815291909216602082015263ffffffff909116604082015260600190565b6001600160e01b0392909216825263ffffffff16602082015260400190565b9283526001600160701b03918216602084015216604082015260600190565b6000608082018683526020868185015260408681860152606060808187015283875180865260a0880191508489019550865b81811015615e8357865180516001600160701b03908116855287820151168785015285015163ffffffff16858401529585019591830191600101615e44565b50909b9a5050505050505050505050565b60ff91909116815260200190565b60005b83811015615ebd578181015183820152602001615ea5565b8381111561416c5750506000910152565b6001600160a01b0381168114612c2957600080fd5b8015158114612c2957600080fdfe32522ae3fcc93c551ea7d30f39aaf5cf6e316c65a500706f77e9ecdd09ee1136a164736f6c634300060c000a",
    "linkReferences": {}
  }
}