{
  "abi": [
    {
      "anonymous": false,
      "inputs": [
        {
          "indexed": true,
          "internalType": "address",
          "name": "_user",
          "type": "address"
        },
        {
          "indexed": true,
          "internalType": "address",
          "name": "_kicked",
          "type": "address"
        },
        {
          "indexed": false,
          "internalType": "uint256",
          "name": "_reward",
          "type": "uint256"
        }
      ],
      "name": "KickReward",
      "type": "event"
    },
    {
      "anonymous": false,
      "inputs": [
        {
          "indexed": true,
          "internalType": "address",
          "name": "previousOwner",
          "type": "address"
        },
        {
          "indexed": true,
          "internalType": "address",
          "name": "newOwner",
          "type": "address"
        }
      ],
      "name": "OwnershipTransferred",
      "type": "event"
    },
    {
      "anonymous": false,
      "inputs": [
        {
          "indexed": false,
          "internalType": "address",
          "name": "_token",
          "type": "address"
        },
        {
          "indexed": false,
          "internalType": "uint256",
          "name": "_amount",
          "type": "uint256"
        }
      ],
      "name": "Recovered",
      "type": "event"
    },
    {
      "anonymous": false,
      "inputs": [
        {
          "indexed": true,
          "internalType": "address",
          "name": "_token",
          "type": "address"
        },
        {
          "indexed": false,
          "internalType": "uint256",
          "name": "_reward",
          "type": "uint256"
        }
      ],
      "name": "RewardAdded",
      "type": "event"
    },
    {
      "anonymous": false,
      "inputs": [
        {
          "indexed": true,
          "internalType": "address",
          "name": "_user",
          "type": "address"
        },
        {
          "indexed": true,
          "internalType": "address",
          "name": "_rewardsToken",
          "type": "address"
        },
        {
          "indexed": false,
          "internalType": "uint256",
          "name": "_reward",
          "type": "uint256"
        }
      ],
      "name": "RewardPaid",
      "type": "event"
    },
    {
      "anonymous": false,
      "inputs": [
        {
          "indexed": true,
          "internalType": "address",
          "name": "_user",
          "type": "address"
        },
        {
          "indexed": true,
          "internalType": "uint256",
          "name": "_epoch",
          "type": "uint256"
        },
        {
          "indexed": false,
          "internalType": "uint256",
          "name": "_paidAmount",
          "type": "uint256"
        },
        {
          "indexed": false,
          "internalType": "uint256",
          "name": "_lockedAmount",
          "type": "uint256"
        },
        {
          "indexed": false,
          "internalType": "uint256",
          "name": "_boostedAmount",
          "type": "uint256"
        }
      ],
      "name": "Staked",
      "type": "event"
    },
    {
      "anonymous": false,
      "inputs": [
        {
          "indexed": true,
          "internalType": "address",
          "name": "_user",
          "type": "address"
        },
        {
          "indexed": false,
          "internalType": "uint256",
          "name": "_amount",
          "type": "uint256"
        },
        {
          "indexed": false,
          "internalType": "bool",
          "name": "_relocked",
          "type": "bool"
        }
      ],
      "name": "Withdrawn",
      "type": "event"
    },
    {
      "inputs": [
        {
          "internalType": "address",
          "name": "_rewardsToken",
          "type": "address"
        },
        {
          "internalType": "address",
          "name": "_distributor",
          "type": "address"
        },
        {
          "internalType": "bool",
          "name": "_useBoost",
          "type": "bool"
        }
      ],
      "name": "addReward",
      "outputs": [],
      "stateMutability": "nonpayable",
      "type": "function"
    },
    {
      "inputs": [
        {
          "internalType": "address",
          "name": "_rewardsToken",
          "type": "address"
        },
        {
          "internalType": "address",
          "name": "_distributor",
          "type": "address"
        },
        {
          "internalType": "bool",
          "name": "_approved",
          "type": "bool"
        }
      ],
      "name": "approveRewardDistributor",
      "outputs": [],
      "stateMutability": "nonpayable",
      "type": "function"
    },
    {
      "inputs": [
        {
          "internalType": "uint256",
          "name": "_epoch",
          "type": "uint256"
        },
        {
          "internalType": "address",
          "name": "_user",
          "type": "address"
        }
      ],
      "name": "balanceAtEpochOf",
      "outputs": [
        {
          "internalType": "uint256",
          "name": "amount",
          "type": "uint256"
        }
      ],
      "stateMutability": "view",
      "type": "function"
    },
    {
      "inputs": [
        {
          "internalType": "address",
          "name": "_user",
          "type": "address"
        }
      ],
      "name": "balanceOf",
      "outputs": [
        {
          "internalType": "uint256",
          "name": "amount",
          "type": "uint256"
        }
      ],
      "stateMutability": "view",
      "type": "function"
    },
    {
      "inputs": [
        {
          "internalType": "address",
          "name": "",
          "type": "address"
        }
      ],
      "name": "balances",
      "outputs": [
        {
          "internalType": "uint112",
          "name": "locked",
          "type": "uint112"
        },
        {
          "internalType": "uint112",
          "name": "boosted",
          "type": "uint112"
        },
        {
          "internalType": "uint32",
          "name": "nextUnlockIndex",
          "type": "uint32"
        }
      ],
      "stateMutability": "view",
      "type": "function"
    },
    {
      "inputs": [],
      "name": "boostPayment",
      "outputs": [
        {
          "internalType": "address",
          "name": "",
          "type": "address"
        }
      ],
      "stateMutability": "view",
      "type": "function"
    },
    {
      "inputs": [],
      "name": "boostRate",
      "outputs": [
        {
          "internalType": "uint256",
          "name": "",
          "type": "uint256"
        }
      ],
      "stateMutability": "view",
      "type": "function"
    },
    {
      "inputs": [],
      "name": "boostedSupply",
      "outputs": [
        {
          "internalType": "uint256",
          "name": "",
          "type": "uint256"
        }
      ],
      "stateMutability": "view",
      "type": "function"
    },
    {
      "inputs": [],
      "name": "checkpointEpoch",
      "outputs": [],
      "stateMutability": "nonpayable",
      "type": "function"
    },
    {
      "inputs": [
        {
          "internalType": "address",
          "name": "_account",
          "type": "address"
        }
      ],
      "name": "claimableRewards",
      "outputs": [
        {
          "components": [
            {
              "internalType": "address",
              "name": "token",
              "type": "address"
            },
            {
              "internalType": "uint256",
              "name": "amount",
              "type": "uint256"
            }
          ],
          "internalType": "struct StakedCitadelLocker.EarnedData[]",
          "name": "userRewards",
          "type": "tuple[]"
        }
      ],
      "stateMutability": "view",
      "type": "function"
    },
    {
      "inputs": [],
      "name": "decimals",
      "outputs": [
        {
          "internalType": "uint8",
          "name": "",
          "type": "uint8"
        }
      ],
      "stateMutability": "view",
      "type": "function"
    },
    {
      "inputs": [],
      "name": "denominator",
      "outputs": [
        {
          "internalType": "uint256",
          "name": "",
          "type": "uint256"
        }
      ],
      "stateMutability": "view",
      "type": "function"
    },
    {
      "inputs": [],
      "name": "epochCount",
      "outputs": [
        {
          "internalType": "uint256",
          "name": "",
          "type": "uint256"
        }
      ],
      "stateMutability": "view",
      "type": "function"
    },
    {
      "inputs": [
        {
          "internalType": "uint256",
          "name": "",
          "type": "uint256"
        }
      ],
      "name": "epochs",
      "outputs": [
        {
          "internalType": "uint224",
          "name": "supply",
          "type": "uint224"
        },
        {
          "internalType": "uint32",
          "name": "date",
          "type": "uint32"
        }
      ],
      "stateMutability": "view",
      "type": "function"
    },
    {
      "inputs": [
        {
          "internalType": "uint256",
          "name": "_time",
          "type": "uint256"
        }
      ],
      "name": "findEpochId",
      "outputs": [
        {
          "internalType": "uint256",
          "name": "epoch",
          "type": "uint256"
        }
      ],
      "stateMutability": "view",
      "type": "function"
    },
    {
      "inputs": [
        {
          "internalType": "address",
          "name": "_account",
          "type": "address"
        },
        {
          "internalType": "bool",
          "name": "_stake",
          "type": "bool"
        }
      ],
      "name": "getReward",
      "outputs": [],
      "stateMutability": "nonpayable",
      "type": "function"
    },
    {
      "inputs": [
        {
          "internalType": "address",
          "name": "_account",
          "type": "address"
        }
      ],
      "name": "getReward",
      "outputs": [],
      "stateMutability": "nonpayable",
      "type": "function"
    },
    {
      "inputs": [
        {
          "internalType": "address",
          "name": "_rewardsToken",
          "type": "address"
        }
      ],
      "name": "getRewardForDuration",
      "outputs": [
        {
          "internalType": "uint256",
          "name": "",
          "type": "uint256"
        }
      ],
      "stateMutability": "view",
      "type": "function"
    },
    {
      "inputs": [],
      "name": "getRewardTokens",
      "outputs": [
        {
          "internalType": "address[]",
          "name": "",
          "type": "address[]"
        }
      ],
      "stateMutability": "view",
      "type": "function"
    },
    {
      "inputs": [
        {
          "internalType": "address",
          "name": "_stakingToken",
          "type": "address"
        },
        {
          "internalType": "string",
          "name": "name",
          "type": "string"
        },
        {
          "internalType": "string",
          "name": "symbol",
          "type": "string"
        }
      ],
      "name": "initialize",
      "outputs": [],
      "stateMutability": "nonpayable",
      "type": "function"
    },
    {
      "inputs": [],
      "name": "isShutdown",
      "outputs": [
        {
          "internalType": "bool",
          "name": "",
          "type": "bool"
        }
      ],
      "stateMutability": "view",
      "type": "function"
    },
    {
      "inputs": [
        {
          "internalType": "address",
          "name": "_account",
          "type": "address"
        }
      ],
      "name": "kickExpiredLocks",
      "outputs": [],
      "stateMutability": "nonpayable",
      "type": "function"
    },
    {
      "inputs": [],
      "name": "kickRewardEpochDelay",
      "outputs": [
        {
          "internalType": "uint256",
          "name": "",
          "type": "uint256"
        }
      ],
      "stateMutability": "view",
      "type": "function"
    },
    {
      "inputs": [],
      "name": "kickRewardPerEpoch",
      "outputs": [
        {
          "internalType": "uint256",
          "name": "",
          "type": "uint256"
        }
      ],
      "stateMutability": "view",
      "type": "function"
    },
    {
      "inputs": [
        {
          "internalType": "address",
          "name": "_rewardsToken",
          "type": "address"
        }
      ],
      "name": "lastTimeRewardApplicable",
      "outputs": [
        {
          "internalType": "uint256",
          "name": "",
          "type": "uint256"
        }
      ],
      "stateMutability": "view",
      "type": "function"
    },
    {
      "inputs": [
        {
          "internalType": "address",
          "name": "_account",
          "type": "address"
        },
        {
          "internalType": "uint256",
          "name": "_amount",
          "type": "uint256"
        },
        {
          "internalType": "uint256",
          "name": "_spendRatio",
          "type": "uint256"
        }
      ],
      "name": "lock",
      "outputs": [],
      "stateMutability": "nonpayable",
      "type": "function"
    },
    {
      "inputs": [],
      "name": "lockDuration",
      "outputs": [
        {
          "internalType": "uint256",
          "name": "",
          "type": "uint256"
        }
      ],
      "stateMutability": "view",
      "type": "function"
    },
    {
      "inputs": [
        {
          "internalType": "address",
          "name": "_user",
          "type": "address"
        }
      ],
      "name": "lockedBalanceOf",
      "outputs": [
        {
          "internalType": "uint256",
          "name": "amount",
          "type": "uint256"
        }
      ],
      "stateMutability": "view",
      "type": "function"
    },
    {
      "inputs": [
        {
          "internalType": "address",
          "name": "_user",
          "type": "address"
        }
      ],
      "name": "lockedBalances",
      "outputs": [
        {
          "internalType": "uint256",
          "name": "total",
          "type": "uint256"
        },
        {
          "internalType": "uint256",
          "name": "unlockable",
          "type": "uint256"
        },
        {
          "internalType": "uint256",
          "name": "locked",
          "type": "uint256"
        },
        {
          "components": [
            {
              "internalType": "uint112",
              "name": "amount",
              "type": "uint112"
            },
            {
              "internalType": "uint112",
              "name": "boosted",
              "type": "uint112"
            },
            {
              "internalType": "uint32",
              "name": "unlockTime",
              "type": "uint32"
            }
          ],
          "internalType": "struct StakedCitadelLocker.LockedBalance[]",
          "name": "lockData",
          "type": "tuple[]"
        }
      ],
      "stateMutability": "view",
      "type": "function"
    },
    {
      "inputs": [],
      "name": "lockedSupply",
      "outputs": [
        {
          "internalType": "uint256",
          "name": "",
          "type": "uint256"
        }
      ],
      "stateMutability": "view",
      "type": "function"
    },
    {
      "inputs": [],
      "name": "maximumBoostPayment",
      "outputs": [
        {
          "internalType": "uint256",
          "name": "",
          "type": "uint256"
        }
      ],
      "stateMutability": "view",
      "type": "function"
    },
    {
      "inputs": [],
      "name": "maximumStake",
      "outputs": [
        {
          "internalType": "uint256",
          "name": "",
          "type": "uint256"
        }
      ],
      "stateMutability": "view",
      "type": "function"
    },
    {
      "inputs": [],
      "name": "minimumStake",
      "outputs": [
        {
          "internalType": "uint256",
          "name": "",
          "type": "uint256"
        }
      ],
      "stateMutability": "view",
      "type": "function"
    },
    {
      "inputs": [],
      "name": "name",
      "outputs": [
        {
          "internalType": "string",
          "name": "",
          "type": "string"
        }
      ],
      "stateMutability": "view",
      "type": "function"
    },
    {
      "inputs": [],
      "name": "nextBoostRate",
      "outputs": [
        {
          "internalType": "uint256",
          "name": "",
          "type": "uint256"
        }
      ],
      "stateMutability": "view",
      "type": "function"
    },
    {
      "inputs": [],
      "name": "nextMaximumBoostPayment",
      "outputs": [
        {
          "internalType": "uint256",
          "name": "",
          "type": "uint256"
        }
      ],
      "stateMutability": "view",
      "type": "function"
    },
    {
      "inputs": [
        {
          "internalType": "address",
          "name": "_rewardsToken",
          "type": "address"
        },
        {
          "internalType": "uint256",
          "name": "_reward",
          "type": "uint256"
        }
      ],
      "name": "notifyRewardAmount",
      "outputs": [],
      "stateMutability": "nonpayable",
      "type": "function"
    },
    {
      "inputs": [],
      "name": "owner",
      "outputs": [
        {
          "internalType": "address",
          "name": "",
          "type": "address"
        }
      ],
      "stateMutability": "view",
      "type": "function"
    },
    {
      "inputs": [
        {
          "internalType": "uint256",
          "name": "_epoch",
          "type": "uint256"
        },
        {
          "internalType": "address",
          "name": "_user",
          "type": "address"
        }
      ],
      "name": "pendingLockAtEpochOf",
      "outputs": [
        {
          "internalType": "uint256",
          "name": "amount",
          "type": "uint256"
        }
      ],
      "stateMutability": "view",
      "type": "function"
    },
    {
      "inputs": [
        {
          "internalType": "address",
          "name": "_user",
          "type": "address"
        }
      ],
      "name": "pendingLockOf",
      "outputs": [
        {
          "internalType": "uint256",
          "name": "amount",
          "type": "uint256"
        }
      ],
      "stateMutability": "view",
      "type": "function"
    },
    {
      "inputs": [
        {
          "internalType": "bool",
          "name": "_relock",
          "type": "bool"
        }
      ],
      "name": "processExpiredLocks",
      "outputs": [],
      "stateMutability": "nonpayable",
      "type": "function"
    },
    {
      "inputs": [
        {
          "internalType": "address",
          "name": "_tokenAddress",
          "type": "address"
        },
        {
          "internalType": "uint256",
          "name": "_tokenAmount",
          "type": "uint256"
        }
      ],
      "name": "recoverERC20",
      "outputs": [],
      "stateMutability": "nonpayable",
      "type": "function"
    },
    {
      "inputs": [],
      "name": "renounceOwnership",
      "outputs": [],
      "stateMutability": "nonpayable",
      "type": "function"
    },
    {
      "inputs": [
        {
          "internalType": "address",
          "name": "",
          "type": "address"
        }
      ],
      "name": "rewardData",
      "outputs": [
        {
          "internalType": "bool",
          "name": "useBoost",
          "type": "bool"
        },
        {
          "internalType": "uint40",
          "name": "periodFinish",
          "type": "uint40"
        },
        {
          "internalType": "uint208",
          "name": "rewardRate",
          "type": "uint208"
        },
        {
          "internalType": "uint40",
          "name": "lastUpdateTime",
          "type": "uint40"
        },
        {
          "internalType": "uint208",
          "name": "rewardPerTokenStored",
          "type": "uint208"
        }
      ],
      "stateMutability": "view",
      "type": "function"
    },
    {
      "inputs": [
        {
          "internalType": "address",
          "name": "",
          "type": "address"
        },
        {
          "internalType": "address",
          "name": "",
          "type": "address"
        }
      ],
      "name": "rewardDistributors",
      "outputs": [
        {
          "internalType": "bool",
          "name": "",
          "type": "bool"
        }
      ],
      "stateMutability": "view",
      "type": "function"
    },
    {
      "inputs": [
        {
          "internalType": "address",
          "name": "_rewardsToken",
          "type": "address"
        }
      ],
      "name": "rewardPerToken",
      "outputs": [
        {
          "internalType": "uint256",
          "name": "",
          "type": "uint256"
        }
      ],
      "stateMutability": "view",
      "type": "function"
    },
    {
      "inputs": [
        {
          "internalType": "uint256",
          "name": "",
          "type": "uint256"
        }
      ],
      "name": "rewardTokens",
      "outputs": [
        {
          "internalType": "address",
          "name": "",
          "type": "address"
        }
      ],
      "stateMutability": "view",
      "type": "function"
    },
    {
      "inputs": [
        {
          "internalType": "address",
          "name": "_user",
          "type": "address"
        }
      ],
      "name": "rewardWeightOf",
      "outputs": [
        {
          "internalType": "uint256",
          "name": "amount",
          "type": "uint256"
        }
      ],
      "stateMutability": "view",
      "type": "function"
    },
    {
      "inputs": [
        {
          "internalType": "address",
          "name": "",
          "type": "address"
        },
        {
          "internalType": "address",
          "name": "",
          "type": "address"
        }
      ],
      "name": "rewards",
      "outputs": [
        {
          "internalType": "uint256",
          "name": "",
          "type": "uint256"
        }
      ],
      "stateMutability": "view",
      "type": "function"
    },
    {
      "inputs": [],
      "name": "rewardsDuration",
      "outputs": [
        {
          "internalType": "uint256",
          "name": "",
          "type": "uint256"
        }
      ],
      "stateMutability": "view",
      "type": "function"
    },
    {
      "inputs": [
        {
          "internalType": "uint256",
          "name": "_max",
          "type": "uint256"
        },
        {
          "internalType": "uint256",
          "name": "_rate",
          "type": "uint256"
        },
        {
          "internalType": "address",
          "name": "_receivingAddress",
          "type": "address"
        }
      ],
      "name": "setBoost",
      "outputs": [],
      "stateMutability": "nonpayable",
      "type": "function"
    },
    {
      "inputs": [
        {
          "internalType": "uint256",
          "name": "_rate",
          "type": "uint256"
        },
        {
          "internalType": "uint256",
          "name": "_delay",
          "type": "uint256"
        }
      ],
      "name": "setKickIncentive",
      "outputs": [],
      "stateMutability": "nonpayable",
      "type": "function"
    },
    {
      "inputs": [
        {
          "internalType": "uint256",
          "name": "_minimum",
          "type": "uint256"
        },
        {
          "internalType": "uint256",
          "name": "_maximum",
          "type": "uint256"
        }
      ],
      "name": "setStakeLimits",
      "outputs": [],
      "stateMutability": "nonpayable",
      "type": "function"
    },
    {
      "inputs": [
        {
          "internalType": "address",
          "name": "_staking",
          "type": "address"
        }
      ],
      "name": "setStakingContract",
      "outputs": [],
      "stateMutability": "nonpayable",
      "type": "function"
    },
    {
      "inputs": [],
      "name": "shutdown",
      "outputs": [],
      "stateMutability": "nonpayable",
      "type": "function"
    },
    {
      "inputs": [],
      "name": "stakeOffsetOnLock",
      "outputs": [
        {
          "internalType": "uint256",
          "name": "",
          "type": "uint256"
        }
      ],
      "stateMutability": "view",
      "type": "function"
    },
    {
      "inputs": [],
      "name": "stakingProxy",
      "outputs": [
        {
          "internalType": "address",
          "name": "",
          "type": "address"
        }
      ],
      "stateMutability": "view",
      "type": "function"
    },
    {
      "inputs": [],
      "name": "stakingToken",
      "outputs": [
        {
          "internalType": "contract IERC20Upgradeable",
          "name": "",
          "type": "address"
        }
      ],
      "stateMutability": "view",
      "type": "function"
    },
    {
      "inputs": [],
      "name": "symbol",
      "outputs": [
        {
          "internalType": "string",
          "name": "",
          "type": "string"
        }
      ],
      "stateMutability": "view",
      "type": "function"
    },
    {
      "inputs": [],
      "name": "totalSupply",
      "outputs": [
        {
          "internalType": "uint256",
          "name": "supply",
          "type": "uint256"
        }
      ],
      "stateMutability": "view",
      "type": "function"
    },
    {
      "inputs": [
        {
          "internalType": "uint256",
          "name": "_epoch",
          "type": "uint256"
        }
      ],
      "name": "totalSupplyAtEpoch",
      "outputs": [
        {
          "internalType": "uint256",
          "name": "supply",
          "type": "uint256"
        }
      ],
      "stateMutability": "view",
      "type": "function"
    },
    {
      "inputs": [
        {
          "internalType": "address",
          "name": "newOwner",
          "type": "address"
        }
      ],
      "name": "transferOwnership",
      "outputs": [],
      "stateMutability": "nonpayable",
      "type": "function"
    },
    {
      "inputs": [
        {
          "internalType": "address",
          "name": "",
          "type": "address"
        },
        {
          "internalType": "uint256",
          "name": "",
          "type": "uint256"
        }
      ],
      "name": "userLocks",
      "outputs": [
        {
          "internalType": "uint112",
          "name": "amount",
          "type": "uint112"
        },
        {
          "internalType": "uint112",
          "name": "boosted",
          "type": "uint112"
        },
        {
          "internalType": "uint32",
          "name": "unlockTime",
          "type": "uint32"
        }
      ],
      "stateMutability": "view",
      "type": "function"
    },
    {
      "inputs": [
        {
          "internalType": "address",
          "name": "",
          "type": "address"
        },
        {
          "internalType": "address",
          "name": "",
          "type": "address"
        }
      ],
      "name": "userRewardPerTokenPaid",
      "outputs": [
        {
          "internalType": "uint256",
          "name": "",
          "type": "uint256"
        }
      ],
      "stateMutability": "view",
      "type": "function"
    },
    {
      "inputs": [],
      "name": "version",
      "outputs": [
        {
          "internalType": "uint256",
          "name": "",
          "type": "uint256"
        }
      ],
      "stateMutability": "view",
      "type": "function"
    },
    {
      "inputs": [
        {
          "internalType": "address",
          "name": "_withdrawTo",
          "type": "address"
        }
      ],
      "name": "withdrawExpiredLocksTo",
      "outputs": [],
      "stateMutability": "nonpayable",
      "type": "function"
    }
  ],
  "bytecode": {
    "object": "0x608060405260a280546001600160a01b0319908116909155600060a381905561271060a481905560a59190915560a681905560a781905560a85560a980549091169055606460aa55600460ab5560ac805460ff1916905534801561006257600080fd5b50614e84806100726000396000f3fe608060405234801561001057600080fd5b50600436106103e65760003560e01c80638c9bd1b51161020a578063c00007b011610125578063dc01f60d116100b8578063ec5ffac211610087578063ec5ffac2146107ed578063f1229777146107f5578063f2fde38b14610808578063f82615971461081b578063fc0e74d11461082e576103e6565b8063dc01f60d1461079f578063e2ab691d146107bf578063e432488d146107d2578063e70b9e27146107da576103e6565b8063ca5c7b91116100f4578063ca5c7b911461075e578063cb1b9a7414610766578063d36f12fb14610779578063d3c45c761461078c576103e6565b8063c00007b01461070d578063c1009f4b14610720578063c4f59f9b14610728578063c6b61e4c1461073d576103e6565b8063a98e05bb1161019d578063b5ed7a661161016c578063b5ed7a66146106d7578063b66503cf146106df578063bcd11014146106f2578063bf86d69014610705576103e6565b8063a98e05bb146106ac578063aa33fedb146106b4578063b187bc22146106c7578063b5c6b453146106cf576103e6565b806396ce0795116101d957806396ce0795146106765780639bdc74671461067e5780639dd373b914610686578063a81653c914610699576103e6565b80638c9bd1b5146106405780638da5cb5b14610653578063906571471461065b57806395d89b411461066e576103e6565b8063638634ee1161030557806370b36d79116102985780637bb7bed1116102675780637bb7bed1146105f75780637bd48c7c1461060a578063829965cc14610612578063887c7dc51461061a5780638980f11f1461062d576103e6565b806370b36d79146105cc578063715018a6146105df57806372f702f3146105e757806375aadf61146105ef576103e6565b806368edd2bb116102d457806368edd2bb146105805780637035ab98146105935780637050ccd9146105a657806370a08231146105b9576103e6565b8063638634ee1461053f57806363f1c8e214610552578063648bb8ad146105655780636724c9101461056d576103e6565b80632fe871081161037d57806339fc97131161034c57806339fc9713146104e057806348e5d9f81461050057806354fd4d5014610524578063593557361461052c576103e6565b80632fe871081461049b578063312ff839146104ae578063313ce567146104c3578063386a9525146104d8576103e6565b80631c607395116103b95780631c6073951461044957806322f80d111461045c57806327e235e3146104715780632e9564e414610493576103e6565b806304554443146103eb5780630483a7f61461040957806306fdde031461042c57806318160ddd14610441575b600080fd5b6103f3610836565b6040516104009190614d70565b60405180910390f35b61041c6104173660046143a3565b61083d565b6040516104009493929190614d98565b610434610a03565b604051610400919061477c565b6103f3610a99565b6103f36104573660046145b8565b610b6f565b610464610c7b565b6040516104009190614645565b61048461047f3660046143a3565b610c8a565b60405161040093929190614d28565b6103f3610cc0565b6103f36104a93660046143a3565b610cc6565b6104c16104bc366004614550565b610cf5565b005b6104cb610d3c565b6040516104009190614e1a565b6103f3610d45565b6104f36104ee3660046143be565b610d4c565b604051610400919061473b565b61051361050e3660046143a3565b610d6c565b604051610400959493929190614746565b6103f3610db8565b6103f361053a3660046143a3565b610dbd565b6103f361054d3660046143a3565b610de1565b6104c16105603660046145db565b610e0f565b6103f3610e9c565b6104c161057b3660046143f2565b610ea2565b6103f361058e3660046143a3565b610f47565b6103f36105a13660046143be565b610fe5565b6104c16105b436600461443c565b611002565b6103f36105c73660046143a3565b6112d2565b6103f36105da366004614588565b6113f9565b6104c16114d0565b610464611559565b6103f3611568565b610464610605366004614588565b61156e565b6103f3611595565b6103f361159b565b6104c16106283660046143a3565b6115a1565b6104c161063b3660046144f3565b6115f2565b6104c161064e3660046145db565b6116f8565b6104646117b3565b6104c1610669366004614473565b6117c2565b610434611946565b6103f36119a7565b6103f36119ad565b6104c16106943660046143a3565b6119b3565b6104c16106a73660046145fc565b611a3d565b610464611b0e565b6104846106c23660046144f3565b611b1d565b6103f3611b69565b6103f3611b6f565b6103f3611b75565b6104c16106ed3660046144f3565b611b7b565b6103f36107003660046143a3565b611ded565b6104f3611e23565b6104c161071b3660046143a3565b611e2c565b6104c1611e3a565b610730611e44565b6040516104009190614696565b61075061074b366004614588565b611ef8565b604051610400929190614d51565b6103f3611f2d565b6103f36107743660046145b8565b611f33565b6104c16107873660046143a3565b612018565b6104c161079a3660046143f2565b61204f565b6107b26107ad3660046143a3565b612174565b60405161040091906146e3565b6104c16107cd36600461451d565b6122ad565b6103f36124a7565b6103f36107e83660046143be565b6124ad565b6103f36124ca565b6103f36108033660046143a3565b6124d0565b6104c16108163660046143a3565b6124db565b6103f3610829366004614588565b61259c565b6104c1612646565b62c1cc8081565b6001600160a01b038116600090815260a16020908152604080832060a09092528220805483928392606092600160e01b900463ffffffff1684815b84548110156109eb574285828154811061088e57fe5b600091825260209091200154600160e01b900463ffffffff1611156109b5578161090b57845481900367ffffffffffffffff811180156108cd57600080fd5b5060405190808252806020026020018201604052801561090757816020015b6108f461427f565b8152602001906001900390816108ec5790505b5095505b84818154811061091757fe5b60009182526020918290206040805160608101825291909201546001600160701b038082168352600160701b8204169382019390935263ffffffff600160e01b9093049290921690820152865187908490811061097057fe5b602002602001018190525081806001019250506109ae85828154811061099257fe5b60009182526020909120015488906001600160701b0316612694565b96506109e3565b6109e08582815481106109c457fe5b60009182526020909120015489906001600160701b0316612694565b97505b600101610878565b505090546001600160701b0316955050509193509193565b60ad8054604080516020601f6002600019610100600188161502019095169490940493840181900481028201810190925282815260609390929091830182828015610a8f5780601f10610a6457610100808354040283529160200191610a8f565b820191906000526020600020905b815481529060010190602001808311610a7257829003601f168201915b5050505050905090565b600080610ab362015180610aad42826126b7565b906126e9565b90506000610ac48262c1cc80612720565b609f805491925083906000198301838110610adb57fe5b600091825260209091200154600160e01b900463ffffffff161115610aff57600019015b60001981015b6001810115610b68576000609f8281548110610b1d57fe5b60009182526020909120018054909150600160e01b900463ffffffff168410610b465750610b68565b8054610b5c9087906001600160e01b0316612694565b95505060001901610b05565b5050505090565b6001600160a01b038116600090815260a160205260408120609f805483919086908110610b9857fe5b600091825260208220015463ffffffff600160e01b90910481169250610bc590839062c1cc809061272016565b8354909150600019015b6001810115610c70576000610c1662015180600702601502868481548110610bf357fe5b60009182526020909120015463ffffffff600160e01b9091048116919061272016565b9050838111610c665782811115610c6057610c59858381548110610c3657fe5b6000918252602090912001548790600160701b90046001600160701b0316612694565b9550610c66565b50610c70565b5060001901610bcf565b505050505b92915050565b60a9546001600160a01b031681565b60a0602052600090815260409020546001600160701b0380821691600160701b810490911690600160e01b900463ffffffff1683565b60a45481565b6001600160a01b038116600090815260a06020526040902054600160701b90046001600160701b03165b919050565b60026001541415610d215760405162461bcd60e51b8152600401610d1890614c45565b60405180910390fd5b6002600155610d3533826000828082612743565b5060018055565b60af5460ff1690565b6201518081565b609a60209081526000928352604080842090915290825290205460ff1681565b6099602052600090815260409020805460019091015460ff82169164ffffffffff61010082048116926001600160d01b03600160301b90930483169291811691600160281b9091041685565b600290565b6001600160a01b0316600090815260a060205260409020546001600160701b031690565b6001600160a01b038116600090815260996020526040812054610c7590610100900464ffffffffff16612ddc565b610e17612de8565b6001600160a01b0316610e286117b3565b6001600160a01b031614610e4e5760405162461bcd60e51b8152600401610d1890614a82565b6101f4821115610e705760405162461bcd60e51b8152600401610d189061490c565b6002811015610e915760405162461bcd60e51b8152600401610d1890614aee565b60aa9190915560ab55565b6101f481565b610eaa612de8565b6001600160a01b0316610ebb6117b3565b6001600160a01b031614610ee15760405162461bcd60e51b8152600401610d1890614a82565b6001600160a01b03831660009081526099602052604090206001015464ffffffffff16610f0d57600080fd5b6001600160a01b039283166000908152609a6020908152604080832094909516825292909252919020805460ff1916911515919091179055565b6001600160a01b038116600090815260a160205260408120805482610f7362015180610aad42826126b7565b9050600082118015610f9f575080610f9d62015180600702601502856001860381548110610bf357fe5b115b15610fda57826001830381548110610fb357fe5b600091825260209091200154600160701b90046001600160701b03169350610cf092505050565b506000949350505050565b609b60209081526000928352604080842090915290825290205481565b600260015414156110255760405162461bcd60e51b8152600401610d1890614c45565b60026001556001600160a01b038216600090815260a06020526040812080548492600160701b9091046001600160701b0316905b6098548110156111e55760006098828154811061107257fe5b6000918252602090912001546001600160a01b0316905061109a61109582612dec565b612ef5565b6001600160a01b03821660009081526099602052604090206001810180546001600160d01b0393909316600160281b02600160281b600160f81b03199093169290921790915554611100906110fb9064ffffffffff61010090910416612ddc565b612f22565b6001600160a01b038281166000908152609960205260409020600101805464ffffffffff191664ffffffffff93909316929092179091558516156111dc576001600160a01b03811660009081526099602052604090205461117d908690839060ff166111765786546001600160701b0316611178565b855b612f49565b6001600160a01b038681166000818152609c60209081526040808320948716808452948252808320959095556099815284822060010154928252609b815284822093825292909252919020600160281b9091046001600160d01b031690555b50600101611059565b50505060005b6098548110156112c85760006098828154811061120457fe5b60009182526020808320909101546001600160a01b038881168452609c835260408085209190921680855292529091205490915080156112be576001600160a01b038087166000908152609c6020908152604080832093861680845293909152812055611272908783612fc1565b816001600160a01b0316866001600160a01b03167f540798df468d7b23d11f156fdb954cb19ad414d150722a7b6d55ba369dea792e836040516112b59190614d70565b60405180910390a35b50506001016111eb565b5050600180555050565b6001600160a01b038116600090815260a16020908152604080832060a090925290912080548254600160701b82046001600160701b0316939291600160e01b900463ffffffff1690815b81811015611395574285828154811061133157fe5b600091825260209091200154600160e01b900463ffffffff16116113885761138185828154811061135e57fe5b6000918252602090912001548790600160701b90046001600160701b0316612720565b955061138d565b611395565b60010161131c565b5060006113a962015180610aad42826126b7565b90506000821180156113d55750806113d362015180600702601502876001860381548110610bf357fe5b115b156113ef576113ec85600184038154811061135e57fe5b95505b5050505050919050565b60008061143a62015180610aad62015180609f878154811061141757fe5b60009182526020909120015463ffffffff600160e01b909104811691906126b716565b9050600061144b8262c1cc80612720565b9050835b60018101156114c8576000609f828154811061146757fe5b60009182526020909120018054909150600160e01b900463ffffffff16831061149057506114c8565b6114bc609f83815481106114a057fe5b60009182526020909120015486906001600160e01b0316612694565b9450506000190161144f565b505050919050565b6114d8612de8565b6001600160a01b03166114e96117b3565b6001600160a01b03161461150f5760405162461bcd60e51b8152600401610d1890614a82565b6065546040516000916001600160a01b0316907f8be0079c531659141344cd1fd0a4f28419497f9722a3daafe3b4186f6b6457e0908390a3606580546001600160a01b0319169055565b6097546001600160a01b031681565b609e5481565b6098818154811061157b57fe5b6000918252602090912001546001600160a01b0316905081565b60a55481565b609f5490565b600260015414156115c45760405162461bcd60e51b8152600401610d1890614c45565b6002600181905550610d358160008084336115ed60ab54620151806126e990919063ffffffff16565b612743565b6115fa612de8565b6001600160a01b031661160b6117b3565b6001600160a01b0316146116315760405162461bcd60e51b8152600401610d1890614a82565b6097546001600160a01b038381169116141561165f5760405162461bcd60e51b8152600401610d1890614ab7565b6001600160a01b03821660009081526099602052604090206001015464ffffffffff161561169f5760405162461bcd60e51b8152600401610d1890614c0e565b6116bb6116aa6117b3565b6001600160a01b0384169083612fc1565b7f8c1256b8896378cd5044f80c202f9772b9d77dc85c8a6eb51967210b09bfaa2882826040516116ec92919061467d565b60405180910390a15050565b611700612de8565b6001600160a01b03166117116117b3565b6001600160a01b0316146117375760405162461bcd60e51b8152600401610d1890614a82565b6127108211156117595760405162461bcd60e51b8152600401610d1890614b6a565b61271081111561177b5760405162461bcd60e51b8152600401610d1890614c7c565b8082111561179b5760405162461bcd60e51b8152600401610d1890614b6a565b60a782905560a88190556117af600061301c565b5050565b6065546001600160a01b031690565b600054610100900460ff16806117db57506117db6132ee565b806117e9575060005460ff16155b6118055760405162461bcd60e51b8152600401610d18906149b9565b600054610100900460ff16158015611830576000805460ff1961ff0019909116610100171660011790555b6001600160a01b03861661184357600080fd5b609780546001600160a01b0319166001600160a01b03881617905561186a60ad868661429f565b5061187760ae848461429f565b5060af805460ff19166012179055600061189862015180610aad42826126b7565b60408051808201909152600080825263ffffffff80841660208401908152609f8054600181018255935292517f0bc14066c33013fe88f66e314e4cf150b0b2d4d6451a1a51dbbd1c27cd11de2890920180549351909116600160e01b026001600160e01b039283166001600160e01b03199094169390931790911691909117905590506119236132ff565b61192b613391565b50801561193e576000805461ff00191690555b505050505050565b60ae8054604080516020601f6002600019610100600188161502019095169490940493840181900481028201810190925282815260609390929091830182828015610a8f5780601f10610a6457610100808354040283529160200191610a8f565b61271081565b60aa5481565b6119bb612de8565b6001600160a01b03166119cc6117b3565b6001600160a01b0316146119f25760405162461bcd60e51b8152600401610d1890614a82565b60a9546001600160a01b031615611a1b5760405162461bcd60e51b8152600401610d1890614a61565b60a980546001600160a01b0319166001600160a01b0392909216919091179055565b611a45612de8565b6001600160a01b0316611a566117b3565b6001600160a01b031614611a7c5760405162461bcd60e51b8152600401610d1890614a82565b6105dc8310611a9d5760405162461bcd60e51b8152600401610d18906148e2565b6175308210611abe5760405162461bcd60e51b8152600401610d189061490c565b6001600160a01b038116611ae45760405162461bcd60e51b8152600401610d1890614959565b60a59290925560a65560a280546001600160a01b0319166001600160a01b03909216919091179055565b60a2546001600160a01b031681565b60a16020528160005260406000208181548110611b3657fe5b6000918252602090912001546001600160701b038082169350600160701b8204169150600160e01b900463ffffffff1683565b60a35481565b60a85481565b60a65481565b600080805260a06020527fb84a74ec6ef4d0e83b6006dfaa014ab4026f9f3b97d186e604d29998a4e808ea8054600160701b90046001600160701b0316825b609854811015611d3557600060988281548110611bd357fe5b6000918252602090912001546001600160a01b03169050611bf661109582612dec565b6001600160a01b03821660009081526099602052604090206001810180546001600160d01b0393909316600160281b02600160281b600160f81b03199093169290921790915554611c57906110fb9064ffffffffff61010090910416612ddc565b6001600160a01b038281166000908152609960205260409020600101805464ffffffffff191664ffffffffff9390931692909217909155851615611d2c576001600160a01b038116600090815260996020526040902054611ccd908690839060ff166111765786546001600160701b0316611178565b6001600160a01b038681166000818152609c60209081526040808320948716808452948252808320959095556099815284822060010154928252609b815284822093825292909252919020600160281b9091046001600160d01b031690555b50600101611bba565b5050506001600160a01b0383166000908152609a6020908152604080832033845290915290205460ff16611d6857600080fd5b60008211611d885760405162461bcd60e51b8152600401610d1890614a3e565b611d928383613407565b611da76001600160a01b03841633308561353a565b826001600160a01b03167fac24935fd910bc682b5ccb1a07b718cadf8cf2f6d1404c4f3ddc3662dae40e2983604051611de09190614d70565b60405180910390a2505050565b6001600160a01b038116600090815260996020526040812054610c7590600160301b90046001600160d01b0316620151806126e9565b60ac5460ff1681565b611e37816000611002565b50565b611e42613561565b565b609854606090818167ffffffffffffffff81118015611e6257600080fd5b50604051908082528060200260200182016040528015611e8c578160200160208202803683370190505b50905060005b82811015611ef15760988181548110611ea757fe5b9060005260206000200160009054906101000a90046001600160a01b0316828281518110611ed157fe5b6001600160a01b0390921660209283029190910190910152600101611e92565b5091505090565b609f8181548110611f0557fe5b6000918252602090912001546001600160e01b0381169150600160e01b900463ffffffff1682565b609d5481565b6001600160a01b038116600090815260a160205260408120609f80548391611f889162015180919088908110611f6557fe5b60009182526020909120015463ffffffff600160e01b9091048116919061269416565b8254909150600019015b600181011561200c576000611fb662015180600702601502858481548110610bf357fe5b905082811415611ff457838281548110611fcc57fe5b600091825260209091200154600160701b90046001600160701b03169450610c759350505050565b82811015612002575061200c565b5060001901611f92565b50600095945050505050565b6002600154141561203b5760405162461bcd60e51b8152600401610d1890614c45565b6002600155610d3533600080848382612743565b612057612de8565b6001600160a01b03166120686117b3565b6001600160a01b03161461208e5760405162461bcd60e51b8152600401610d1890614a82565b6001600160a01b03831660009081526099602052604090206001015464ffffffffff16156120bb57600080fd5b6098805460018082019092557f2237a976fa961f5921fd19f2b03c925c725d77b20ce8f790c19709c03de4d8140180546001600160a01b0319166001600160a01b039586169081179091556000908152609960209081526040808320808501805464ffffffffff19164264ffffffffff16908117909155815465ffffffffff0019166101009091021760ff19908116961515969096179055609a8252808320959096168252939093529290912080549091169091179055565b60985460609067ffffffffffffffff8111801561219057600080fd5b506040519080825280602002602001820160405280156121ca57816020015b6121b7614319565b8152602001906001900390816121af5790505b506001600160a01b038316600090815260a060205260408120805492935091600160701b90046001600160701b0316905b83518110156114c85760006098828154811061221357fe5b9060005260206000200160009054906101000a90046001600160a01b031690508085838151811061224057fe5b6020908102919091018101516001600160a01b03928316905290821660009081526099909152604090205461228a908790839060ff166111765786546001600160701b0316611178565b85838151811061229657fe5b6020908102919091018101510152506001016121fb565b600260015414156122d05760405162461bcd60e51b8152600401610d1890614c45565b60026001556001600160a01b038316600090815260a06020526040812080548592600160701b9091046001600160701b0316905b60985481101561247f5760006098828154811061231d57fe5b6000918252602090912001546001600160a01b0316905061234061109582612dec565b6001600160a01b03821660009081526099602052604090206001810180546001600160d01b0393909316600160281b02600160281b600160f81b031990931692909217909155546123a1906110fb9064ffffffffff61010090910416612ddc565b6001600160a01b038281166000908152609960205260409020600101805464ffffffffff191664ffffffffff9390931692909217909155851615612476576001600160a01b038116600090815260996020526040902054612417908690839060ff166111765786546001600160701b0316611178565b6001600160a01b038681166000818152609c60209081526040808320948716808452948252808320959095556099815284822060010154928252609b815284822093825292909252919020600160281b9091046001600160d01b031690555b50600101612304565b505060975461249a91506001600160a01b031633308661353a565b6112c884848460006136a9565b60ab5481565b609c60209081526000928352604080842090915290825290205481565b60a75481565b6000610c7582612dec565b6124e3612de8565b6001600160a01b03166124f46117b3565b6001600160a01b03161461251a5760405162461bcd60e51b8152600401610d1890614a82565b6001600160a01b0381166125405760405162461bcd60e51b8152600401610d189061484c565b6065546040516001600160a01b038084169216907f8be0079c531659141344cd1fd0a4f28419497f9722a3daafe3b4186f6b6457e090600090a3606580546001600160a01b0319166001600160a01b0392909216919091179055565b609f5460009060001901816125b862015180610aad86826126b7565b935060005b608081101561263e578282106125d25761263e565b600060026001848601010490506000609f82815481106125ee57fe5b600091825260209091200154600160e01b900463ffffffff1690508681141561261d57509350610cf092505050565b8681101561262d57819350612634565b6001820394505b50506001016125bd565b509392505050565b61264e612de8565b6001600160a01b031661265f6117b3565b6001600160a01b0316146126855760405162461bcd60e51b8152600401610d1890614a82565b60ac805460ff19166001179055565b81810181811015610c755760405162461bcd60e51b8152600401610d1890614982565b60008082116126d85760405162461bcd60e51b8152600401610d1890614815565b8183816126e157fe5b049392505050565b60008115806127045750508082028282828161270157fe5b04145b610c755760405162461bcd60e51b8152600401610d1890614c9f565b80820382811115610c755760405162461bcd60e51b8152600401610d18906147af565b6001600160a01b038616600090815260a06020526040812080548892600160701b9091046001600160701b0316905b6098548110156128ed5760006098828154811061278b57fe5b6000918252602090912001546001600160a01b031690506127ae61109582612dec565b6001600160a01b03821660009081526099602052604090206001810180546001600160d01b0393909316600160281b02600160281b600160f81b0319909316929092179091555461280f906110fb9064ffffffffff61010090910416612ddc565b6001600160a01b038281166000908152609960205260409020600101805464ffffffffff191664ffffffffff93909316929092179091558516156128e4576001600160a01b038116600090815260996020526040902054612885908690839060ff166111765786546001600160701b0316611178565b6001600160a01b038681166000818152609c60209081526040808320948716808452948252808320959095556099815284822060010154928252609b815284822093825292909252919020600160281b9091046001600160d01b031690555b50600101612772565b5050506001600160a01b038716600090815260a16020908152604080832060a09092528220815460ac5492939192829190829060ff168061295e57506129334289612720565b86600184038154811061294257fe5b600091825260209091200154600160e01b900463ffffffff1611155b15612a715784546001600160701b038082169550600160701b90910416925061298682613d93565b855463ffffffff91909116600160e01b026001600160e01b039091161785558715612a6c5760006129c862015180610aad816129c2428e612720565b906126b7565b90506000612a09620151806129c28a60018803815481106129e557fe5b600091825260209091200154859063ffffffff600160e01b90910481169061272016565b90506000612a30612a288360010160aa546126e990919063ffffffff16565b612710613db9565b9050612a666127106129c2838c60018a0381548110612a4b57fe5b6000918252602090912001546001600160701b0316906126e9565b93505050505b612bdf565b8454600160e01b900463ffffffff16805b83811015612bbf57612a94428b612720565b888281548110612aa057fe5b600091825260209091200154600160e01b900463ffffffff161115612ac457612bbf565b612af1888281548110612ad357fe5b6000918252602090912001546001600160701b038881169116613dcf565b9550612b27888281548110612b0257fe5b6000918252602090912001546001600160701b0387811691600160701b900416613dcf565b94508915612bb3576000612b5262015180610aad620151806129c28f4261272090919063ffffffff16565b90506000612b6c620151806129c28c86815481106129e557fe5b90506000612b8b612a288360010160aa546126e990919063ffffffff16565b9050612bad612ba66127106129c2848f8981548110612a4b57fe5b8790612694565b95505050505b60019182019101612a82565b50855463ffffffff909116600160e01b026001600160e01b039091161785555b6000846001600160701b031611612c085760405162461bcd60e51b8152600401610d1890614933565b8454612c1d906001600160701b031685613dfe565b85546001600160701b0319166001600160701b0391821617808755612c4b91600160701b9091041684613dfe565b8554600160701b600160e01b031916600160701b6001600160701b0392831602178655609d54612c7c918616612720565b609d55609e54612c95906001600160701b038516612720565b609e819055508c6001600160a01b03167f2fd83d5e9f5d240bed47a97a24cf354e4047e25edc2da27b01fd95e5e8a0c9a5858e604051612cd6929190614d0d565b60405180910390a28015612d7057612cf6846001600160701b0316613e2d565b612d12612d0282613eae565b6001600160701b03861690613dfe565b9350612d2089826000613ed7565b8c6001600160a01b0316896001600160a01b03167f7e7ff29ed04cfb223bc9b02606f69520517c117ee82c9158ed2d96323c1ef38583604051612d639190614d70565b60405180910390a3612d97565b8a15612d9757612d97612d926127106129c26001600160701b0388168f6126e9565b613e2d565b8b15612db857612db38a856001600160701b03168d60016136a9565b612dcd565b612dcd8a856001600160701b03166001613ed7565b50505050505050505050505050565b6000610c754283613db9565b3390565b6000609e5460001415612e2b57506001600160a01b038116600090815260996020526040902060010154600160281b90046001600160d01b0316610cf0565b6001600160a01b038216600090815260996020526040902054610c7590612ec39060ff16612e5b57609d54612e5f565b609e545b6001600160a01b038516600090815260996020526040902080546001909101546129c291670de0b6b3a764000091610aad916001600160d01b03600160301b82041691839164ffffffffff91821691612ebd91610100900416612ddc565b90612720565b6001600160a01b038416600090815260996020526040902060010154600160281b90046001600160d01b031690612694565b60006001600160d01b03821115612f1e5760405162461bcd60e51b8152600401610d18906147de565b5090565b600064ffffffffff821115612f1e5760405162461bcd60e51b8152600401610d1890614cd6565b6001600160a01b038084166000818152609c6020908152604080832094871680845294825280832054938352609b825280832094835293905291822054612fb79190612fb190670de0b6b3a7640000906129c290612faa90612ebd8a612dec565b87906126e9565b90612694565b90505b9392505050565b6130178363a9059cbb60e01b8484604051602401612fe092919061467d565b60408051601f198184030181529190526020810180516001600160e01b03166001600160e01b031990931692909217909152613ef7565b505050565b60ac5460ff161561302c57611e37565b6097546040516370a0823160e01b81526000916001600160a01b0316906370a082319061305d903090600401614645565b60206040518083038186803b15801561307557600080fd5b505afa158015613089573d6000803e3d6000fd5b505050506040513d601f19601f820116820180604052508101906130ad91906145a0565b9050600060a960009054906101000a90046001600160a01b03166001600160a01b03166312065fe06040518163ffffffff1660e01b815260040160206040518083038186803b1580156130ff57600080fd5b505afa158015613113573d6000803e3d6000fd5b505050506040513d601f19601f8201168201806040525081019061313791906145a0565b905060006131458383612694565b90508061315457505050611e37565b6000613166826129c2856127106126e9565b9050600061318660026129c260a75460a85461269490919063ffffffff16565b9050600061319f8760a85461269490919063ffffffff16565b905060006131b360a7548960a75403613db9565b9050818411156132425760006131d96131d26127106129c289886126e9565b8890612720565b60a954604051632e1a7d4d60e01b81529192506001600160a01b031690632e1a7d4d9061320a908490600401614d70565b600060405180830381600087803b15801561322457600080fd5b505af1158015613238573d6000803e3d6000fd5b50505050506132e4565b808410156132e457600061326087612ebd6127106129c28a896126e9565b60a954609754919250613280916001600160a01b03908116911683612fc1565b60a960009054906101000a90046001600160a01b03166001600160a01b0316633a4b66f16040518163ffffffff1660e01b8152600401600060405180830381600087803b1580156132d057600080fd5b505af1158015612dcd573d6000803e3d6000fd5b5050505050505050565b60006132f930613f86565b15905090565b600054610100900460ff168061331857506133186132ee565b80613326575060005460ff16155b6133425760405162461bcd60e51b8152600401610d18906149b9565b600054610100900460ff1615801561336d576000805460ff1961ff0019909116610100171660011790555b613375613f8c565b61337d61400d565b8015611e37576000805461ff001916905550565b600054610100900460ff16806133aa57506133aa6132ee565b806133b8575060005460ff16155b6133d45760405162461bcd60e51b8152600401610d18906149b9565b600054610100900460ff161580156133ff576000805460ff1961ff0019909116610100171660011790555b61337d6140e7565b6001600160a01b03821660009081526099602052604090208054610100900464ffffffffff1642106134695761344361109583620151806126b7565b81546001600160d01b0391909116600160301b0265ffffffffffff9091161781556134e1565b805460009061348490610100900464ffffffffff1642612720565b82549091506000906134a7908390600160301b90046001600160d01b03166126e9565b90506134bd611095620151806129c28785612694565b83546001600160d01b0391909116600160301b0265ffffffffffff90911617835550505b6134ea42612f22565b60018201805464ffffffffff191664ffffffffff929092169190911790556135186110fb4262015180612694565b815464ffffffffff919091166101000265ffffffffff00199091161790555050565b61355b846323b872dd60e01b858585604051602401612fe093929190614659565b50505050565b600061357862015180612fb181610aad42826126b7565b609f80549192508290600019830183811061358f57fe5b600091825260209091200154600160e01b900463ffffffff1610156117af575b609f805483919060001981019081106135c457fe5b600091825260209091200154600160e01b900463ffffffff161461368257600061360062015180609f6001609f805490500381548110611f6557fe5b60408051808201909152600080825263ffffffff92831660208301908152609f8054600181018255925291517f0bc14066c33013fe88f66e314e4cf150b0b2d4d6451a1a51dbbd1c27cd11de2890910180549251909316600160e01b026001600160e01b039182166001600160e01b03199093169290921716179055506135af565b60a65460a454146136945760a65460a4555b60a55460a354146117af5760a55460a3555050565b600083116136c95760405162461bcd60e51b8152600401610d1890614892565b60a3548211156136eb5760405162461bcd60e51b8152600401610d18906148ba565b60ac5460ff161561370e5760405162461bcd60e51b8152600401610d1890614b11565b6001600160a01b038416600090815260a06020526040902061372e613561565b60006137406127106129c287876126e9565b9050600061376960a3546000146137595760a35461375c565b60015b60a4546129c290886126e9565b9050600061377f61377a8885612720565b613eae565b905060006137a061377a6137996127106129c28c886126e9565b8a90612694565b85549091506137b8906001600160701b031683613dcf565b85546001600160701b0319166001600160701b03918216178087556137e691600160701b9091041682613dcf565b8554600160701b600160e01b031916600160701b6001600160701b0392831602178655609d54613817918416612694565b609d55609e54613830906001600160701b038316612694565b609e55600061384662015180610aad42826126b7565b90508661385d5761385a8162015180612694565b90505b600061386c8262c1cc80612694565b6001600160a01b038c16600090815260a160205260409020549091508015806138d657506001600160a01b038c16600090815260a160205260409020805483919060001984019081106138bb57fe5b600091825260209091200154600160e01b900463ffffffff16105b15613985576001600160a01b038c16600090815260a16020908152604080832081516060810183526001600160701b03808b16825289811682860190815263ffffffff808a16958401958652845460018101865594885295909620915191909201805495519351909416600160e01b026001600160e01b03938316600160701b02600160701b600160e01b0319929093166001600160701b031990961695909517161716919091179055613cb2565b6001600160a01b038c16600090815260a160205260409020805483919060001984019081106139b057fe5b600091825260209091200154600160e01b900463ffffffff1611156139d457600019015b6001600160a01b038c16600090815260a160205260409020805483919060001984019081106139ff57fe5b600091825260209091200154600160e01b900463ffffffff161415613ac2576001600160a01b038c16600090815260a16020526040812080546000198401908110613a4657fe5b60009182526020909120018054909150613a69906001600160701b031687613dcf565b81546001600160701b0319166001600160701b0391821617808355613a9791600160701b9091041686613dcf565b81546001600160701b0391909116600160701b02600160701b600160e01b0319909116179055613cb2565b506001600160a01b038b16600090815260a160205260408120805491906000198301838110613aed57fe5b90600052602060002001905060a160008e6001600160a01b03166001600160a01b0316815260200190815260200160002060405180606001604052808360000160009054906101000a90046001600160701b03166001600160701b0316815260200183600001600e9054906101000a90046001600160701b03166001600160701b0316815260200183600001601c9054906101000a900463ffffffff1663ffffffff168152509080600181540180825580915050600190039060005260206000200160009091909190915060008201518160000160006101000a8154816001600160701b0302191690836001600160701b03160217905550602082015181600001600e6101000a8154816001600160701b0302191690836001600160701b03160217905550604082015181600001601c6101000a81548163ffffffff021916908363ffffffff1602179055505050858160000160006101000a8154816001600160701b0302191690836001600160701b031602179055508481600001600e6101000a8154816001600160701b0302191690836001600160701b031602179055508281600001601c6101000a81548163ffffffff021916908363ffffffff160217905550505b609f54600019018915613cc457600019015b6000609f8281548110613cd357fe5b60009182526020909120018054909150613cff906001600160e01b03166001600160701b03881661416d565b81546001600160e01b0319166001600160e01b03919091161781558815613d3d5760a254609754613d3d916001600160a01b0391821691168b612fc1565b848e6001600160a01b03167f9cfd25589d1eb8ad71e342a86a8524e83522e3936c0803048c08f6d9ad974f408f8a8a604051613d7b93929190614d79565b60405180910390a35050505050505050505050505050565b600063ffffffff821115612f1e5760405162461bcd60e51b8152600401610d1890614b8d565b6000818310613dc85781612fba565b5090919050565b8181016001600160701b038083169082161015610c755760405162461bcd60e51b8152600401610d1890614982565b8082036001600160701b038084169082161115610c755760405162461bcd60e51b8152600401610d18906147af565b6097546040516370a0823160e01b81526000916001600160a01b0316906370a0823190613e5e903090600401614645565b60206040518083038186803b158015613e7657600080fd5b505afa158015613e8a573d6000803e3d6000fd5b505050506040513d601f19601f8201168201806040525081019061301791906145a0565b60006001600160701b03821115612f1e5760405162461bcd60e51b8152600401610d1890614a07565b613ee082613e2d565b609754613017906001600160a01b03168484612fc1565b6060613f4c826040518060400160405280602081526020017f5361666545524332303a206c6f772d6c6576656c2063616c6c206661696c6564815250856001600160a01b031661419c9092919063ffffffff16565b8051909150156130175780806020019051810190613f6a919061456c565b6130175760405162461bcd60e51b8152600401610d1890614bc4565b3b151590565b600054610100900460ff1680613fa55750613fa56132ee565b80613fb3575060005460ff16155b613fcf5760405162461bcd60e51b8152600401610d18906149b9565b600054610100900460ff1615801561337d576000805460ff1961ff0019909116610100171660011790558015611e37576000805461ff001916905550565b600054610100900460ff168061402657506140266132ee565b80614034575060005460ff16155b6140505760405162461bcd60e51b8152600401610d18906149b9565b600054610100900460ff1615801561407b576000805460ff1961ff0019909116610100171660011790555b6000614085612de8565b606580546001600160a01b0319166001600160a01b038316908117909155604051919250906000907f8be0079c531659141344cd1fd0a4f28419497f9722a3daafe3b4186f6b6457e0908290a3508015611e37576000805461ff001916905550565b600054610100900460ff168061410057506141006132ee565b8061410e575060005460ff16155b61412a5760405162461bcd60e51b8152600401610d18906149b9565b600054610100900460ff16158015614155576000805460ff1961ff0019909116610100171660011790555b600180558015611e37576000805461ff001916905550565b8181016001600160e01b038083169082161015610c755760405162461bcd60e51b8152600401610d1890614982565b6060612fb78484600085856141b085613f86565b6141cc5760405162461bcd60e51b8152600401610d1890614b33565b60006060866001600160a01b031685876040516141e99190614629565b60006040518083038185875af1925050503d8060008114614226576040519150601f19603f3d011682016040523d82523d6000602084013e61422b565b606091505b509150915061423b828286614246565b979650505050505050565b60608315614255575081612fba565b8251156142655782518084602001fd5b8160405162461bcd60e51b8152600401610d18919061477c565b604080516060810182526000808252602082018190529181019190915290565b828054600181600116156101000203166002900490600052602060002090601f016020900481019282601f106142e05782800160ff1982351617855561430d565b8280016001018555821561430d579182015b8281111561430d5782358255916020019190600101906142f2565b50612f1e929150614330565b604080518082019091526000808252602082015290565b5b80821115612f1e5760008155600101614331565b80356001600160a01b0381168114610c7557600080fd5b60008083601f84011261436d578182fd5b50813567ffffffffffffffff811115614384578182fd5b60208301915083602082850101111561439c57600080fd5b9250929050565b6000602082840312156143b4578081fd5b612fba8383614345565b600080604083850312156143d0578081fd5b6143da8484614345565b91506143e98460208501614345565b90509250929050565b600080600060608486031215614406578081fd5b833561441181614e54565b9250602084013561442181614e54565b9150604084013561443181614e69565b809150509250925092565b6000806040838503121561444e578182fd5b6144588484614345565b9150602083013561446881614e69565b809150509250929050565b60008060008060006060868803121561448a578081fd5b853561449581614e54565b9450602086013567ffffffffffffffff808211156144b1578283fd5b6144bd89838a0161435c565b909650945060408801359150808211156144d5578283fd5b506144e28882890161435c565b969995985093965092949392505050565b60008060408385031215614505578182fd5b61450f8484614345565b946020939093013593505050565b600080600060608486031215614531578283fd5b61453b8585614345565b95602085013595506040909401359392505050565b600060208284031215614561578081fd5b8135612fba81614e69565b60006020828403121561457d578081fd5b8151612fba81614e69565b600060208284031215614599578081fd5b5035919050565b6000602082840312156145b1578081fd5b5051919050565b600080604083850312156145ca578182fd5b823591506143e98460208501614345565b600080604083850312156145ed578182fd5b50508035926020909101359150565b600080600060608486031215614610578283fd5b8335925060208401359150604084013561443181614e54565b6000825161463b818460208701614e28565b9190910192915050565b6001600160a01b0391909116815260200190565b6001600160a01b039384168152919092166020820152604081019190915260600190565b6001600160a01b03929092168252602082015260400190565b6020808252825182820181905260009190848201906040850190845b818110156146d75783516001600160a01b0316835292840192918401916001016146b2565b50909695505050505050565b602080825282518282018190526000919060409081850190868401855b8281101561472e57815180516001600160a01b03168552860151868501529284019290850190600101614700565b5091979650505050505050565b901515815260200190565b941515855264ffffffffff93841660208601526001600160d01b0392831660408601529216606084015216608082015260a00190565b600060208252825180602084015261479b816040850160208701614e28565b601f01601f19169190910160400192915050565b602080825260159082015274426f72696e674d6174683a20556e646572666c6f7760581b604082015260600190565b6020808252601c908201527f426f72696e674d6174683a2075696e74323038204f766572666c6f7700000000604082015260600190565b6020808252601c908201527f426f72696e674d6174683a206469766973696f6e206279207a65726f00000000604082015260600190565b60208082526026908201527f4f776e61626c653a206e6577206f776e657220697320746865207a65726f206160408201526564647265737360d01b606082015260800190565b6020808252600e908201526d043616e6e6f74207374616b6520360941b604082015260600190565b6020808252600e908201526d1bdd995c881b585e081cdc195b9960921b604082015260600190565b60208082526010908201526f1bdd995c881b585e081c185e5b595b9d60821b604082015260600190565b6020808252600d908201526c6f766572206d6178207261746560981b604082015260600190565b6020808252600c908201526b6e6f20657870206c6f636b7360a01b604082015260600190565b6020808252600f908201526e696e76616c6964206164647265737360881b604082015260600190565b60208082526018908201527f426f72696e674d6174683a20416464204f766572666c6f770000000000000000604082015260600190565b6020808252602e908201527f496e697469616c697a61626c653a20636f6e747261637420697320616c72656160408201526d191e481a5b9a5d1a585b1a5e995960921b606082015260800190565b6020808252601c908201527f426f72696e674d6174683a2075696e74313132204f766572666c6f7700000000604082015260600190565b602080825260099082015268139bc81c995dd85c9960ba1b604082015260600190565b60208082526007908201526610b0b9b9b4b3b760c91b604082015260600190565b6020808252818101527f4f776e61626c653a2063616c6c6572206973206e6f7420746865206f776e6572604082015260600190565b6020808252601d908201527f43616e6e6f74207769746864726177207374616b696e6720746f6b656e000000604082015260600190565b6020808252600990820152686d696e2064656c617960b81b604082015260600190565b60208082526008908201526739b43aba3237bbb760c11b604082015260600190565b6020808252601d908201527f416464726573733a2063616c6c20746f206e6f6e2d636f6e7472616374000000604082015260600190565b6020808252600990820152686d696e2072616e676560b81b604082015260600190565b6020808252601b908201527f426f72696e674d6174683a2075696e743332204f766572666c6f770000000000604082015260600190565b6020808252602a908201527f5361666545524332303a204552433230206f7065726174696f6e20646964206e6040820152691bdd081cdd58d8d9595960b21b606082015260800190565b6020808252601c908201527f43616e6e6f742077697468647261772072657761726420746f6b656e00000000604082015260600190565b6020808252601f908201527f5265656e7472616e637947756172643a207265656e7472616e742063616c6c00604082015260600190565b6020808252600990820152686d61782072616e676560b81b604082015260600190565b60208082526018908201527f426f72696e674d6174683a204d756c204f766572666c6f770000000000000000604082015260600190565b6020808252601b908201527f426f72696e674d6174683a2075696e743430204f766572666c6f770000000000604082015260600190565b6001600160701b039290921682521515602082015260400190565b6001600160701b03938416815291909216602082015263ffffffff909116604082015260600190565b6001600160e01b0392909216825263ffffffff16602082015260400190565b90815260200190565b9283526001600160701b03918216602084015216604082015260600190565b6000608082018683526020868185015260408681860152606060808187015283875180865260a0880191508489019550865b81811015614e0957865180516001600160701b03908116855287820151168785015285015163ffffffff16858401529585019591830191600101614dca565b50909b9a5050505050505050505050565b60ff91909116815260200190565b60005b83811015614e43578181015183820152602001614e2b565b8381111561355b5750506000910152565b6001600160a01b0381168114611e3757600080fd5b8015158114611e3757600080fdfea164736f6c634300060c000a",
    "linkReferences": {}
  }
}