{
  "abi": [
    {
      "anonymous": false,
      "inputs": [
        {
          "indexed": true,
          "internalType": "address",
          "name": "_user",
          "type": "address"
        },
        {
          "indexed": true,
          "internalType": "address",
          "name": "_kicked",
          "type": "address"
        },
        {
          "indexed": false,
          "internalType": "uint256",
          "name": "_reward",
          "type": "uint256"
        }
      ],
      "name": "KickReward",
      "type": "event"
    },
    {
      "anonymous": false,
      "inputs": [
        {
          "indexed": false,
          "internalType": "address",
          "name": "account",
          "type": "address"
        }
      ],
      "name": "Paused",
      "type": "event"
    },
    {
      "anonymous": false,
      "inputs": [
        {
          "indexed": false,
          "internalType": "address",
          "name": "_token",
          "type": "address"
        },
        {
          "indexed": false,
          "internalType": "uint256",
          "name": "_amount",
          "type": "uint256"
        }
      ],
      "name": "Recovered",
      "type": "event"
    },
    {
      "anonymous": false,
      "inputs": [
        {
          "indexed": false,
          "internalType": "address",
          "name": "account",
          "type": "address"
        },
        {
          "indexed": true,
          "internalType": "address",
          "name": "_token",
          "type": "address"
        },
        {
          "indexed": false,
          "internalType": "uint256",
          "name": "_reward",
          "type": "uint256"
        },
        {
          "indexed": false,
          "internalType": "bytes32",
          "name": "_dataTypeHash",
          "type": "bytes32"
        },
        {
          "indexed": false,
          "internalType": "uint256",
          "name": "_timestamp",
          "type": "uint256"
        }
      ],
      "name": "RewardAdded",
      "type": "event"
    },
    {
      "anonymous": false,
      "inputs": [
        {
          "indexed": true,
          "internalType": "address",
          "name": "_user",
          "type": "address"
        },
        {
          "indexed": true,
          "internalType": "address",
          "name": "_rewardsToken",
          "type": "address"
        },
        {
          "indexed": false,
          "internalType": "uint256",
          "name": "_reward",
          "type": "uint256"
        }
      ],
      "name": "RewardPaid",
      "type": "event"
    },
    {
      "anonymous": false,
      "inputs": [
        {
          "indexed": true,
          "internalType": "address",
          "name": "_user",
          "type": "address"
        },
        {
          "indexed": true,
          "internalType": "uint256",
          "name": "_epoch",
          "type": "uint256"
        },
        {
          "indexed": false,
          "internalType": "uint256",
          "name": "_paidAmount",
          "type": "uint256"
        },
        {
          "indexed": false,
          "internalType": "uint256",
          "name": "_lockedAmount",
          "type": "uint256"
        },
        {
          "indexed": false,
          "internalType": "uint256",
          "name": "_boostedAmount",
          "type": "uint256"
        }
      ],
      "name": "Staked",
      "type": "event"
    },
    {
      "anonymous": false,
      "inputs": [
        {
          "indexed": false,
          "internalType": "address",
          "name": "account",
          "type": "address"
        }
      ],
      "name": "Unpaused",
      "type": "event"
    },
    {
      "anonymous": false,
      "inputs": [
        {
          "indexed": true,
          "internalType": "address",
          "name": "_user",
          "type": "address"
        },
        {
          "indexed": false,
          "internalType": "uint256",
          "name": "_amount",
          "type": "uint256"
        },
        {
          "indexed": false,
          "internalType": "bool",
          "name": "_relocked",
          "type": "bool"
        }
      ],
      "name": "Withdrawn",
      "type": "event"
    },
    {
      "inputs": [],
      "name": "CONTRACT_GOVERNANCE_ROLE",
      "outputs": [
        {
          "internalType": "bytes32",
          "name": "",
          "type": "bytes32"
        }
      ],
      "stateMutability": "view",
      "type": "function"
    },
    {
      "inputs": [],
      "name": "PAUSER_ROLE",
      "outputs": [
        {
          "internalType": "bytes32",
          "name": "",
          "type": "bytes32"
        }
      ],
      "stateMutability": "view",
      "type": "function"
    },
    {
      "inputs": [],
      "name": "TECH_OPERATIONS_ROLE",
      "outputs": [
        {
          "internalType": "bytes32",
          "name": "",
          "type": "bytes32"
        }
      ],
      "stateMutability": "view",
      "type": "function"
    },
    {
      "inputs": [],
      "name": "TREASURY_GOVERNANCE_ROLE",
      "outputs": [
        {
          "internalType": "bytes32",
          "name": "",
          "type": "bytes32"
        }
      ],
      "stateMutability": "view",
      "type": "function"
    },
    {
      "inputs": [],
      "name": "UNPAUSER_ROLE",
      "outputs": [
        {
          "internalType": "bytes32",
          "name": "",
          "type": "bytes32"
        }
      ],
      "stateMutability": "view",
      "type": "function"
    },
    {
      "inputs": [
        {
          "internalType": "address",
          "name": "_globalAccessControl",
          "type": "address"
        }
      ],
      "name": "__GlobalAccessControlManaged_init",
      "outputs": [],
      "stateMutability": "nonpayable",
      "type": "function"
    },
    {
      "inputs": [
        {
          "internalType": "address",
          "name": "_rewardsToken",
          "type": "address"
        },
        {
          "internalType": "address",
          "name": "_distributor",
          "type": "address"
        },
        {
          "internalType": "bool",
          "name": "_useBoost",
          "type": "bool"
        }
      ],
      "name": "addReward",
      "outputs": [],
      "stateMutability": "nonpayable",
      "type": "function"
    },
    {
      "inputs": [
        {
          "internalType": "address",
          "name": "_rewardsToken",
          "type": "address"
        },
        {
          "internalType": "address",
          "name": "_distributor",
          "type": "address"
        },
        {
          "internalType": "bool",
          "name": "_approved",
          "type": "bool"
        }
      ],
      "name": "approveRewardDistributor",
      "outputs": [],
      "stateMutability": "nonpayable",
      "type": "function"
    },
    {
      "inputs": [
        {
          "internalType": "uint256",
          "name": "_epoch",
          "type": "uint256"
        },
        {
          "internalType": "address",
          "name": "_user",
          "type": "address"
        }
      ],
      "name": "balanceAtEpochOf",
      "outputs": [
        {
          "internalType": "uint256",
          "name": "amount",
          "type": "uint256"
        }
      ],
      "stateMutability": "view",
      "type": "function"
    },
    {
      "inputs": [
        {
          "internalType": "address",
          "name": "_user",
          "type": "address"
        }
      ],
      "name": "balanceOf",
      "outputs": [
        {
          "internalType": "uint256",
          "name": "amount",
          "type": "uint256"
        }
      ],
      "stateMutability": "view",
      "type": "function"
    },
    {
      "inputs": [
        {
          "internalType": "address",
          "name": "",
          "type": "address"
        }
      ],
      "name": "balances",
      "outputs": [
        {
          "internalType": "uint112",
          "name": "locked",
          "type": "uint112"
        },
        {
          "internalType": "uint112",
          "name": "boosted",
          "type": "uint112"
        },
        {
          "internalType": "uint32",
          "name": "nextUnlockIndex",
          "type": "uint32"
        }
      ],
      "stateMutability": "view",
      "type": "function"
    },
    {
      "inputs": [],
      "name": "boostPayment",
      "outputs": [
        {
          "internalType": "address",
          "name": "",
          "type": "address"
        }
      ],
      "stateMutability": "view",
      "type": "function"
    },
    {
      "inputs": [],
      "name": "boostRate",
      "outputs": [
        {
          "internalType": "uint256",
          "name": "",
          "type": "uint256"
        }
      ],
      "stateMutability": "view",
      "type": "function"
    },
    {
      "inputs": [],
      "name": "boostedSupply",
      "outputs": [
        {
          "internalType": "uint256",
          "name": "",
          "type": "uint256"
        }
      ],
      "stateMutability": "view",
      "type": "function"
    },
    {
      "inputs": [],
      "name": "checkpointEpoch",
      "outputs": [],
      "stateMutability": "nonpayable",
      "type": "function"
    },
    {
      "inputs": [
        {
          "internalType": "address",
          "name": "_account",
          "type": "address"
        },
        {
          "internalType": "address",
          "name": "_rewardToken",
          "type": "address"
        }
      ],
      "name": "claimableRewardForToken",
      "outputs": [
        {
          "components": [
            {
              "internalType": "address",
              "name": "token",
              "type": "address"
            },
            {
              "internalType": "uint256",
              "name": "amount",
              "type": "uint256"
            }
          ],
          "internalType": "struct StakedCitadelLocker.EarnedData",
          "name": "userReward",
          "type": "tuple"
        }
      ],
      "stateMutability": "view",
      "type": "function"
    },
    {
      "inputs": [
        {
          "internalType": "address",
          "name": "_account",
          "type": "address"
        }
      ],
      "name": "claimableRewards",
      "outputs": [
        {
          "components": [
            {
              "internalType": "address",
              "name": "token",
              "type": "address"
            },
            {
              "internalType": "uint256",
              "name": "amount",
              "type": "uint256"
            }
          ],
          "internalType": "struct StakedCitadelLocker.EarnedData[]",
          "name": "userRewards",
          "type": "tuple[]"
        }
      ],
      "stateMutability": "view",
      "type": "function"
    },
    {
      "inputs": [
        {
          "internalType": "address",
          "name": "",
          "type": "address"
        },
        {
          "internalType": "address",
          "name": "",
          "type": "address"
        }
      ],
      "name": "cumulativeClaimed",
      "outputs": [
        {
          "internalType": "uint256",
          "name": "",
          "type": "uint256"
        }
      ],
      "stateMutability": "view",
      "type": "function"
    },
    {
      "inputs": [
        {
          "internalType": "address",
          "name": "",
          "type": "address"
        }
      ],
      "name": "cumulativeDistributed",
      "outputs": [
        {
          "internalType": "uint256",
          "name": "",
          "type": "uint256"
        }
      ],
      "stateMutability": "view",
      "type": "function"
    },
    {
      "inputs": [],
      "name": "decimals",
      "outputs": [
        {
          "internalType": "uint8",
          "name": "",
          "type": "uint8"
        }
      ],
      "stateMutability": "view",
      "type": "function"
    },
    {
      "inputs": [],
      "name": "denominator",
      "outputs": [
        {
          "internalType": "uint256",
          "name": "",
          "type": "uint256"
        }
      ],
      "stateMutability": "view",
      "type": "function"
    },
    {
      "inputs": [],
      "name": "epochCount",
      "outputs": [
        {
          "internalType": "uint256",
          "name": "",
          "type": "uint256"
        }
      ],
      "stateMutability": "view",
      "type": "function"
    },
    {
      "inputs": [
        {
          "internalType": "uint256",
          "name": "",
          "type": "uint256"
        }
      ],
      "name": "epochs",
      "outputs": [
        {
          "internalType": "uint224",
          "name": "supply",
          "type": "uint224"
        },
        {
          "internalType": "uint32",
          "name": "date",
          "type": "uint32"
        }
      ],
      "stateMutability": "view",
      "type": "function"
    },
    {
      "inputs": [
        {
          "internalType": "uint256",
          "name": "_time",
          "type": "uint256"
        }
      ],
      "name": "findEpochId",
      "outputs": [
        {
          "internalType": "uint256",
          "name": "epoch",
          "type": "uint256"
        }
      ],
      "stateMutability": "view",
      "type": "function"
    },
    {
      "inputs": [],
      "name": "gac",
      "outputs": [
        {
          "internalType": "contract IGac",
          "name": "",
          "type": "address"
        }
      ],
      "stateMutability": "view",
      "type": "function"
    },
    {
      "inputs": [
        {
          "internalType": "address",
          "name": "_account",
          "type": "address"
        },
        {
          "internalType": "address",
          "name": "_rewardsToken",
          "type": "address"
        }
      ],
      "name": "getCumulativeClaimedRewards",
      "outputs": [
        {
          "internalType": "uint256",
          "name": "",
          "type": "uint256"
        }
      ],
      "stateMutability": "view",
      "type": "function"
    },
    {
      "inputs": [
        {
          "internalType": "address",
          "name": "_account",
          "type": "address"
        },
        {
          "internalType": "bool",
          "name": "_stake",
          "type": "bool"
        }
      ],
      "name": "getReward",
      "outputs": [],
      "stateMutability": "nonpayable",
      "type": "function"
    },
    {
      "inputs": [
        {
          "internalType": "address",
          "name": "_account",
          "type": "address"
        }
      ],
      "name": "getReward",
      "outputs": [],
      "stateMutability": "nonpayable",
      "type": "function"
    },
    {
      "inputs": [
        {
          "internalType": "address",
          "name": "_rewardsToken",
          "type": "address"
        }
      ],
      "name": "getRewardForDuration",
      "outputs": [
        {
          "internalType": "uint256",
          "name": "",
          "type": "uint256"
        }
      ],
      "stateMutability": "view",
      "type": "function"
    },
    {
      "inputs": [],
      "name": "getRewardTokens",
      "outputs": [
        {
          "internalType": "address[]",
          "name": "",
          "type": "address[]"
        }
      ],
      "stateMutability": "view",
      "type": "function"
    },
    {
      "inputs": [
        {
          "internalType": "address",
          "name": "_stakingToken",
          "type": "address"
        },
        {
          "internalType": "address",
          "name": "_gac",
          "type": "address"
        },
        {
          "internalType": "string",
          "name": "name",
          "type": "string"
        },
        {
          "internalType": "string",
          "name": "symbol",
          "type": "string"
        }
      ],
      "name": "initialize",
      "outputs": [],
      "stateMutability": "nonpayable",
      "type": "function"
    },
    {
      "inputs": [],
      "name": "isShutdown",
      "outputs": [
        {
          "internalType": "bool",
          "name": "",
          "type": "bool"
        }
      ],
      "stateMutability": "view",
      "type": "function"
    },
    {
      "inputs": [
        {
          "internalType": "address",
          "name": "_account",
          "type": "address"
        }
      ],
      "name": "kickExpiredLocks",
      "outputs": [],
      "stateMutability": "nonpayable",
      "type": "function"
    },
    {
      "inputs": [],
      "name": "kickRewardEpochDelay",
      "outputs": [
        {
          "internalType": "uint256",
          "name": "",
          "type": "uint256"
        }
      ],
      "stateMutability": "view",
      "type": "function"
    },
    {
      "inputs": [],
      "name": "kickRewardPerEpoch",
      "outputs": [
        {
          "internalType": "uint256",
          "name": "",
          "type": "uint256"
        }
      ],
      "stateMutability": "view",
      "type": "function"
    },
    {
      "inputs": [
        {
          "internalType": "address",
          "name": "_rewardsToken",
          "type": "address"
        }
      ],
      "name": "lastTimeRewardApplicable",
      "outputs": [
        {
          "internalType": "uint256",
          "name": "",
          "type": "uint256"
        }
      ],
      "stateMutability": "view",
      "type": "function"
    },
    {
      "inputs": [
        {
          "internalType": "address",
          "name": "_account",
          "type": "address"
        },
        {
          "internalType": "uint256",
          "name": "_amount",
          "type": "uint256"
        },
        {
          "internalType": "uint256",
          "name": "_spendRatio",
          "type": "uint256"
        }
      ],
      "name": "lock",
      "outputs": [],
      "stateMutability": "nonpayable",
      "type": "function"
    },
    {
      "inputs": [],
      "name": "lockDuration",
      "outputs": [
        {
          "internalType": "uint256",
          "name": "",
          "type": "uint256"
        }
      ],
      "stateMutability": "view",
      "type": "function"
    },
    {
      "inputs": [
        {
          "internalType": "address",
          "name": "_user",
          "type": "address"
        }
      ],
      "name": "lockedBalanceOf",
      "outputs": [
        {
          "internalType": "uint256",
          "name": "amount",
          "type": "uint256"
        }
      ],
      "stateMutability": "view",
      "type": "function"
    },
    {
      "inputs": [
        {
          "internalType": "address",
          "name": "_user",
          "type": "address"
        }
      ],
      "name": "lockedBalances",
      "outputs": [
        {
          "internalType": "uint256",
          "name": "total",
          "type": "uint256"
        },
        {
          "internalType": "uint256",
          "name": "unlockable",
          "type": "uint256"
        },
        {
          "internalType": "uint256",
          "name": "locked",
          "type": "uint256"
        },
        {
          "components": [
            {
              "internalType": "uint112",
              "name": "amount",
              "type": "uint112"
            },
            {
              "internalType": "uint112",
              "name": "boosted",
              "type": "uint112"
            },
            {
              "internalType": "uint32",
              "name": "unlockTime",
              "type": "uint32"
            }
          ],
          "internalType": "struct StakedCitadelLocker.LockedBalance[]",
          "name": "lockData",
          "type": "tuple[]"
        }
      ],
      "stateMutability": "view",
      "type": "function"
    },
    {
      "inputs": [],
      "name": "lockedSupply",
      "outputs": [
        {
          "internalType": "uint256",
          "name": "",
          "type": "uint256"
        }
      ],
      "stateMutability": "view",
      "type": "function"
    },
    {
      "inputs": [],
      "name": "maximumBoostPayment",
      "outputs": [
        {
          "internalType": "uint256",
          "name": "",
          "type": "uint256"
        }
      ],
      "stateMutability": "view",
      "type": "function"
    },
    {
      "inputs": [],
      "name": "maximumStake",
      "outputs": [
        {
          "internalType": "uint256",
          "name": "",
          "type": "uint256"
        }
      ],
      "stateMutability": "view",
      "type": "function"
    },
    {
      "inputs": [],
      "name": "minimumStake",
      "outputs": [
        {
          "internalType": "uint256",
          "name": "",
          "type": "uint256"
        }
      ],
      "stateMutability": "view",
      "type": "function"
    },
    {
      "inputs": [],
      "name": "name",
      "outputs": [
        {
          "internalType": "string",
          "name": "",
          "type": "string"
        }
      ],
      "stateMutability": "view",
      "type": "function"
    },
    {
      "inputs": [],
      "name": "nextBoostRate",
      "outputs": [
        {
          "internalType": "uint256",
          "name": "",
          "type": "uint256"
        }
      ],
      "stateMutability": "view",
      "type": "function"
    },
    {
      "inputs": [],
      "name": "nextMaximumBoostPayment",
      "outputs": [
        {
          "internalType": "uint256",
          "name": "",
          "type": "uint256"
        }
      ],
      "stateMutability": "view",
      "type": "function"
    },
    {
      "inputs": [
        {
          "internalType": "address",
          "name": "_rewardsToken",
          "type": "address"
        },
        {
          "internalType": "uint256",
          "name": "_reward",
          "type": "uint256"
        },
        {
          "internalType": "bytes32",
          "name": "_dataTypeHash",
          "type": "bytes32"
        }
      ],
      "name": "notifyRewardAmount",
      "outputs": [],
      "stateMutability": "nonpayable",
      "type": "function"
    },
    {
      "inputs": [
        {
          "internalType": "address",
          "name": "_rewardsToken",
          "type": "address"
        },
        {
          "internalType": "uint256",
          "name": "_reward",
          "type": "uint256"
        }
      ],
      "name": "notifyRewardAmount",
      "outputs": [],
      "stateMutability": "nonpayable",
      "type": "function"
    },
    {
      "inputs": [],
      "name": "pause",
      "outputs": [],
      "stateMutability": "nonpayable",
      "type": "function"
    },
    {
      "inputs": [],
      "name": "paused",
      "outputs": [
        {
          "internalType": "bool",
          "name": "",
          "type": "bool"
        }
      ],
      "stateMutability": "view",
      "type": "function"
    },
    {
      "inputs": [
        {
          "internalType": "uint256",
          "name": "_epoch",
          "type": "uint256"
        },
        {
          "internalType": "address",
          "name": "_user",
          "type": "address"
        }
      ],
      "name": "pendingLockAtEpochOf",
      "outputs": [
        {
          "internalType": "uint256",
          "name": "amount",
          "type": "uint256"
        }
      ],
      "stateMutability": "view",
      "type": "function"
    },
    {
      "inputs": [
        {
          "internalType": "address",
          "name": "_user",
          "type": "address"
        }
      ],
      "name": "pendingLockOf",
      "outputs": [
        {
          "internalType": "uint256",
          "name": "amount",
          "type": "uint256"
        }
      ],
      "stateMutability": "view",
      "type": "function"
    },
    {
      "inputs": [
        {
          "internalType": "bool",
          "name": "_relock",
          "type": "bool"
        }
      ],
      "name": "processExpiredLocks",
      "outputs": [],
      "stateMutability": "nonpayable",
      "type": "function"
    },
    {
      "inputs": [
        {
          "internalType": "address",
          "name": "_tokenAddress",
          "type": "address"
        },
        {
          "internalType": "uint256",
          "name": "_tokenAmount",
          "type": "uint256"
        }
      ],
      "name": "recoverERC20",
      "outputs": [],
      "stateMutability": "nonpayable",
      "type": "function"
    },
    {
      "inputs": [
        {
          "internalType": "address",
          "name": "",
          "type": "address"
        }
      ],
      "name": "rewardData",
      "outputs": [
        {
          "internalType": "bool",
          "name": "useBoost",
          "type": "bool"
        },
        {
          "internalType": "uint40",
          "name": "periodFinish",
          "type": "uint40"
        },
        {
          "internalType": "uint208",
          "name": "rewardRate",
          "type": "uint208"
        },
        {
          "internalType": "uint40",
          "name": "lastUpdateTime",
          "type": "uint40"
        },
        {
          "internalType": "uint208",
          "name": "rewardPerTokenStored",
          "type": "uint208"
        }
      ],
      "stateMutability": "view",
      "type": "function"
    },
    {
      "inputs": [
        {
          "internalType": "address",
          "name": "",
          "type": "address"
        },
        {
          "internalType": "address",
          "name": "",
          "type": "address"
        }
      ],
      "name": "rewardDistributors",
      "outputs": [
        {
          "internalType": "bool",
          "name": "",
          "type": "bool"
        }
      ],
      "stateMutability": "view",
      "type": "function"
    },
    {
      "inputs": [
        {
          "internalType": "address",
          "name": "_rewardsToken",
          "type": "address"
        }
      ],
      "name": "rewardPerToken",
      "outputs": [
        {
          "internalType": "uint256",
          "name": "",
          "type": "uint256"
        }
      ],
      "stateMutability": "view",
      "type": "function"
    },
    {
      "inputs": [
        {
          "internalType": "uint256",
          "name": "",
          "type": "uint256"
        }
      ],
      "name": "rewardTokens",
      "outputs": [
        {
          "internalType": "address",
          "name": "",
          "type": "address"
        }
      ],
      "stateMutability": "view",
      "type": "function"
    },
    {
      "inputs": [
        {
          "internalType": "address",
          "name": "_user",
          "type": "address"
        }
      ],
      "name": "rewardWeightOf",
      "outputs": [
        {
          "internalType": "uint256",
          "name": "amount",
          "type": "uint256"
        }
      ],
      "stateMutability": "view",
      "type": "function"
    },
    {
      "inputs": [
        {
          "internalType": "address",
          "name": "",
          "type": "address"
        },
        {
          "internalType": "address",
          "name": "",
          "type": "address"
        }
      ],
      "name": "rewards",
      "outputs": [
        {
          "internalType": "uint256",
          "name": "",
          "type": "uint256"
        }
      ],
      "stateMutability": "view",
      "type": "function"
    },
    {
      "inputs": [],
      "name": "rewardsDuration",
      "outputs": [
        {
          "internalType": "uint256",
          "name": "",
          "type": "uint256"
        }
      ],
      "stateMutability": "view",
      "type": "function"
    },
    {
      "inputs": [
        {
          "internalType": "uint256",
          "name": "_max",
          "type": "uint256"
        },
        {
          "internalType": "uint256",
          "name": "_rate",
          "type": "uint256"
        },
        {
          "internalType": "address",
          "name": "_receivingAddress",
          "type": "address"
        }
      ],
      "name": "setBoost",
      "outputs": [],
      "stateMutability": "nonpayable",
      "type": "function"
    },
    {
      "inputs": [
        {
          "internalType": "uint256",
          "name": "_rate",
          "type": "uint256"
        },
        {
          "internalType": "uint256",
          "name": "_delay",
          "type": "uint256"
        }
      ],
      "name": "setKickIncentive",
      "outputs": [],
      "stateMutability": "nonpayable",
      "type": "function"
    },
    {
      "inputs": [
        {
          "internalType": "uint256",
          "name": "_minimum",
          "type": "uint256"
        },
        {
          "internalType": "uint256",
          "name": "_maximum",
          "type": "uint256"
        }
      ],
      "name": "setStakeLimits",
      "outputs": [],
      "stateMutability": "nonpayable",
      "type": "function"
    },
    {
      "inputs": [
        {
          "internalType": "address",
          "name": "_staking",
          "type": "address"
        }
      ],
      "name": "setStakingContract",
      "outputs": [],
      "stateMutability": "nonpayable",
      "type": "function"
    },
    {
      "inputs": [],
      "name": "shutdown",
      "outputs": [],
      "stateMutability": "nonpayable",
      "type": "function"
    },
    {
      "inputs": [],
      "name": "stakeOffsetOnLock",
      "outputs": [
        {
          "internalType": "uint256",
          "name": "",
          "type": "uint256"
        }
      ],
      "stateMutability": "view",
      "type": "function"
    },
    {
      "inputs": [],
      "name": "stakingProxy",
      "outputs": [
        {
          "internalType": "address",
          "name": "",
          "type": "address"
        }
      ],
      "stateMutability": "view",
      "type": "function"
    },
    {
      "inputs": [],
      "name": "stakingToken",
      "outputs": [
        {
          "internalType": "contract IERC20Upgradeable",
          "name": "",
          "type": "address"
        }
      ],
      "stateMutability": "view",
      "type": "function"
    },
    {
      "inputs": [],
      "name": "symbol",
      "outputs": [
        {
          "internalType": "string",
          "name": "",
          "type": "string"
        }
      ],
      "stateMutability": "view",
      "type": "function"
    },
    {
      "inputs": [],
      "name": "totalSupply",
      "outputs": [
        {
          "internalType": "uint256",
          "name": "supply",
          "type": "uint256"
        }
      ],
      "stateMutability": "view",
      "type": "function"
    },
    {
      "inputs": [
        {
          "internalType": "uint256",
          "name": "_epoch",
          "type": "uint256"
        }
      ],
      "name": "totalSupplyAtEpoch",
      "outputs": [
        {
          "internalType": "uint256",
          "name": "supply",
          "type": "uint256"
        }
      ],
      "stateMutability": "view",
      "type": "function"
    },
    {
      "inputs": [],
      "name": "unpause",
      "outputs": [],
      "stateMutability": "nonpayable",
      "type": "function"
    },
    {
      "inputs": [
        {
          "internalType": "address",
          "name": "",
          "type": "address"
        },
        {
          "internalType": "uint256",
          "name": "",
          "type": "uint256"
        }
      ],
      "name": "userLocks",
      "outputs": [
        {
          "internalType": "uint112",
          "name": "amount",
          "type": "uint112"
        },
        {
          "internalType": "uint112",
          "name": "boosted",
          "type": "uint112"
        },
        {
          "internalType": "uint32",
          "name": "unlockTime",
          "type": "uint32"
        }
      ],
      "stateMutability": "view",
      "type": "function"
    },
    {
      "inputs": [
        {
          "internalType": "address",
          "name": "",
          "type": "address"
        },
        {
          "internalType": "address",
          "name": "",
          "type": "address"
        }
      ],
      "name": "userRewardPerTokenPaid",
      "outputs": [
        {
          "internalType": "uint256",
          "name": "",
          "type": "uint256"
        }
      ],
      "stateMutability": "view",
      "type": "function"
    },
    {
      "inputs": [],
      "name": "version",
      "outputs": [
        {
          "internalType": "uint256",
          "name": "",
          "type": "uint256"
        }
      ],
      "stateMutability": "view",
      "type": "function"
    },
    {
      "inputs": [
        {
          "internalType": "address",
          "name": "_withdrawTo",
          "type": "address"
        }
      ],
      "name": "withdrawExpiredLocksTo",
      "outputs": [],
      "stateMutability": "nonpayable",
      "type": "function"
    }
  ],
  "bytecode": {
    "object": "0x608060405260a380546001600160a01b0319908116909155600060a481905561271060a581905560a69190915560a781905560a881905560a95560aa80549091169055606460ab55600460ac5560ad805460ff1916905534801561006257600080fd5b50615f5f80620000736000396000f3fe608060405234801561001057600080fd5b506004361061046a5760003560e01c8063829965cc1161024c578063c00007b011610146578063e2ab691d116100c3578063f122977711610087578063f122977714610920578063f4e79fc314610933578063f82615971461093b578063fb1bb9de1461094e578063fc0e74d1146109565761046a565b8063e2ab691d146108e2578063e432488d146108f5578063e63ab1e9146108fd578063e70b9e2714610905578063ec5ffac2146109185761046a565b8063cb1b9a741161010a578063cb1b9a7414610876578063d36f12fb14610889578063d3c45c761461089c578063d6cd3dd5146108af578063dc01f60d146108c25761046a565b8063c00007b01461081d578063c1009f4b14610830578063c4f59f9b14610838578063c6b61e4c1461084d578063ca5c7b911461086e5761046a565b80639dd373b9116101d4578063b5c6b45311610198578063b5c6b453146107df578063b5ed7a66146107e7578063b66503cf146107ef578063bcd1101414610802578063bf86d690146108155761046a565b80639dd373b914610796578063a81653c9146107a9578063a98e05bb146107bc578063aa33fedb146107c4578063b187bc22146107d75761046a565b80638980f11f1161021b5780638980f11f146107585780638c9bd1b51461076b57806395d89b411461077e57806396ce0795146107865780639bdc74671461078e5761046a565b8063829965cc146107225780638456cb591461072a578063865c695314610732578063887c7dc5146107455761046a565b8063424df702116103685780637035ab98116102e557806375aadf61116102a957806375aadf61146106cc5780637a3dbd6a146106d45780637bb7bed1146106e75780637bd48c7c146106fa5780637d806f2f146107025761046a565b80637035ab98146106785780637050ccd91461068b57806370a082311461069e57806370b36d79146106b157806372f702f3146106c45761046a565b8063638634ee1161032c578063638634ee1461062457806363f1c8e214610637578063648bb8ad1461064a5780636724c9101461065257806368edd2bb146106655761046a565b8063424df702146105ca57806348e5d9f8146105dd57806354fd4d501461060157806359355736146106095780635c975abb1461061c5761046a565b806326b2f404116103f6578063313ce567116103ba578063313ce56714610572578063386a95251461058757806339fc97131461058f5780633bb3ebd4146105af5780633f4ba83a146105c25761046a565b806326b2f4041461051a57806327e235e3146105225780632e9564e4146105445780632fe871081461054c578063312ff8391461055f5761046a565b80630b0cca891161043d5780630b0cca89146104cd57806318160ddd146104d55780631c607395146104dd5780632016a0d2146104f057806322f80d11146105055761046a565b8063045544431461046f5780630483a7f61461048d57806306fdde03146104b057806309ece8ee146104c5575b600080fd5b61047761095e565b604051610484919061577a565b60405180910390f35b6104a061049b366004615342565b610965565b6040516104849493929190615e2a565b6104b8610b2b565b60405161048491906157a8565b610477610bc1565b610477610be5565b610477610bf7565b6104776104eb366004615582565b610ccd565b6105036104fe3660046153fc565b610dd9565b005b61050d610f68565b6040516104849190615628565b610477610f77565b610535610530366004615342565b610f9b565b60405161048493929190615dc3565b610477610fd1565b61047761055a366004615342565b610fd7565b61050361056d36600461551a565b611006565b61057a611104565b6040516104849190615eac565b61047761110d565b6105a261059d36600461537a565b611114565b6040516104849190615739565b6105036105bd3660046154e6565b611134565b61050361149b565b6104776105d836600461537a565b611550565b6105f06105eb366004615342565b61157b565b604051610484959493929190615744565b6104776115c7565b610477610617366004615342565b6115cc565b6105a26115f0565b610477610632366004615342565b6115f9565b6105036106453660046155a6565b611627565b610477611754565b6105036106603660046153b2565b61175a565b610477610673366004615342565b61189f565b61047761068636600461537a565b61193d565b61050361069936600461548e565b61195a565b6104776106ac366004615342565b611cf3565b6104776106bf366004615552565b611e1a565b61050d611ef1565b610477611f00565b6105036106e2366004615342565b611f06565b61050d6106f5366004615552565b611fad565b610477611fd4565b61071561071036600461537a565b611fda565b6040516104849190615d9a565b610477612065565b61050361206b565b61047761074036600461537a565b61211e565b610503610753366004615342565b61213b565b6105036107663660046154bb565b612248565b6105036107793660046155a6565b61248d565b6104b86125e4565b610477612645565b61047761264b565b6105036107a4366004615342565b612651565b6105036107b73660046155c7565b61277b565b61050d6128ec565b6105356107d23660046154bb565b6128fb565b610477612947565b61047761294d565b610477612953565b6105036107fd3660046154bb565b612959565b610477610810366004615342565b612bf1565b6105a2612c27565b61050361082b366004615342565b612c30565b610503612c3e565b610840612c46565b604051610484919061569f565b61086061085b366004615552565b612cfa565b604051610484929190615dec565b610477612d2f565b610477610884366004615582565b612d35565b610503610897366004615342565b612e1a565b6105036108aa3660046153b2565b612f11565b6104776108bd366004615342565b6130d6565b6108d56108d0366004615342565b6130e8565b60405161048491906156ec565b6105036108f03660046154e6565b613221565b6104776134da565b6104776134e0565b61047761091336600461537a565b613504565b610477613521565b61047761092e366004615342565b613527565b61050d613532565b610477610949366004615552565b613541565b6104776135eb565b61050361360f565b62c1cc8081565b6001600160a01b038116600090815260a26020908152604080832060a19092528220805483928392606092600160e01b900463ffffffff1684815b8454811015610b1357428582815481106109b657fe5b600091825260209091200154600160e01b900463ffffffff161115610add5781610a3357845481900367ffffffffffffffff811180156109f557600080fd5b50604051908082528060200260200182016040528015610a2f57816020015b610a1c615235565b815260200190600190039081610a145790505b5095505b848181548110610a3f57fe5b60009182526020918290206040805160608101825291909201546001600160701b038082168352600160701b8204169382019390935263ffffffff600160e01b90930492909216908201528651879084908110610a9857fe5b60200260200101819052508180600101925050610ad6858281548110610aba57fe5b60009182526020909120015488906001600160701b0316613635565b9650610b0b565b610b08858281548110610aec57fe5b60009182526020909120015489906001600160701b0316613635565b97505b6001016109a0565b505090546001600160701b0316955050509193509193565b60ae8054604080516020601f6002600019610100600188161502019095169490940493840181900481028201810190925282815260609390929091830182828015610bb75780601f10610b8c57610100808354040283529160200191610bb7565b820191906000526020600020905b815481529060010190602001808311610b9a57829003601f168201915b5050505050905090565b7f0ae097b90fd4eb85125339aa384674b34376a7d2431b48d50d88b599a2bda6f581565b600080516020615f0a83398151915281565b600080610c1162015180610c0b4282613658565b9061368a565b90506000610c228262c1cc806136c1565b60a0805491925083906000198301838110610c3957fe5b600091825260209091200154600160e01b900463ffffffff161115610c5d57600019015b60001981015b6001810115610cc657600060a08281548110610c7b57fe5b60009182526020909120018054909150600160e01b900463ffffffff168410610ca45750610cc6565b8054610cba9087906001600160e01b0316613635565b95505060001901610c63565b5050505090565b6001600160a01b038116600090815260a26020526040812060a0805483919086908110610cf657fe5b600091825260208220015463ffffffff600160e01b90910481169250610d2390839062c1cc80906136c116565b8354909150600019015b6001810115610dce576000610d7462015180600702601502868481548110610d5157fe5b60009182526020909120015463ffffffff600160e01b909104811691906136c116565b9050838111610dc45782811115610dbe57610db7858381548110610d9457fe5b6000918252602090912001548790600160701b90046001600160701b0316613635565b9550610dc4565b50610dce565b5060001901610d2d565b505050505b92915050565b600054610100900460ff1680610df25750610df26136e4565b80610e00575060005460ff16155b610e255760405162461bcd60e51b8152600401610e1c90615a1e565b60405180910390fd5b600054610100900460ff16158015610e50576000805460ff1961ff0019909116610100171660011790555b6001600160a01b038716610e6357600080fd5b609880546001600160a01b0319166001600160a01b038916179055610e8a60ae8686615255565b50610e9760af8484615255565b5060b0805460ff191660121790556000610eb862015180610c0b4282613658565b60408051808201909152600080825263ffffffff8084166020840190815260a08054600181018255935292517f78fdc8d422c49ced035a9edf18d00d3c6a8d81df210f3e5e448e045e77b41e8890920180549351909116600160e01b026001600160e01b039283166001600160e01b0319909416939093179091169190911790559050610f436136f5565b610f4c87611f06565b508015610f5f576000805461ff00191690555b50505050505050565b60aa546001600160a01b031681565b7f90565f473acba990c953ecc83c4ef11c3dd8ed52a592a609c6e09518c2eef3c681565b60a1602052600090815260409020546001600160701b0380821691600160701b810490911690600160e01b900463ffffffff1683565b60a55481565b6001600160a01b038116600090815260a16020526040902054600160701b90046001600160701b03165b919050565b600260015414156110295760405162461bcd60e51b8152600401610e1c90615cd2565b600260015560975460408051635c975abb60e01b815290516001600160a01b0390921691635c975abb91600480820192602092909190829003018186803b15801561107357600080fd5b505afa158015611087573d6000803e3d6000fd5b505050506040513d601f19601f820116820180604052508101906110ab9190615536565b156110c85760405162461bcd60e51b8152600401610e1c9061596d565b6110d06115f0565b156110ed5760405162461bcd60e51b8152600401610e1c90615aa3565b6110fd338260003333600061377f565b5060018055565b60b05460ff1690565b6201518081565b609b60209081526000928352604080842090915290825290205460ff1681565b609760009054906101000a90046001600160a01b03166001600160a01b0316635c975abb6040518163ffffffff1660e01b815260040160206040518083038186803b15801561118257600080fd5b505afa158015611196573d6000803e3d6000fd5b505050506040513d601f19601f820116820180604052508101906111ba9190615536565b156111d75760405162461bcd60e51b8152600401610e1c9061596d565b6111df6115f0565b156111fc5760405162461bcd60e51b8152600401610e1c90615aa3565b600080805260a16020527f32ae1b88a7d4f92d7e214b63c8ea04cd13e2faaa60c50f499f2254336d98f8828054600160701b90046001600160701b0316825b6099548110156113c75760006099828154811061125457fe5b6000918252602090912001546001600160a01b0316905061127c61127782613e18565b613f21565b6001600160a01b0382166000908152609a602052604090206001810180546001600160d01b0393909316600160281b02600160281b600160f81b031990931692909217909155546112e2906112dd9064ffffffffff61010090910416613f4e565b613f5a565b6001600160a01b038281166000908152609a60205260409020600101805464ffffffffff191664ffffffffff93909316929092179091558516156113be576001600160a01b0381166000908152609a602052604090205461135f908690839060ff166113585786546001600160701b031661135a565b855b613f81565b6001600160a01b038681166000818152609d6020908152604080832094871680845294825280832095909555609a815284822060010154928252609c815284822093825292909252919020600160281b9091046001600160d01b031690555b5060010161123b565b5050506001600160a01b0384166000908152609b6020908152604080832033845290915290205460ff166113fa57600080fd5b6000831161141a5760405162461bcd60e51b8152600401610e1c90615ac9565b6114248484613ff9565b6114396001600160a01b03851633308661412c565b6001600160a01b038416600081815260b2602052604090819020805486019055517fa3e98ad001ab3597c5c4a0afe6de30207ef7d124a67337acefc3d5d5d905242f9061148d90339087908790429061563c565b60405180910390a250505050565b609754604051632474521560e21b81526001600160a01b03909116906391d14854906114ed907f427da25fe773164f88948d3e215c94b6554e2ed5e5f203a821c9f2f6131cf75a903390600401615783565b60206040518083038186803b15801561150557600080fd5b505afa158015611519573d6000803e3d6000fd5b505050506040513d601f19601f8201168201806040525081019061153d9190615536565b61154657600080fd5b61154e61418a565b565b6001600160a01b03918216600090815260b16020908152604080832093909416825291909152205490565b609a602052600090815260409020805460019091015460ff82169164ffffffffff61010082048116926001600160d01b03600160301b90930483169291811691600160281b9091041685565b600290565b6001600160a01b0316600090815260a160205260409020546001600160701b031690565b60655460ff1690565b6001600160a01b0381166000908152609a6020526040812054610dd390610100900464ffffffffff16613f4e565b609760009054906101000a90046001600160a01b03166001600160a01b0316635c975abb6040518163ffffffff1660e01b815260040160206040518083038186803b15801561167557600080fd5b505afa158015611689573d6000803e3d6000fd5b505050506040513d601f19601f820116820180604052508101906116ad9190615536565b156116ca5760405162461bcd60e51b8152600401610e1c9061596d565b6116d26115f0565b156116ef5760405162461bcd60e51b8152600401610e1c90615aa3565b611706600080516020615f0a8339815191526141f8565b6101f48211156117285760405162461bcd60e51b8152600401610e1c90615920565b60028110156117495760405162461bcd60e51b8152600401610e1c90615b44565b60ab9190915560ac55565b6101f481565b609760009054906101000a90046001600160a01b03166001600160a01b0316635c975abb6040518163ffffffff1660e01b815260040160206040518083038186803b1580156117a857600080fd5b505afa1580156117bc573d6000803e3d6000fd5b505050506040513d601f19601f820116820180604052508101906117e09190615536565b156117fd5760405162461bcd60e51b8152600401610e1c9061596d565b6118056115f0565b156118225760405162461bcd60e51b8152600401610e1c90615aa3565b611839600080516020615f0a8339815191526141f8565b6001600160a01b0383166000908152609a602052604090206001015464ffffffffff1661186557600080fd5b6001600160a01b039283166000908152609b6020908152604080832094909516825292909252919020805460ff1916911515919091179055565b6001600160a01b038116600090815260a2602052604081208054826118cb62015180610c0b4282613658565b90506000821180156118f75750806118f562015180600702601502856001860381548110610d5157fe5b115b156119325782600183038154811061190b57fe5b600091825260209091200154600160701b90046001600160701b0316935061100192505050565b506000949350505050565b609c60209081526000928352604080842090915290825290205481565b6002600154141561197d5760405162461bcd60e51b8152600401610e1c90615cd2565b600260015560975460408051635c975abb60e01b815290516001600160a01b0390921691635c975abb91600480820192602092909190829003018186803b1580156119c757600080fd5b505afa1580156119db573d6000803e3d6000fd5b505050506040513d601f19601f820116820180604052508101906119ff9190615536565b15611a1c5760405162461bcd60e51b8152600401610e1c9061596d565b611a246115f0565b15611a415760405162461bcd60e51b8152600401610e1c90615aa3565b6001600160a01b038216600090815260a16020526040812080548492600160701b9091046001600160701b0316905b609954811015611beb57600060998281548110611a8957fe5b6000918252602090912001546001600160a01b03169050611aac61127782613e18565b6001600160a01b0382166000908152609a602052604090206001810180546001600160d01b0393909316600160281b02600160281b600160f81b03199093169290921790915554611b0d906112dd9064ffffffffff61010090910416613f4e565b6001600160a01b038281166000908152609a60205260409020600101805464ffffffffff191664ffffffffff9390931692909217909155851615611be2576001600160a01b0381166000908152609a6020526040902054611b83908690839060ff166113585786546001600160701b031661135a565b6001600160a01b038681166000818152609d6020908152604080832094871680845294825280832095909555609a815284822060010154928252609c815284822093825292909252919020600160281b9091046001600160d01b031690555b50600101611a70565b50505060005b609954811015611ce957600060998281548110611c0a57fe5b60009182526020808320909101546001600160a01b038881168452609d83526040808520919092168085529252909120549091508015611cdf576001600160a01b038087166000908152609d6020908152604080832093861680845293909152812055611c78908783614296565b6001600160a01b03808716600081815260b1602090815260408083209487168084529490915290819020805485019055517f540798df468d7b23d11f156fdb954cb19ad414d150722a7b6d55ba369dea792e90611cd690859061577a565b60405180910390a35b5050600101611bf1565b5050600180555050565b6001600160a01b038116600090815260a26020908152604080832060a190925290912080548254600160701b82046001600160701b0316939291600160e01b900463ffffffff1690815b81811015611db65742858281548110611d5257fe5b600091825260209091200154600160e01b900463ffffffff1611611da957611da2858281548110611d7f57fe5b6000918252602090912001548790600160701b90046001600160701b03166136c1565b9550611dae565b611db6565b600101611d3d565b506000611dca62015180610c0b4282613658565b9050600082118015611df6575080611df462015180600702601502876001860381548110610d5157fe5b115b15611e1057611e0d856001840381548110611d7f57fe5b95505b5050505050919050565b600080611e5b62015180610c0b6201518060a08781548110611e3857fe5b60009182526020909120015463ffffffff600160e01b9091048116919061365816565b90506000611e6c8262c1cc806136c1565b9050835b6001810115611ee957600060a08281548110611e8857fe5b60009182526020909120018054909150600160e01b900463ffffffff168310611eb15750611ee9565b611edd60a08381548110611ec157fe5b60009182526020909120015486906001600160e01b0316613635565b94505060001901611e70565b505050919050565b6098546001600160a01b031681565b609f5481565b600054610100900460ff1680611f1f5750611f1f6136e4565b80611f2d575060005460ff16155b611f495760405162461bcd60e51b8152600401610e1c90615a1e565b600054610100900460ff16158015611f74576000805460ff1961ff0019909116610100171660011790555b611f7c6142b5565b609780546001600160a01b0319166001600160a01b0384161790558015611fa9576000805461ff00191690555b5050565b60998181548110611fba57fe5b6000918252602090912001546001600160a01b0316905081565b60a65481565b611fe26152cf565b6001600160a01b03808416600090815260a160209081526040808320815180830183529487168086528452609a83529220549192919082019061205b908790879060ff1661203a5785546001600160701b031661204d565b8554600160701b90046001600160701b03165b6001600160701b0316613f81565b9052949350505050565b60a05490565b609754604051632474521560e21b81526001600160a01b03909116906391d14854906120bd907f65d7a28e3265b37a6474929f336521b332c1681b933f6cb9f3376673440d862a903390600401615783565b60206040518083038186803b1580156120d557600080fd5b505afa1580156120e9573d6000803e3d6000fd5b505050506040513d601f19601f8201168201806040525081019061210d9190615536565b61211657600080fd5b61154e614341565b60b160209081526000928352604080842090915290825290205481565b6002600154141561215e5760405162461bcd60e51b8152600401610e1c90615cd2565b600260015560975460408051635c975abb60e01b815290516001600160a01b0390921691635c975abb91600480820192602092909190829003018186803b1580156121a857600080fd5b505afa1580156121bc573d6000803e3d6000fd5b505050506040513d601f19601f820116820180604052508101906121e09190615536565b156121fd5760405162461bcd60e51b8152600401610e1c9061596d565b6122056115f0565b156122225760405162461bcd60e51b8152600401610e1c90615aa3565b6110fd81600080843361224360ac546201518061368a90919063ffffffff16565b61377f565b609760009054906101000a90046001600160a01b03166001600160a01b0316635c975abb6040518163ffffffff1660e01b815260040160206040518083038186803b15801561229657600080fd5b505afa1580156122aa573d6000803e3d6000fd5b505050506040513d601f19601f820116820180604052508101906122ce9190615536565b156122eb5760405162461bcd60e51b8152600401610e1c9061596d565b6122f36115f0565b156123105760405162461bcd60e51b8152600401610e1c90615aa3565b612327600080516020615f0a8339815191526141f8565b609754604051632404341f60e21b81526000916001600160a01b031690639010d07c9061237a907f0ae097b90fd4eb85125339aa384674b34376a7d2431b48d50d88b599a2bda6f590859060040161579a565b60206040518083038186803b15801561239257600080fd5b505afa1580156123a6573d6000803e3d6000fd5b505050506040513d601f19601f820116820180604052508101906123ca919061535e565b6098549091506001600160a01b03848116911614156123fb5760405162461bcd60e51b8152600401610e1c90615b0d565b6001600160a01b0383166000908152609a602052604090206001015464ffffffffff161561243b5760405162461bcd60e51b8152600401610e1c90615c9b565b61244f6001600160a01b0384168284614296565b7f8c1256b8896378cd5044f80c202f9772b9d77dc85c8a6eb51967210b09bfaa288383604051612480929190615686565b60405180910390a1505050565b609760009054906101000a90046001600160a01b03166001600160a01b0316635c975abb6040518163ffffffff1660e01b815260040160206040518083038186803b1580156124db57600080fd5b505afa1580156124ef573d6000803e3d6000fd5b505050506040513d601f19601f820116820180604052508101906125139190615536565b156125305760405162461bcd60e51b8152600401610e1c9061596d565b6125386115f0565b156125555760405162461bcd60e51b8152600401610e1c90615aa3565b61256c600080516020615f0a8339815191526141f8565b61271082111561258e5760405162461bcd60e51b8152600401610e1c90615bc0565b6127108111156125b05760405162461bcd60e51b8152600401610e1c90615d09565b808211156125d05760405162461bcd60e51b8152600401610e1c90615bc0565b60a882905560a9819055611fa9600061439c565b60af8054604080516020601f6002600019610100600188161502019095169490940493840181900481028201810190925282815260609390929091830182828015610bb75780601f10610b8c57610100808354040283529160200191610bb7565b61271081565b60ab5481565b609760009054906101000a90046001600160a01b03166001600160a01b0316635c975abb6040518163ffffffff1660e01b815260040160206040518083038186803b15801561269f57600080fd5b505afa1580156126b3573d6000803e3d6000fd5b505050506040513d601f19601f820116820180604052508101906126d79190615536565b156126f45760405162461bcd60e51b8152600401610e1c9061596d565b6126fc6115f0565b156127195760405162461bcd60e51b8152600401610e1c90615aa3565b612730600080516020615f0a8339815191526141f8565b60aa546001600160a01b0316156127595760405162461bcd60e51b8152600401610e1c90615aec565b60aa80546001600160a01b0319166001600160a01b0392909216919091179055565b609760009054906101000a90046001600160a01b03166001600160a01b0316635c975abb6040518163ffffffff1660e01b815260040160206040518083038186803b1580156127c957600080fd5b505afa1580156127dd573d6000803e3d6000fd5b505050506040513d601f19601f820116820180604052508101906128019190615536565b1561281e5760405162461bcd60e51b8152600401610e1c9061596d565b6128266115f0565b156128435760405162461bcd60e51b8152600401610e1c90615aa3565b61285a600080516020615f0a8339815191526141f8565b6105dc831061287b5760405162461bcd60e51b8152600401610e1c906158f6565b617530821061289c5760405162461bcd60e51b8152600401610e1c90615920565b6001600160a01b0381166128c25760405162461bcd60e51b8152600401610e1c906159be565b60a69290925560a75560a380546001600160a01b0319166001600160a01b03909216919091179055565b60a3546001600160a01b031681565b60a2602052816000526040600020818154811061291457fe5b6000918252602090912001546001600160701b038082169350600160701b8204169150600160e01b900463ffffffff1683565b60a45481565b60a95481565b60a75481565b609760009054906101000a90046001600160a01b03166001600160a01b0316635c975abb6040518163ffffffff1660e01b815260040160206040518083038186803b1580156129a757600080fd5b505afa1580156129bb573d6000803e3d6000fd5b505050506040513d601f19601f820116820180604052508101906129df9190615536565b156129fc5760405162461bcd60e51b8152600401610e1c9061596d565b612a046115f0565b15612a215760405162461bcd60e51b8152600401610e1c90615aa3565b600080805260a16020527f32ae1b88a7d4f92d7e214b63c8ea04cd13e2faaa60c50f499f2254336d98f8828054600160701b90046001600160701b0316825b609954811015612bdb57600060998281548110612a7957fe5b6000918252602090912001546001600160a01b03169050612a9c61127782613e18565b6001600160a01b0382166000908152609a602052604090206001810180546001600160d01b0393909316600160281b02600160281b600160f81b03199093169290921790915554612afd906112dd9064ffffffffff61010090910416613f4e565b6001600160a01b038281166000908152609a60205260409020600101805464ffffffffff191664ffffffffff9390931692909217909155851615612bd2576001600160a01b0381166000908152609a6020526040902054612b73908690839060ff166113585786546001600160701b031661135a565b6001600160a01b038681166000818152609d6020908152604080832094871680845294825280832095909555609a815284822060010154928252609c815284822093825292909252919020600160281b9091046001600160d01b031690555b50600101612a60565b505050612bec83836000801b611134565b505050565b6001600160a01b0381166000908152609a6020526040812054610dd390600160301b90046001600160d01b03166201518061368a565b60ad5460ff1681565b612c3b81600061195a565b50565b61154e61466e565b609954606090818167ffffffffffffffff81118015612c6457600080fd5b50604051908082528060200260200182016040528015612c8e578160200160208202803683370190505b50905060005b82811015612cf35760998181548110612ca957fe5b9060005260206000200160009054906101000a90046001600160a01b0316828281518110612cd357fe5b6001600160a01b0390921660209283029190910190910152600101612c94565b5091505090565b60a08181548110612d0757fe5b6000918252602090912001546001600160e01b0381169150600160e01b900463ffffffff1682565b609e5481565b6001600160a01b038116600090815260a26020526040812060a080548391612d8a9162015180919088908110612d6757fe5b60009182526020909120015463ffffffff600160e01b9091048116919061363516565b8254909150600019015b6001810115612e0e576000612db862015180600702601502858481548110610d5157fe5b905082811415612df657838281548110612dce57fe5b600091825260209091200154600160701b90046001600160701b03169450610dd39350505050565b82811015612e045750612e0e565b5060001901612d94565b50600095945050505050565b60026001541415612e3d5760405162461bcd60e51b8152600401610e1c90615cd2565b600260015560975460408051635c975abb60e01b815290516001600160a01b0390921691635c975abb91600480820192602092909190829003018186803b158015612e8757600080fd5b505afa158015612e9b573d6000803e3d6000fd5b505050506040513d601f19601f82011682018060405250810190612ebf9190615536565b15612edc5760405162461bcd60e51b8152600401610e1c9061596d565b612ee46115f0565b15612f015760405162461bcd60e51b8152600401610e1c90615aa3565b6110fd336000808433600061377f565b609760009054906101000a90046001600160a01b03166001600160a01b0316635c975abb6040518163ffffffff1660e01b815260040160206040518083038186803b158015612f5f57600080fd5b505afa158015612f73573d6000803e3d6000fd5b505050506040513d601f19601f82011682018060405250810190612f979190615536565b15612fb45760405162461bcd60e51b8152600401610e1c9061596d565b612fbc6115f0565b15612fd95760405162461bcd60e51b8152600401610e1c90615aa3565b612ff0600080516020615f0a8339815191526141f8565b6001600160a01b0383166000908152609a602052604090206001015464ffffffffff161561301d57600080fd5b6099805460018082019092557f72a152ddfb8e864297c917af52ea6c1c68aead0fee1a62673fcc7e0c94979d000180546001600160a01b0319166001600160a01b039586169081179091556000908152609a60209081526040808320808501805464ffffffffff19164264ffffffffff16908117909155815465ffffffffff0019166101009091021760ff19908116961515969096179055609b8252808320959096168252939093529290912080549091169091179055565b60b26020526000908152604090205481565b60995460609067ffffffffffffffff8111801561310457600080fd5b5060405190808252806020026020018201604052801561313e57816020015b61312b6152cf565b8152602001906001900390816131235790505b506001600160a01b038316600090815260a160205260408120805492935091600160701b90046001600160701b0316905b8351811015611ee95760006099828154811061318757fe5b9060005260206000200160009054906101000a90046001600160a01b03169050808583815181106131b457fe5b6020908102919091018101516001600160a01b0392831690529082166000908152609a90915260409020546131fe908790839060ff166113585786546001600160701b031661135a565b85838151811061320a57fe5b60209081029190910181015101525060010161316f565b600260015414156132445760405162461bcd60e51b8152600401610e1c90615cd2565b600260015560975460408051635c975abb60e01b815290516001600160a01b0390921691635c975abb91600480820192602092909190829003018186803b15801561328e57600080fd5b505afa1580156132a2573d6000803e3d6000fd5b505050506040513d601f19601f820116820180604052508101906132c69190615536565b156132e35760405162461bcd60e51b8152600401610e1c9061596d565b6132eb6115f0565b156133085760405162461bcd60e51b8152600401610e1c90615aa3565b6001600160a01b038316600090815260a16020526040812080548592600160701b9091046001600160701b0316905b6099548110156134b25760006099828154811061335057fe5b6000918252602090912001546001600160a01b0316905061337361127782613e18565b6001600160a01b0382166000908152609a602052604090206001810180546001600160d01b0393909316600160281b02600160281b600160f81b031990931692909217909155546133d4906112dd9064ffffffffff61010090910416613f4e565b6001600160a01b038281166000908152609a60205260409020600101805464ffffffffff191664ffffffffff93909316929092179091558516156134a9576001600160a01b0381166000908152609a602052604090205461344a908690839060ff166113585786546001600160701b031661135a565b6001600160a01b038681166000818152609d6020908152604080832094871680845294825280832095909555609a815284822060010154928252609c815284822093825292909252919020600160281b9091046001600160d01b031690555b50600101613337565b50506098546134cd91506001600160a01b031633308661412c565b611ce984848460006147b6565b60ac5481565b7f65d7a28e3265b37a6474929f336521b332c1681b933f6cb9f3376673440d862a81565b609d60209081526000928352604080842090915290825290205481565b60a85481565b6000610dd382613e18565b6097546001600160a01b031681565b60a054600090600019018161355d62015180610c0b8682613658565b935060005b60808110156135e357828210613577576135e3565b60006002600184860101049050600060a0828154811061359357fe5b600091825260209091200154600160e01b900463ffffffff169050868114156135c25750935061100192505050565b868110156135d2578193506135d9565b6001820394505b5050600101613562565b509392505050565b7f427da25fe773164f88948d3e215c94b6554e2ed5e5f203a821c9f2f6131cf75a81565b613626600080516020615f0a8339815191526141f8565b60ad805460ff19166001179055565b81810181811015610dd35760405162461bcd60e51b8152600401610e1c906159e7565b60008082116136795760405162461bcd60e51b8152600401610e1c9061586f565b81838161368257fe5b049392505050565b60008115806136a5575050808202828282816136a257fe5b04145b610dd35760405162461bcd60e51b8152600401610e1c90615d2c565b80820382811115610dd35760405162461bcd60e51b8152600401610e1c906157db565b60006136ef30614ea0565b15905090565b600054610100900460ff168061370e575061370e6136e4565b8061371c575060005460ff16155b6137385760405162461bcd60e51b8152600401610e1c90615a1e565b600054610100900460ff16158015613763576000805460ff1961ff0019909116610100171660011790555b61376b614ea6565b8015612c3b576000805461ff001916905550565b6001600160a01b038616600090815260a16020526040812080548892600160701b9091046001600160701b0316905b609954811015613929576000609982815481106137c757fe5b6000918252602090912001546001600160a01b031690506137ea61127782613e18565b6001600160a01b0382166000908152609a602052604090206001810180546001600160d01b0393909316600160281b02600160281b600160f81b0319909316929092179091555461384b906112dd9064ffffffffff61010090910416613f4e565b6001600160a01b038281166000908152609a60205260409020600101805464ffffffffff191664ffffffffff9390931692909217909155851615613920576001600160a01b0381166000908152609a60205260409020546138c1908690839060ff166113585786546001600160701b031661135a565b6001600160a01b038681166000818152609d6020908152604080832094871680845294825280832095909555609a815284822060010154928252609c815284822093825292909252919020600160281b9091046001600160d01b031690555b506001016137ae565b5050506001600160a01b038716600090815260a26020908152604080832060a19092528220815460ad5492939192829190829060ff168061399a575061396f42896136c1565b86600184038154811061397e57fe5b600091825260209091200154600160e01b900463ffffffff1611155b15613aad5784546001600160701b038082169550600160701b9091041692506139c282614f2c565b855463ffffffff91909116600160e01b026001600160e01b039091161785558715613aa8576000613a0462015180610c0b816139fe428e6136c1565b90613658565b90506000613a45620151806139fe8a6001880381548110613a2157fe5b600091825260209091200154859063ffffffff600160e01b9091048116906136c116565b90506000613a6c613a648360010160ab5461368a90919063ffffffff16565b612710614f52565b9050613aa26127106139fe838c60018a0381548110613a8757fe5b6000918252602090912001546001600160701b03169061368a565b93505050505b613c1b565b8454600160e01b900463ffffffff16805b83811015613bfb57613ad0428b6136c1565b888281548110613adc57fe5b600091825260209091200154600160e01b900463ffffffff161115613b0057613bfb565b613b2d888281548110613b0f57fe5b6000918252602090912001546001600160701b038881169116614f68565b9550613b63888281548110613b3e57fe5b6000918252602090912001546001600160701b0387811691600160701b900416614f68565b94508915613bef576000613b8e62015180610c0b620151806139fe8f426136c190919063ffffffff16565b90506000613ba8620151806139fe8c8681548110613a2157fe5b90506000613bc7613a648360010160ab5461368a90919063ffffffff16565b9050613be9613be26127106139fe848f8981548110613a8757fe5b8790613635565b95505050505b60019182019101613abe565b50855463ffffffff909116600160e01b026001600160e01b039091161785555b6000846001600160701b031611613c445760405162461bcd60e51b8152600401610e1c90615947565b8454613c59906001600160701b031685614f97565b85546001600160701b0319166001600160701b0391821617808755613c8791600160701b9091041684614f97565b8554600160701b600160e01b031916600160701b6001600160701b0392831602178655609e54613cb89186166136c1565b609e55609f54613cd1906001600160701b0385166136c1565b609f819055508c6001600160a01b03167f2fd83d5e9f5d240bed47a97a24cf354e4047e25edc2da27b01fd95e5e8a0c9a5858e604051613d12929190615da8565b60405180910390a28015613dac57613d32846001600160701b0316614fc6565b613d4e613d3e82615047565b6001600160701b03861690614f97565b9350613d5c89826000615070565b8c6001600160a01b0316896001600160a01b03167f7e7ff29ed04cfb223bc9b02606f69520517c117ee82c9158ed2d96323c1ef38583604051613d9f919061577a565b60405180910390a3613dd3565b8a15613dd357613dd3613dce6127106139fe6001600160701b0388168f61368a565b614fc6565b8b15613df457613def8a856001600160701b03168d60016147b6565b613e09565b613e098a856001600160701b03166001615070565b50505050505050505050505050565b6000609f5460001415613e5757506001600160a01b0381166000908152609a6020526040902060010154600160281b90046001600160d01b0316611001565b6001600160a01b0382166000908152609a6020526040902054610dd390613eef9060ff16613e8757609e54613e8b565b609f545b6001600160a01b0385166000908152609a6020526040902080546001909101546139fe91670de0b6b3a764000091610c0b916001600160d01b03600160301b82041691839164ffffffffff91821691613ee991610100900416613f4e565b906136c1565b6001600160a01b0384166000908152609a6020526040902060010154600160281b90046001600160d01b031690613635565b60006001600160d01b03821115613f4a5760405162461bcd60e51b8152600401610e1c90615838565b5090565b6000610dd34283614f52565b600064ffffffffff821115613f4a5760405162461bcd60e51b8152600401610e1c90615d63565b6001600160a01b038084166000818152609d6020908152604080832094871680845294825280832054938352609c825280832094835293905291822054613fef9190613fe990670de0b6b3a7640000906139fe90613fe290613ee98a613e18565b879061368a565b90613635565b90505b9392505050565b6001600160a01b0382166000908152609a602052604090208054610100900464ffffffffff16421061405b576140356112778362015180613658565b81546001600160d01b0391909116600160301b0265ffffffffffff9091161781556140d3565b805460009061407690610100900464ffffffffff16426136c1565b8254909150600090614099908390600160301b90046001600160d01b031661368a565b90506140af611277620151806139fe8785613635565b83546001600160d01b0391909116600160301b0265ffffffffffff90911617835550505b6140dc42613f5a565b60018201805464ffffffffff191664ffffffffff9290921691909117905561410a6112dd4262015180613635565b815464ffffffffff919091166101000265ffffffffff00199091161790555050565b614184846323b872dd60e01b85858560405160240161414d93929190615662565b60408051601f198184030181529190526020810180516001600160e01b03166001600160e01b031990931692909217909152615090565b50505050565b6141926115f0565b6141ae5760405162461bcd60e51b8152600401610e1c9061580a565b6065805460ff191690557f5db9ee0a495bf2e6ff9c91a7834c1ba4fdd244a5e8aa4e537bd38aeae4b073aa6141e161511f565b6040516141ee9190615628565b60405180910390a1565b609754604051632474521560e21b81526001600160a01b03909116906391d148549061422a9084903390600401615783565b60206040518083038186803b15801561424257600080fd5b505afa158015614256573d6000803e3d6000fd5b505050506040513d601f19601f8201168201806040525081019061427a9190615536565b612c3b5760405162461bcd60e51b8152600401610e1c90615c64565b612bec8363a9059cbb60e01b848460405160240161414d929190615686565b600054610100900460ff16806142ce57506142ce6136e4565b806142dc575060005460ff16155b6142f85760405162461bcd60e51b8152600401610e1c90615a1e565b600054610100900460ff16158015614323576000805460ff1961ff0019909116610100171660011790555b6065805460ff191690558015612c3b576000805461ff001916905550565b6143496115f0565b156143665760405162461bcd60e51b8152600401610e1c90615994565b6065805460ff191660011790557f62e78cea01bee320cd4e420270b5ea74000d11b0c9f74754ebdbfc544b05a2586141e161511f565b60ad5460ff16156143ac57612c3b565b6098546040516370a0823160e01b81526000916001600160a01b0316906370a08231906143dd903090600401615628565b60206040518083038186803b1580156143f557600080fd5b505afa158015614409573d6000803e3d6000fd5b505050506040513d601f19601f8201168201806040525081019061442d919061556a565b9050600060aa60009054906101000a90046001600160a01b03166001600160a01b03166312065fe06040518163ffffffff1660e01b815260040160206040518083038186803b15801561447f57600080fd5b505afa158015614493573d6000803e3d6000fd5b505050506040513d601f19601f820116820180604052508101906144b7919061556a565b905060006144c58383613635565b9050806144d457505050612c3b565b60006144e6826139fe8561271061368a565b9050600061450660026139fe60a85460a95461363590919063ffffffff16565b9050600061451f8760a95461363590919063ffffffff16565b9050600061453360a8548960a85403614f52565b9050818411156145c25760006145596145526127106139fe898861368a565b88906136c1565b60aa54604051632e1a7d4d60e01b81529192506001600160a01b031690632e1a7d4d9061458a90849060040161577a565b600060405180830381600087803b1580156145a457600080fd5b505af11580156145b8573d6000803e3d6000fd5b5050505050614664565b808410156146645760006145e087613ee96127106139fe8a8961368a565b60aa54609854919250614600916001600160a01b03908116911683614296565b60aa60009054906101000a90046001600160a01b03166001600160a01b0316633a4b66f16040518163ffffffff1660e01b8152600401600060405180830381600087803b15801561465057600080fd5b505af1158015613e09573d6000803e3d6000fd5b5050505050505050565b600061468562015180613fe981610c0b4282613658565b60a080549192508290600019830183811061469c57fe5b600091825260209091200154600160e01b900463ffffffff161015611fa9575b60a0805483919060001981019081106146d157fe5b600091825260209091200154600160e01b900463ffffffff161461478f57600061470d6201518060a0600160a0805490500381548110612d6757fe5b60408051808201909152600080825263ffffffff9283166020830190815260a08054600181018255925291517f78fdc8d422c49ced035a9edf18d00d3c6a8d81df210f3e5e448e045e77b41e8890910180549251909316600160e01b026001600160e01b039182166001600160e01b03199093169290921716179055506146bc565b60a75460a554146147a15760a75460a5555b60a65460a45414611fa95760a65460a4555050565b600083116147d65760405162461bcd60e51b8152600401610e1c906158a6565b60a4548211156147f85760405162461bcd60e51b8152600401610e1c906158ce565b60ad5460ff161561481b5760405162461bcd60e51b8152600401610e1c90615b67565b6001600160a01b038416600090815260a16020526040902061483b61466e565b600061484d6127106139fe878761368a565b9050600061487660a4546000146148665760a454614869565b60015b60a5546139fe908861368a565b9050600061488c61488788856136c1565b615047565b905060006148ad6148876148a66127106139fe8c8861368a565b8a90613635565b85549091506148c5906001600160701b031683614f68565b85546001600160701b0319166001600160701b03918216178087556148f391600160701b9091041682614f68565b8554600160701b600160e01b031916600160701b6001600160701b0392831602178655609e54614924918416613635565b609e55609f5461493d906001600160701b038316613635565b609f55600061495362015180610c0b4282613658565b90508661496a576149678162015180613635565b90505b60006149798262c1cc80613635565b6001600160a01b038c16600090815260a260205260409020549091508015806149e357506001600160a01b038c16600090815260a260205260409020805483919060001984019081106149c857fe5b600091825260209091200154600160e01b900463ffffffff16105b15614a92576001600160a01b038c16600090815260a26020908152604080832081516060810183526001600160701b03808b16825289811682860190815263ffffffff808a16958401958652845460018101865594885295909620915191909201805495519351909416600160e01b026001600160e01b03938316600160701b02600160701b600160e01b0319929093166001600160701b031990961695909517161716919091179055614dbf565b6001600160a01b038c16600090815260a26020526040902080548391906000198401908110614abd57fe5b600091825260209091200154600160e01b900463ffffffff161115614ae157600019015b6001600160a01b038c16600090815260a26020526040902080548391906000198401908110614b0c57fe5b600091825260209091200154600160e01b900463ffffffff161415614bcf576001600160a01b038c16600090815260a26020526040812080546000198401908110614b5357fe5b60009182526020909120018054909150614b76906001600160701b031687614f68565b81546001600160701b0319166001600160701b0391821617808355614ba491600160701b9091041686614f68565b81546001600160701b0391909116600160701b02600160701b600160e01b0319909116179055614dbf565b506001600160a01b038b16600090815260a260205260408120805491906000198301838110614bfa57fe5b90600052602060002001905060a260008e6001600160a01b03166001600160a01b0316815260200190815260200160002060405180606001604052808360000160009054906101000a90046001600160701b03166001600160701b0316815260200183600001600e9054906101000a90046001600160701b03166001600160701b0316815260200183600001601c9054906101000a900463ffffffff1663ffffffff168152509080600181540180825580915050600190039060005260206000200160009091909190915060008201518160000160006101000a8154816001600160701b0302191690836001600160701b03160217905550602082015181600001600e6101000a8154816001600160701b0302191690836001600160701b03160217905550604082015181600001601c6101000a81548163ffffffff021916908363ffffffff1602179055505050858160000160006101000a8154816001600160701b0302191690836001600160701b031602179055508481600001600e6101000a8154816001600160701b0302191690836001600160701b031602179055508281600001601c6101000a81548163ffffffff021916908363ffffffff160217905550505b60a054600019018915614dd157600019015b600060a08281548110614de057fe5b60009182526020909120018054909150614e0c906001600160e01b03166001600160701b038816615123565b81546001600160e01b0319166001600160e01b03919091161781558815614e4a5760a354609854614e4a916001600160a01b0391821691168b614296565b848e6001600160a01b03167f9cfd25589d1eb8ad71e342a86a8524e83522e3936c0803048c08f6d9ad974f408f8a8a604051614e8893929190615e0b565b60405180910390a35050505050505050505050505050565b3b151590565b600054610100900460ff1680614ebf5750614ebf6136e4565b80614ecd575060005460ff16155b614ee95760405162461bcd60e51b8152600401610e1c90615a1e565b600054610100900460ff16158015614f14576000805460ff1961ff0019909116610100171660011790555b600180558015612c3b576000805461ff001916905550565b600063ffffffff821115613f4a5760405162461bcd60e51b8152600401610e1c90615be3565b6000818310614f615781613ff2565b5090919050565b8181016001600160701b038083169082161015610dd35760405162461bcd60e51b8152600401610e1c906159e7565b8082036001600160701b038084169082161115610dd35760405162461bcd60e51b8152600401610e1c906157db565b6098546040516370a0823160e01b81526000916001600160a01b0316906370a0823190614ff7903090600401615628565b60206040518083038186803b15801561500f57600080fd5b505afa158015615023573d6000803e3d6000fd5b505050506040513d601f19601f82011682018060405250810190612bec919061556a565b60006001600160701b03821115613f4a5760405162461bcd60e51b8152600401610e1c90615a6c565b61507982614fc6565b609854612bec906001600160a01b03168484614296565b60606150e5826040518060400160405280602081526020017f5361666545524332303a206c6f772d6c6576656c2063616c6c206661696c6564815250856001600160a01b03166151529092919063ffffffff16565b805190915015612bec57808060200190518101906151039190615536565b612bec5760405162461bcd60e51b8152600401610e1c90615c1a565b3390565b8181016001600160e01b038083169082161015610dd35760405162461bcd60e51b8152600401610e1c906159e7565b6060613fef84846000858561516685614ea0565b6151825760405162461bcd60e51b8152600401610e1c90615b89565b60006060866001600160a01b0316858760405161519f919061560c565b60006040518083038185875af1925050503d80600081146151dc576040519150601f19603f3d011682016040523d82523d6000602084013e6151e1565b606091505b50915091506151f18282866151fc565b979650505050505050565b6060831561520b575081613ff2565b82511561521b5782518084602001fd5b8160405162461bcd60e51b8152600401610e1c91906157a8565b604080516060810182526000808252602082018190529181019190915290565b828054600181600116156101000203166002900490600052602060002090601f016020900481019282601f106152965782800160ff198235161785556152c3565b828001600101855582156152c3579182015b828111156152c35782358255916020019190600101906152a8565b50613f4a9291506152e6565b604080518082019091526000808252602082015290565b5b80821115613f4a57600081556001016152e7565b60008083601f84011261530c578182fd5b50813567ffffffffffffffff811115615323578182fd5b60208301915083602082850101111561533b57600080fd5b9250929050565b600060208284031215615353578081fd5b8135613ff281615ee6565b60006020828403121561536f578081fd5b8151613ff281615ee6565b6000806040838503121561538c578081fd5b823561539781615ee6565b915060208301356153a781615ee6565b809150509250929050565b6000806000606084860312156153c6578081fd5b83356153d181615ee6565b925060208401356153e181615ee6565b915060408401356153f181615efb565b809150509250925092565b60008060008060008060808789031215615414578182fd5b863561541f81615ee6565b9550602087013561542f81615ee6565b9450604087013567ffffffffffffffff8082111561544b578384fd5b6154578a838b016152fb565b9096509450606089013591508082111561546f578384fd5b5061547c89828a016152fb565b979a9699509497509295939492505050565b600080604083850312156154a0578182fd5b82356154ab81615ee6565b915060208301356153a781615efb565b600080604083850312156154cd578182fd5b82356154d881615ee6565b946020939093013593505050565b6000806000606084860312156154fa578283fd5b833561550581615ee6565b95602085013595506040909401359392505050565b60006020828403121561552b578081fd5b8135613ff281615efb565b600060208284031215615547578081fd5b8151613ff281615efb565b600060208284031215615563578081fd5b5035919050565b60006020828403121561557b578081fd5b5051919050565b60008060408385031215615594578182fd5b8235915060208301356153a781615ee6565b600080604083850312156155b8578081fd5b50508035926020909101359150565b6000806000606084860312156155db578081fd5b833592506020840135915060408401356153f181615ee6565b80516001600160a01b03168252602090810151910152565b6000825161561e818460208701615eba565b9190910192915050565b6001600160a01b0391909116815260200190565b6001600160a01b0394909416845260208401929092526040830152606082015260800190565b6001600160a01b039384168152919092166020820152604081019190915260600190565b6001600160a01b03929092168252602082015260400190565b6020808252825182820181905260009190848201906040850190845b818110156156e05783516001600160a01b0316835292840192918401916001016156bb565b50909695505050505050565b602080825282518282018190526000919060409081850190868401855b8281101561572c5761571c8483516155f4565b9284019290850190600101615709565b5091979650505050505050565b901515815260200190565b941515855264ffffffffff93841660208601526001600160d01b0392831660408601529216606084015216608082015260a00190565b90815260200190565b9182526001600160a01b0316602082015260400190565b918252602082015260400190565b60006020825282518060208401526157c7816040850160208701615eba565b601f01601f19169190910160400192915050565b602080825260159082015274426f72696e674d6174683a20556e646572666c6f7760581b604082015260600190565b60208082526014908201527314185d5cd8589b194e881b9bdd081c185d5cd95960621b604082015260600190565b6020808252601c908201527f426f72696e674d6174683a2075696e74323038204f766572666c6f7700000000604082015260600190565b6020808252601c908201527f426f72696e674d6174683a206469766973696f6e206279207a65726f00000000604082015260600190565b6020808252600e908201526d043616e6e6f74207374616b6520360941b604082015260600190565b6020808252600e908201526d1bdd995c881b585e081cdc195b9960921b604082015260600190565b60208082526010908201526f1bdd995c881b585e081c185e5b595b9d60821b604082015260600190565b6020808252600d908201526c6f766572206d6178207261746560981b604082015260600190565b6020808252600c908201526b6e6f20657870206c6f636b7360a01b604082015260600190565b6020808252600d908201526c19db1bd8985b0b5c185d5cd959609a1b604082015260600190565b60208082526010908201526f14185d5cd8589b194e881c185d5cd95960821b604082015260600190565b6020808252600f908201526e696e76616c6964206164647265737360881b604082015260600190565b60208082526018908201527f426f72696e674d6174683a20416464204f766572666c6f770000000000000000604082015260600190565b6020808252602e908201527f496e697469616c697a61626c653a20636f6e747261637420697320616c72656160408201526d191e481a5b9a5d1a585b1a5e995960921b606082015260800190565b6020808252601c908201527f426f72696e674d6174683a2075696e74313132204f766572666c6f7700000000604082015260600190565b6020808252600c908201526b1b1bd8d85b0b5c185d5cd95960a21b604082015260600190565b602080825260099082015268139bc81c995dd85c9960ba1b604082015260600190565b60208082526007908201526610b0b9b9b4b3b760c91b604082015260600190565b6020808252601d908201527f43616e6e6f74207769746864726177207374616b696e6720746f6b656e000000604082015260600190565b6020808252600990820152686d696e2064656c617960b81b604082015260600190565b60208082526008908201526739b43aba3237bbb760c11b604082015260600190565b6020808252601d908201527f416464726573733a2063616c6c20746f206e6f6e2d636f6e7472616374000000604082015260600190565b6020808252600990820152686d696e2072616e676560b81b604082015260600190565b6020808252601b908201527f426f72696e674d6174683a2075696e743332204f766572666c6f770000000000604082015260600190565b6020808252602a908201527f5361666545524332303a204552433230206f7065726174696f6e20646964206e6040820152691bdd081cdd58d8d9595960b21b606082015260800190565b60208082526018908201527f4741433a20696e76616c69642d63616c6c65722d726f6c650000000000000000604082015260600190565b6020808252601c908201527f43616e6e6f742077697468647261772072657761726420746f6b656e00000000604082015260600190565b6020808252601f908201527f5265656e7472616e637947756172643a207265656e7472616e742063616c6c00604082015260600190565b6020808252600990820152686d61782072616e676560b81b604082015260600190565b60208082526018908201527f426f72696e674d6174683a204d756c204f766572666c6f770000000000000000604082015260600190565b6020808252601b908201527f426f72696e674d6174683a2075696e743430204f766572666c6f770000000000604082015260600190565b60408101610dd382846155f4565b6001600160701b039290921682521515602082015260400190565b6001600160701b03938416815291909216602082015263ffffffff909116604082015260600190565b6001600160e01b0392909216825263ffffffff16602082015260400190565b9283526001600160701b03918216602084015216604082015260600190565b6000608082018683526020868185015260408681860152606060808187015283875180865260a0880191508489019550865b81811015615e9b57865180516001600160701b03908116855287820151168785015285015163ffffffff16858401529585019591830191600101615e5c565b50909b9a5050505050505050505050565b60ff91909116815260200190565b60005b83811015615ed5578181015183820152602001615ebd565b838111156141845750506000910152565b6001600160a01b0381168114612c3b57600080fd5b8015158114612c3b57600080fdfe32522ae3fcc93c551ea7d30f39aaf5cf6e316c65a500706f77e9ecdd09ee1136a26469706673582212204de8ebc383c6852d11ec26b6528efca287a94cd57ca7d1267e9d13f3e7085e7564736f6c634300060c0033",
    "linkReferences": {}
  }
}